{"contracts/VulcanPadFactory.sol":{"VulcanPadFactory":{"abi":[{"inputs":[{"internalType":"address","name":"daiAddress_","type":"address"}],"stateMutability":"nonpayable","type":"constructor"},{"inputs":[{"internalType":"address","name":"target","type":"address"}],"name":"AddressEmptyCode","type":"error"},{"inputs":[{"internalType":"address","name":"account","type":"address"}],"name":"AddressInsufficientBalance","type":"error"},{"inputs":[],"name":"FailedInnerCall","type":"error"},{"inputs":[{"internalType":"address","name":"token","type":"address"}],"name":"SafeERC20FailedOperation","type":"error"},{"anonymous":false,"inputs":[{"indexed":false,"internalType":"address","name":"user_","type":"address"},{"indexed":false,"internalType":"uint256","name":"amount_","type":"uint256"}],"name":"SpamFilterFeePaid","type":"event"},{"inputs":[],"name":"daiAddress","outputs":[{"internalType":"address","name":"","type":"address"}],"stateMutability":"view","type":"function"},{"inputs":[],"name":"daiToken","outputs":[{"internalType":"contract IERC20","name":"","type":"address"}],"stateMutability":"view","type":"function"},{"inputs":[{"internalType":"address","name":"vulcanAddress_","type":"address"},{"internalType":"address","name":"tokenAddress_","type":"address"},{"internalType":"uint256","name":"amount_","type":"uint256"}],"name":"depositToken","outputs":[],"stateMutability":"nonpayable","type":"function"},{"inputs":[],"name":"feeAmount","outputs":[{"internalType":"uint256","name":"","type":"uint256"}],"stateMutability":"view","type":"function"},{"inputs":[{"internalType":"string","name":"title_","type":"string"},{"internalType":"string","name":"description_","type":"string"},{"internalType":"string","name":"logo_","type":"string"},{"internalType":"string","name":"videoLink_","type":"string"},{"internalType":"uint256","name":"softcap_","type":"uint256"},{"internalType":"uint256","name":"hardcap_","type":"uint256"},{"internalType":"uint256","name":"endTime_","type":"uint256"},{"internalType":"string","name":"name_","type":"string"},{"internalType":"string","name":"symbol_","type":"string"},{"internalType":"uint256","name":"price_","type":"uint256"},{"internalType":"uint256","name":"decimal_","type":"uint256"},{"internalType":"uint256","name":"totalSupply_","type":"uint256"},{"internalType":"address","name":"tokenAddress_","type":"address"}],"name":"launchNewICO","outputs":[{"internalType":"address","name":"","type":"address"}],"stateMutability":"nonpayable","type":"function"},{"inputs":[],"name":"owner","outputs":[{"internalType":"address","name":"","type":"address"}],"stateMutability":"view","type":"function"},{"inputs":[],"name":"paySpamFilterFee","outputs":[],"stateMutability":"nonpayable","type":"function"},{"inputs":[{"internalType":"uint256","name":"","type":"uint256"}],"name":"vulcans","outputs":[{"internalType":"address","name":"","type":"address"}],"stateMutability":"view","type":"function"}],"evm":{"bytecode":{"linkReferences":{},"object":"60a0346100dd57601f6123e238819003918201601f19168301916001600160401b038311848410176100e2578084926020946040528339810103126100dd57516001600160a01b038116908190036100dd5768056bc75e2d63100000600255801561009857608052600080546001600160a01b031916331790556040516122e990816100f982396080518181816108b301526109830152f35b60405162461bcd60e51b815260206004820152601360248201527f496e76616c6964204441492061646472657373000000000000000000000000006044820152606490fd5b600080fd5b634e487b7160e01b600052604160045260246000fdfe608060405260043610156200001357600080fd5b60003560e01c8063100a0c751462000b625780631325975614620009585780632c387275146200092d57806369e15404146200090d5780638da5cb5b14620008e2578063be22f546146200089b578063f5aee94814620003035763fb0f97a8146200007d57600080fd5b346200026057606036600319011262000260576001600160a01b036004358181169081810362000260576024358381168091036200026057604051638da5cb5b60e01b8152602094604435948690839060049082905afa918215620001e057600092620002c4575b50339116036200026d576040516370a0823160e01b81523360048201528481602481855afa8015620001e057849160009162000231575b501115620001ec5760405163095ea7b360e01b81523060048201526024810184905284816044816000865af1908115620001e057600091620001ac575b501562000170576200016e9350339062000cc2565b005b60405162461bcd60e51b81526004810185905260146024820152732a37b5b2b71030b8383937bb32903330b4b6321760611b6044820152606490fd5b620001d19150853d8711620001d8575b620001c8818362000bdb565b81019062000c66565b3862000159565b503d620001bc565b6040513d6000823e3d90fd5b60405162461bcd60e51b815260048101859052601b60248201527f496e73756666696369656e7420746f6b656e2062616c616e63652e00000000006044820152606490fd5b809250868092503d831162000265575b6200024d818362000bdb565b810103126200026057839051386200011c565b600080fd5b503d62000241565b60405162461bcd60e51b815260048101859052602960248201527f596f7520617265206e6f7420746865206f776e6572206f662056756c63616e2060448201526831b7b73a3930b1ba1760b91b6064820152608490fd5b9091508581813d8311620002fb575b620002df818362000bdb565b81010312620002605751818116810362000260579038620000e5565b503d620002d3565b3462000260576101a036600319011262000260576004356001600160401b03811162000260576200033990369060040162000c19565b6024356001600160401b03811162000260576200035b90369060040162000c19565b6044356001600160401b03811162000260576200037d90369060040162000c19565b906064356001600160401b0381116200026057620003a090369060040162000c19565b9160e4356001600160401b0381116200026057620003c390369060040162000c19565b906001600160401b0361010435116200026057620003e8366101043560040162000c19565b91610184356001600160a01b03811690036200026057336000526003602052604060002054600254116200085b57610184356001600160a01b0316156200081e5760c435421015620007da5760843515620007955760a43515620007505760843560a43511156200070b576101443515620006bc57610124351562000677576101643515620006245760405195866114978101106001600160401b03611497890111176200060e578695620004f86200053f94620004e16200055798620004ca6200050f966114978d62000e1d90396101c06114978e01818152019062000c80565b906114978c01820360208d61149701015262000c80565b906114978a01820360406114978c01015262000c80565b906114978801820360606114978a01015262000c80565b6084356114978701608081019190915260a43560a082015260c43560c082015280820360e0909101529062000c80565b90611497840182036101006114978601015262000c80565b336114978301610120810191909152610124356101408201526101443561016082015261016435610180820152610184356001600160a01b03166101a09091015203906000f08015620001e057600454906001600160a01b0316600160401b8210156200060e57620005d28260016020940160045562000ba9565b81546001600160a01b0360039290921b91821b19169083901b179055600081815260058352604090819020805460ff1916600117905551908152f35b634e487b7160e01b600052604160045260246000fd5b60405162461bcd60e51b815260206004820152602560248201527f546f6b656e20746f74616c537570706c79206d75737420677265617465722074604482015264068616e20360dc1b6064820152608490fd5b60405162461bcd60e51b815260206004820152601f60248201527f546f6b656e207072696365206d7573742067726561746572207468616e2030006044820152606490fd5b60405162461bcd60e51b815260206004820152602160248201527f546f6b656e20646563696d616c206d7573742067726561746572207468616e206044820152600360fc1b6064820152608490fd5b60405162461bcd60e51b815260206004820152601e60248201527f536f6674636170206d757374206c657373207468616e206861726463617000006044820152606490fd5b60405162461bcd60e51b815260206004820152601e60248201527f48617264636170206d7573742062652067726561746572207468616e203000006044820152606490fd5b60405162461bcd60e51b815260206004820152601e60248201527f536f6674636170206d7573742062652067726561746572207468616e203000006044820152606490fd5b606460405162461bcd60e51b815260206004820152602060248201527f456e642074696d652073686f756c6420626520696e20746865206675747572656044820152fd5b60405162461bcd60e51b8152602060048201526015602482015274496e76616c696420544f4b454e206164647265737360581b6044820152606490fd5b60405162461bcd60e51b81526020600482015260186024820152774e6f742070616964207370616d2066696c7465722066656560401b6044820152606490fd5b346200026057600036600319011262000260576040517f00000000000000000000000000000000000000000000000000000000000000006001600160a01b03168152602090f35b346200026057600036600319011262000260576000546040516001600160a01b039091168152602090f35b346200026057600036600319011262000260576020600254604051908152f35b346200026057600036600319011262000260576001546040516001600160a01b039091168152602090f35b346200026057600036600319011262000260576040516370a0823160e01b81523360048201526020907f0000000000000000000000000000000000000000000000000000000000000000906001600160a01b038216908381602481855afa908115620001e05760009162000b2f575b506002548091111562000aef5760405163095ea7b360e01b81523060048201526024810191909152908390829060449082906000905af1908115620001e05760009162000acd575b501562000a935760025462000a28913090339062000cc2565b60036002549133600052526040600020805491820180921162000a7d57556002546040805133815260208101929092527f5780754012857253291f05d2a4640a02412e6a2d96645b743dd54b2c5e09e20291a1005b634e487b7160e01b600052601160045260246000fd5b60405162461bcd60e51b815260048101839052601260248201527111105248185c1c1c9bdd994819985a5b195960721b6044820152606490fd5b62000ae89150833d8511620001d857620001c8818362000bdb565b8362000a0f565b60405162461bcd60e51b8152600481018590526018602482015277496e73756666696369656e74204461692062616c616e636560401b6044820152606490fd5b90508381813d831162000b5a575b62000b49818362000bdb565b8101031262000260575184620009c7565b503d62000b3d565b34620002605760203660031901126200026057600435600454811015620002605762000b9060209162000ba9565b905460405160039290921b1c6001600160a01b03168152f35b60045481101562000bc557600460005260206000200190600090565b634e487b7160e01b600052603260045260246000fd5b90601f801991011681019081106001600160401b038211176200060e57604052565b6001600160401b0381116200060e57601f01601f191660200190565b81601f82011215620002605780359062000c338262000bfd565b9262000c43604051948562000bdb565b828452602083830101116200026057816000926020809301838601378301015290565b908160209103126200026057518015158103620002605790565b919082519283825260005b84811062000cad575050826000602080949584010152601f8019910116010190565b60208183018101518483018201520162000c8b565b6040516323b872dd60e01b602082019081526001600160a01b0393841660248301529383166044820152606480820195909552938452909160a08401906001600160401b038211858310176200060e5762000d5d9360009384936040521694519082865af13d1562000dab573d9062000d3b8262000bfd565b9162000d4b604051938462000bdb565b82523d6000602084013e5b8362000db4565b805190811515918262000d8d575b505062000d755750565b60249060405190635274afe760e01b82526004820152fd5b62000da2925060208091830101910162000c66565b15388062000d6b565b60609062000d56565b9062000ddd575080511562000dcb57805190602001fd5b604051630a12f52160e11b8152600490fd5b8151158062000e12575b62000df0575090565b604051639996b31560e01b81526001600160a01b039091166004820152602490fd5b50803b1562000de756fe604060a081526200149780380380620000188162000b4c565b92833981016101c08282031262000b475781516001600160401b03811162000b4757816200004891840162000b72565b60208301519091906001600160401b03811162000b4757816200006d91850162000b72565b838501519091906001600160401b03811162000b4757816200009191860162000b72565b60608501519091906001600160401b03811162000b475781620000b691870162000b72565b9460808101519160a082015160c08301519060e084015160018060401b03811162000b475783620000e991860162000b72565b61010085015190936001600160401b03821162000b47576200010d91860162000b72565b946200011d610120860162000be4565b996101408601519761016087015199620001416101a06101808a0151990162000be4565b8642101562000b04578486111562000ab6576001600160a01b03169b8c1562000a72578051906001600160401b0382116200054f5760015490600182811c9216801562000a67575b60208310146200052e5781601f84931162000a06575b50602090601f83116001146200098c5760009262000980575b50508160011b916000199060031b1c1916176001555b8051906001600160401b0382116200054f5760025490600182811c9216801562000975575b60208310146200052e5781601f84931162000914575b50602090601f831160011462000896576000926200088a575b50508160011b916000199060031b1c1916176002555b8051906001600160401b0382116200054f5760035490600182811c921680156200087f575b60208310146200052e5781601f8493116200080d575b50602090601f83116001146200077e5760009262000772575b50508160011b916000199060031b1c1916176003555b8051906001600160401b0382116200054f5760045490600182811c9216801562000767575b60208310146200052e5781601f849311620006f5575b50602090601f831160011462000666576000926200065a575b50508160011b916000199060031b1c1916176004555b600555600655600755600880546001600160a01b03989098166001600160a01b03199889161790558051906001600160401b0382116200054f5760095490600182811c921680156200064f575b60208310146200052e5781601f849311620005eb575b50602090601f8311600114620005715760009262000565575b50508160011b916000199060031b1c1916176009555b600b558051906001600160401b0382116200054f57600a5490600182811c9216801562000544575b60208310146200052e5781601f849311620004ca575b50602090601f8311600114620004505760009262000444575b50508160011b916000199060031b1c191617600a555b8284600c541617600c55600e55600d55608052339060005416176000555161081d908162000bfa82396080518181816090015260f20152f35b015190503880620003f5565b600a6000908152600080516020620014378339815191529350601f198516905b818110620004b1575090846001959493921062000497575b505050811b01600a556200040b565b015160001960f88460031b161c1916905538808062000488565b9293602060018192878601518155019501930162000470565b600a60005290915060008051602062001437833981519152601f840160051c8101916020851062000523575b90601f859493920160051c01905b818110620005135750620003dc565b6000815584935060010162000504565b9091508190620004f6565b634e487b7160e01b600052602260045260246000fd5b91607f1691620003c6565b634e487b7160e01b600052604160045260246000fd5b01519050388062000388565b60096000908152600080516020620014578339815191529350601f198516905b818110620005d25750908460019594939210620005b8575b505050811b016009556200039e565b015160001960f88460031b161c19169055388080620005a9565b9293602060018192878601518155019501930162000591565b600960005290915060008051602062001457833981519152601f840160051c8101916020851062000644575b90601f859493920160051c01905b8181106200063457506200036f565b6000815584935060010162000625565b909150819062000617565b91607f169162000359565b015190503880620002f6565b6004600090815293507f8a35acfbc15ff81a39ae7d344fd709f28e8600b4aa8c65c6b64bfe7fe36bd19b91905b601f1984168510620006d9576001945083601f19811610620006bf575b505050811b016004556200030c565b015160001960f88460031b161c19169055388080620006b0565b8181015183556020948501946001909301929091019062000693565b60046000529091507f8a35acfbc15ff81a39ae7d344fd709f28e8600b4aa8c65c6b64bfe7fe36bd19b601f840160051c8101602085106200075f575b90849392915b601f830160051c820181106200074f575050620002dd565b6000815585945060010162000737565b508062000731565b91607f1691620002c7565b0151905038806200028c565b6003600090815293507fc2575a0e9e593c00f959f8c92f12db2869c3395a3b0502d05e2516446f71f85b91905b601f1984168510620007f1576001945083601f19811610620007d7575b505050811b01600355620002a2565b015160001960f88460031b161c19169055388080620007c8565b81810151835560209485019460019093019290910190620007ab565b60036000529091507fc2575a0e9e593c00f959f8c92f12db2869c3395a3b0502d05e2516446f71f85b601f840160051c81016020851062000877575b90849392915b601f830160051c820181106200086757505062000273565b600081558594506001016200084f565b508062000849565b91607f16916200025d565b01519050388062000222565b6002600090815293506000805160206200141783398151915291905b601f1984168510620008f8576001945083601f19811610620008de575b505050811b0160025562000238565b015160001960f88460031b161c19169055388080620008cf565b81810151835560209485019460019093019290910190620008b2565b600260005290915060008051602062001417833981519152601f840160051c8101602085106200096d575b90849392915b601f830160051c820181106200095d57505062000209565b6000815585945060010162000945565b50806200093f565b91607f1691620001f3565b015190503880620001b8565b60016000908152600080516020620014778339815191529350601f198516905b818110620009ed5750908460019594939210620009d3575b505050811b01600155620001ce565b015160001960f88460031b161c19169055388080620009c4565b92936020600181928786015181550195019301620009ac565b600160005290915060008051602062001477833981519152601f840160051c81016020851062000a5f575b90849392915b601f830160051c8201811062000a4f5750506200019f565b6000815585945060010162000a37565b508062000a31565b91607f169162000189565b8e5162461bcd60e51b815260206004820152601560248201527f696e76616c696420746f6b656e206164647265737300000000000000000000006044820152606490fd5b8e5162461bcd60e51b815260206004820152602160248201527f496e76616c69642068617264636170202620736f66746361702073657474696e6044820152606760f81b6064820152608490fd5b60648f5162461bcd60e51b815260206004820152602060248201527f456e642074696d652073686f756c6420626520696e20746865206675747572656044820152fd5b600080fd5b6040519190601f01601f191682016001600160401b038111838210176200054f57604052565b919080601f8401121562000b475782516001600160401b0381116200054f5760209062000ba8601f8201601f1916830162000b4c565b9281845282828701011162000b475760005b81811062000bd057508260009394955001015290565b858101830151848201840152820162000bba565b51906001600160a01b038216820362000b475756fe608060408181526004918236101561001657600080fd5b600092833560e01c91826302d05d3f1461074b57508163185b6910146103e457816342e94c90146103aa5781636681b9fd1461038b5781636addb663146101a35781638da5cb5b1461017a578163bcba0121146100c3575063fc0c546a1461007d57600080fd5b346100bf57816003193601126100bf57517f00000000000000000000000000000000000000000000000000000000000000006001600160a01b03168152602090f35b5080fd5b9190503461016457826003193601126101645780516370a0823160e01b815230928101929092526020826024817f00000000000000000000000000000000000000000000000000000000000000006001600160a01b03165afa918215610170578392610134575b6020838351908152f35b9091506020813d602011610168575b816101506020938361076f565b81010312610164576020925051903861012a565b8280fd5b3d9150610143565b81513d85823e3d90fd5b5050346100bf57816003193601126100bf5760085490516001600160a01b039091168152602090f35b8383346100bf57816003193601126100bf57805191806009549460019286841c848816978815610381575b602098898310811461036e5791899391899382855290816000146103505750600114610313575b506102029250038661076f565b83519282600a5480831c93838216908115610309575b8a861082146102f657508487529081156102d45750600114610299575b505050936102488261027596038361076f565b600b5460018060a01b03600c541690610282600d5493600e54958751998a9960c08b5260c08b01906107a7565b91898303908a01526107a7565b948601526060850152608084015260a08301520390f35b969250600a87528287205b8288106102c1575050506102488282610275978201019296610235565b80548589018501529683019681016102a4565b60ff1916868a0152505050151560051b82018501905061024882610275610235565b634e487b7160e01b845260229052602483fd5b94607f1694610218565b6009865283862086925087905b82841061033957505050916102029282010188926101f5565b80548b85018701528a945092850192889101610320565b60ff19168486015250899390151560051b83010190506102026101f5565b634e487b7160e01b865260228552602486fd5b90607f16906101ce565b5050346100bf57816003193601126100bf57602090600f549051908152f35b90503461016457602036600319011261016457356001600160a01b0381169081900361016457828291602094526010845220549051908152f35b8383346100bf57816003193601126100bf578051918060019485549182871c90878416938415610741575b602094858410811461072e57838952889291869082156107115750506001146106d4575b61043f9250038661076f565b835192806002549081891c9189811680156106ca575b86841081146106b7578388528792918790821561069a57505060011461065c575b6104829250038561076f565b8451918160035490818a1c918a81168015610652575b878410811461036e57838752869291889082156106355750506001146105f7575b6104c59250038461076f565b8551978282549283831c9383811680156105ed575b88861081146105da57858d529081156105b6575060011461057f575b505050508661050d61053f9861056693038261076f565b610558600554966006549461054b6007549760018060a01b0360085416998451809e819e6101008084528301906107a7565b928184039101526107a7565b918a8303908b01526107a7565b9087820360608901526107a7565b93608086015260a085015260c084015260e08301520390f35b90809450528483205b8284106105a357505050860182018661050d816105666104f6565b8054848b01870152928501928101610588565b60ff1916888d015250505050151560051b8701830190508661050d816105666104f6565b634e487b7160e01b845260228352602484fd5b94607f16946104da565b50506003835283858085208b86915b85831061061c5750506104c593508201016104b9565b80919294505483858a01015201910186908b8793610606565b60ff1916848201526104c594151560051b84010191506104b99050565b92607f1692610498565b50506002825284848084208a85915b8583106106815750506104829350820101610476565b80919294505483858b01015201910185908a889361066b565b60ff19168482015261048294151560051b84010191506104769050565b634e487b7160e01b855260228652602485fd5b92607f1692610455565b505086845285838086208987915b8583106106f857505061043f9350820101610433565b80919294505483858c01015201910184908989936106e2565b60ff19168482015261043f94151560051b84010191506104339050565b634e487b7160e01b875260228552602487fd5b91607f169161040f565b8490346100bf57816003193601126100bf5790546001600160a01b03168152602090f35b90601f8019910116810190811067ffffffffffffffff82111761079157604052565b634e487b7160e01b600052604160045260246000fd5b919082519283825260005b8481106107d3575050826000602080949584010152601f8019910116010190565b6020818301810151848301820152016107b256fea2646970667358221220d1b3ba6802c1fb4f860481af35816e54d9dc8056f2c40daf065211d09465250a64736f6c63430008180033405787fa12a823e0f2b7631cc41b3ba8828b3321ca811111fa75cd3aa3bb5acec65a7bb8d6351c1cf70c95a316cc6a92839c986682d98bc35f958f4883f9d2a86e1540171b6c0c960b71a7020d9f60077f6af931a8bbf590da0223dacf75c7afb10e2d527612073b26eecdfd717e6a320cf44b4afac2b0732d9fcbe2b7fa0cf6a2646970667358221220dba683e16c86c72cac6e9e78bc196d77aec21704b89455c3b1f6b930073126ce64736f6c63430008180033","opcodes":"PUSH1 0xA0 CALLVALUE PUSH2 0xDD JUMPI PUSH1 0x1F PUSH2 0x23E2 CODESIZE DUP2 SWAP1 SUB SWAP2 DUP3 ADD PUSH1 0x1F NOT AND DUP4 ADD SWAP2 PUSH1 0x1 PUSH1 0x1 PUSH1 0x40 SHL SUB DUP4 GT DUP5 DUP5 LT OR PUSH2 0xE2 JUMPI DUP1 DUP5 SWAP3 PUSH1 0x20 SWAP5 PUSH1 0x40 MSTORE DUP4 CODECOPY DUP2 ADD SUB SLT PUSH2 0xDD JUMPI MLOAD PUSH1 0x1 PUSH1 0x1 PUSH1 0xA0 SHL SUB DUP2 AND SWAP1 DUP2 SWAP1 SUB PUSH2 0xDD JUMPI PUSH9 0x56BC75E2D63100000 PUSH1 0x2 SSTORE DUP1 ISZERO PUSH2 0x98 JUMPI PUSH1 0x80 MSTORE PUSH1 0x0 DUP1 SLOAD PUSH1 0x1 PUSH1 0x1 PUSH1 0xA0 SHL SUB NOT AND CALLER OR SWAP1 SSTORE PUSH1 0x40 MLOAD PUSH2 0x22E9 SWAP1 DUP2 PUSH2 0xF9 DUP3 CODECOPY PUSH1 0x80 MLOAD DUP2 DUP2 DUP2 PUSH2 0x8B3 ADD MSTORE PUSH2 0x983 ADD MSTORE RETURN JUMPDEST PUSH1 0x40 MLOAD PUSH3 0x461BCD PUSH1 0xE5 SHL DUP2 MSTORE PUSH1 0x20 PUSH1 0x4 DUP3 ADD MSTORE PUSH1 0x13 PUSH1 0x24 DUP3 ADD MSTORE PUSH32 0x496E76616C696420444149206164647265737300000000000000000000000000 PUSH1 0x44 DUP3 ADD MSTORE PUSH1 0x64 SWAP1 REVERT JUMPDEST PUSH1 0x0 DUP1 REVERT JUMPDEST PUSH4 0x4E487B71 PUSH1 0xE0 SHL PUSH1 0x0 MSTORE PUSH1 0x41 PUSH1 0x4 MSTORE PUSH1 0x24 PUSH1 0x0 REVERT INVALID PUSH1 0x80 PUSH1 0x40 MSTORE PUSH1 0x4 CALLDATASIZE LT ISZERO PUSH3 0x13 JUMPI PUSH1 0x0 DUP1 REVERT JUMPDEST PUSH1 0x0 CALLDATALOAD PUSH1 0xE0 SHR DUP1 PUSH4 0x100A0C75 EQ PUSH3 0xB62 JUMPI DUP1 PUSH4 0x13259756 EQ PUSH3 0x958 JUMPI DUP1 PUSH4 0x2C387275 EQ PUSH3 0x92D JUMPI DUP1 PUSH4 0x69E15404 EQ PUSH3 0x90D JUMPI DUP1 PUSH4 0x8DA5CB5B EQ PUSH3 0x8E2 JUMPI DUP1 PUSH4 0xBE22F546 EQ PUSH3 0x89B JUMPI DUP1 PUSH4 0xF5AEE948 EQ PUSH3 0x303 JUMPI PUSH4 0xFB0F97A8 EQ PUSH3 0x7D JUMPI PUSH1 0x0 DUP1 REVERT JUMPDEST CALLVALUE PUSH3 0x260 JUMPI PUSH1 0x60 CALLDATASIZE PUSH1 0x3 NOT ADD SLT PUSH3 0x260 JUMPI PUSH1 0x1 PUSH1 0x1 PUSH1 0xA0 SHL SUB PUSH1 0x4 CALLDATALOAD DUP2 DUP2 AND SWAP1 DUP2 DUP2 SUB PUSH3 0x260 JUMPI PUSH1 0x24 CALLDATALOAD DUP4 DUP2 AND DUP1 SWAP2 SUB PUSH3 0x260 JUMPI PUSH1 0x40 MLOAD PUSH4 0x8DA5CB5B PUSH1 0xE0 SHL DUP2 MSTORE PUSH1 0x20 SWAP5 PUSH1 0x44 CALLDATALOAD SWAP5 DUP7 SWAP1 DUP4 SWAP1 PUSH1 0x4 SWAP1 DUP3 SWAP1 GAS STATICCALL SWAP2 DUP3 ISZERO PUSH3 0x1E0 JUMPI PUSH1 0x0 SWAP3 PUSH3 0x2C4 JUMPI JUMPDEST POP CALLER SWAP2 AND SUB PUSH3 0x26D JUMPI PUSH1 0x40 MLOAD PUSH4 0x70A08231 PUSH1 0xE0 SHL DUP2 MSTORE CALLER PUSH1 0x4 DUP3 ADD MSTORE DUP5 DUP2 PUSH1 0x24 DUP2 DUP6 GAS STATICCALL DUP1 ISZERO PUSH3 0x1E0 JUMPI DUP5 SWAP2 PUSH1 0x0 SWAP2 PUSH3 0x231 JUMPI JUMPDEST POP GT ISZERO PUSH3 0x1EC JUMPI PUSH1 0x40 MLOAD PUSH4 0x95EA7B3 PUSH1 0xE0 SHL DUP2 MSTORE ADDRESS PUSH1 0x4 DUP3 ADD MSTORE PUSH1 0x24 DUP2 ADD DUP5 SWAP1 MSTORE DUP5 DUP2 PUSH1 0x44 DUP2 PUSH1 0x0 DUP7 GAS CALL SWAP1 DUP2 ISZERO PUSH3 0x1E0 JUMPI PUSH1 0x0 SWAP2 PUSH3 0x1AC JUMPI JUMPDEST POP ISZERO PUSH3 0x170 JUMPI PUSH3 0x16E SWAP4 POP CALLER SWAP1 PUSH3 0xCC2 JUMP JUMPDEST STOP JUMPDEST PUSH1 0x40 MLOAD PUSH3 0x461BCD PUSH1 0xE5 SHL DUP2 MSTORE PUSH1 0x4 DUP2 ADD DUP6 SWAP1 MSTORE PUSH1 0x14 PUSH1 0x24 DUP3 ADD MSTORE PUSH20 0x2A37B5B2B71030B8383937BB32903330B4B63217 PUSH1 0x61 SHL PUSH1 0x44 DUP3 ADD MSTORE PUSH1 0x64 SWAP1 REVERT JUMPDEST PUSH3 0x1D1 SWAP2 POP DUP6 RETURNDATASIZE DUP8 GT PUSH3 0x1D8 JUMPI JUMPDEST PUSH3 0x1C8 DUP2 DUP4 PUSH3 0xBDB JUMP JUMPDEST DUP2 ADD SWAP1 PUSH3 0xC66 JUMP JUMPDEST CODESIZE PUSH3 0x159 JUMP JUMPDEST POP RETURNDATASIZE PUSH3 0x1BC JUMP JUMPDEST PUSH1 0x40 MLOAD RETURNDATASIZE PUSH1 0x0 DUP3 RETURNDATACOPY RETURNDATASIZE SWAP1 REVERT JUMPDEST PUSH1 0x40 MLOAD PUSH3 0x461BCD PUSH1 0xE5 SHL DUP2 MSTORE PUSH1 0x4 DUP2 ADD DUP6 SWAP1 MSTORE PUSH1 0x1B PUSH1 0x24 DUP3 ADD MSTORE PUSH32 0x496E73756666696369656E7420746F6B656E2062616C616E63652E0000000000 PUSH1 0x44 DUP3 ADD MSTORE PUSH1 0x64 SWAP1 REVERT JUMPDEST DUP1 SWAP3 POP DUP7 DUP1 SWAP3 POP RETURNDATASIZE DUP4 GT PUSH3 0x265 JUMPI JUMPDEST PUSH3 0x24D DUP2 DUP4 PUSH3 0xBDB JUMP JUMPDEST DUP2 ADD SUB SLT PUSH3 0x260 JUMPI DUP4 SWAP1 MLOAD CODESIZE PUSH3 0x11C JUMP JUMPDEST PUSH1 0x0 DUP1 REVERT JUMPDEST POP RETURNDATASIZE PUSH3 0x241 JUMP JUMPDEST PUSH1 0x40 MLOAD PUSH3 0x461BCD PUSH1 0xE5 SHL DUP2 MSTORE PUSH1 0x4 DUP2 ADD DUP6 SWAP1 MSTORE PUSH1 0x29 PUSH1 0x24 DUP3 ADD MSTORE PUSH32 0x596F7520617265206E6F7420746865206F776E6572206F662056756C63616E20 PUSH1 0x44 DUP3 ADD MSTORE PUSH9 0x31B7B73A3930B1BA17 PUSH1 0xB9 SHL PUSH1 0x64 DUP3 ADD MSTORE PUSH1 0x84 SWAP1 REVERT JUMPDEST SWAP1 SWAP2 POP DUP6 DUP2 DUP2 RETURNDATASIZE DUP4 GT PUSH3 0x2FB JUMPI JUMPDEST PUSH3 0x2DF DUP2 DUP4 PUSH3 0xBDB JUMP JUMPDEST DUP2 ADD SUB SLT PUSH3 0x260 JUMPI MLOAD DUP2 DUP2 AND DUP2 SUB PUSH3 0x260 JUMPI SWAP1 CODESIZE PUSH3 0xE5 JUMP JUMPDEST POP RETURNDATASIZE PUSH3 0x2D3 JUMP JUMPDEST CALLVALUE PUSH3 0x260 JUMPI PUSH2 0x1A0 CALLDATASIZE PUSH1 0x3 NOT ADD SLT PUSH3 0x260 JUMPI PUSH1 0x4 CALLDATALOAD PUSH1 0x1 PUSH1 0x1 PUSH1 0x40 SHL SUB DUP2 GT PUSH3 0x260 JUMPI PUSH3 0x339 SWAP1 CALLDATASIZE SWAP1 PUSH1 0x4 ADD PUSH3 0xC19 JUMP JUMPDEST PUSH1 0x24 CALLDATALOAD PUSH1 0x1 PUSH1 0x1 PUSH1 0x40 SHL SUB DUP2 GT PUSH3 0x260 JUMPI PUSH3 0x35B SWAP1 CALLDATASIZE SWAP1 PUSH1 0x4 ADD PUSH3 0xC19 JUMP JUMPDEST PUSH1 0x44 CALLDATALOAD PUSH1 0x1 PUSH1 0x1 PUSH1 0x40 SHL SUB DUP2 GT PUSH3 0x260 JUMPI PUSH3 0x37D SWAP1 CALLDATASIZE SWAP1 PUSH1 0x4 ADD PUSH3 0xC19 JUMP JUMPDEST SWAP1 PUSH1 0x64 CALLDATALOAD PUSH1 0x1 PUSH1 0x1 PUSH1 0x40 SHL SUB DUP2 GT PUSH3 0x260 JUMPI PUSH3 0x3A0 SWAP1 CALLDATASIZE SWAP1 PUSH1 0x4 ADD PUSH3 0xC19 JUMP JUMPDEST SWAP2 PUSH1 0xE4 CALLDATALOAD PUSH1 0x1 PUSH1 0x1 PUSH1 0x40 SHL SUB DUP2 GT PUSH3 0x260 JUMPI PUSH3 0x3C3 SWAP1 CALLDATASIZE SWAP1 PUSH1 0x4 ADD PUSH3 0xC19 JUMP JUMPDEST SWAP1 PUSH1 0x1 PUSH1 0x1 PUSH1 0x40 SHL SUB PUSH2 0x104 CALLDATALOAD GT PUSH3 0x260 JUMPI PUSH3 0x3E8 CALLDATASIZE PUSH2 0x104 CALLDATALOAD PUSH1 0x4 ADD PUSH3 0xC19 JUMP JUMPDEST SWAP2 PUSH2 0x184 CALLDATALOAD PUSH1 0x1 PUSH1 0x1 PUSH1 0xA0 SHL SUB DUP2 AND SWAP1 SUB PUSH3 0x260 JUMPI CALLER PUSH1 0x0 MSTORE PUSH1 0x3 PUSH1 0x20 MSTORE PUSH1 0x40 PUSH1 0x0 KECCAK256 SLOAD PUSH1 0x2 SLOAD GT PUSH3 0x85B JUMPI PUSH2 0x184 CALLDATALOAD PUSH1 0x1 PUSH1 0x1 PUSH1 0xA0 SHL SUB AND ISZERO PUSH3 0x81E JUMPI PUSH1 0xC4 CALLDATALOAD TIMESTAMP LT ISZERO PUSH3 0x7DA JUMPI PUSH1 0x84 CALLDATALOAD ISZERO PUSH3 0x795 JUMPI PUSH1 0xA4 CALLDATALOAD ISZERO PUSH3 0x750 JUMPI PUSH1 0x84 CALLDATALOAD PUSH1 0xA4 CALLDATALOAD GT ISZERO PUSH3 0x70B JUMPI PUSH2 0x144 CALLDATALOAD ISZERO PUSH3 0x6BC JUMPI PUSH2 0x124 CALLDATALOAD ISZERO PUSH3 0x677 JUMPI PUSH2 0x164 CALLDATALOAD ISZERO PUSH3 0x624 JUMPI PUSH1 0x40 MLOAD SWAP6 DUP7 PUSH2 0x1497 DUP2 ADD LT PUSH1 0x1 PUSH1 0x1 PUSH1 0x40 SHL SUB PUSH2 0x1497 DUP10 ADD GT OR PUSH3 0x60E JUMPI DUP7 SWAP6 PUSH3 0x4F8 PUSH3 0x53F SWAP5 PUSH3 0x4E1 PUSH3 0x557 SWAP9 PUSH3 0x4CA PUSH3 0x50F SWAP7 PUSH2 0x1497 DUP14 PUSH3 0xE1D SWAP1 CODECOPY PUSH2 0x1C0 PUSH2 0x1497 DUP15 ADD DUP2 DUP2 MSTORE ADD SWAP1 PUSH3 0xC80 JUMP JUMPDEST SWAP1 PUSH2 0x1497 DUP13 ADD DUP3 SUB PUSH1 0x20 DUP14 PUSH2 0x1497 ADD ADD MSTORE PUSH3 0xC80 JUMP JUMPDEST SWAP1 PUSH2 0x1497 DUP11 ADD DUP3 SUB PUSH1 0x40 PUSH2 0x1497 DUP13 ADD ADD MSTORE PUSH3 0xC80 JUMP JUMPDEST SWAP1 PUSH2 0x1497 DUP9 ADD DUP3 SUB PUSH1 0x60 PUSH2 0x1497 DUP11 ADD ADD MSTORE PUSH3 0xC80 JUMP JUMPDEST PUSH1 0x84 CALLDATALOAD PUSH2 0x1497 DUP8 ADD PUSH1 0x80 DUP2 ADD SWAP2 SWAP1 SWAP2 MSTORE PUSH1 0xA4 CALLDATALOAD PUSH1 0xA0 DUP3 ADD MSTORE PUSH1 0xC4 CALLDATALOAD PUSH1 0xC0 DUP3 ADD MSTORE DUP1 DUP3 SUB PUSH1 0xE0 SWAP1 SWAP2 ADD MSTORE SWAP1 PUSH3 0xC80 JUMP JUMPDEST SWAP1 PUSH2 0x1497 DUP5 ADD DUP3 SUB PUSH2 0x100 PUSH2 0x1497 DUP7 ADD ADD MSTORE PUSH3 0xC80 JUMP JUMPDEST CALLER PUSH2 0x1497 DUP4 ADD PUSH2 0x120 DUP2 ADD SWAP2 SWAP1 SWAP2 MSTORE PUSH2 0x124 CALLDATALOAD PUSH2 0x140 DUP3 ADD MSTORE PUSH2 0x144 CALLDATALOAD PUSH2 0x160 DUP3 ADD MSTORE PUSH2 0x164 CALLDATALOAD PUSH2 0x180 DUP3 ADD MSTORE PUSH2 0x184 CALLDATALOAD PUSH1 0x1 PUSH1 0x1 PUSH1 0xA0 SHL SUB AND PUSH2 0x1A0 SWAP1 SWAP2 ADD MSTORE SUB SWAP1 PUSH1 0x0 CREATE DUP1 ISZERO PUSH3 0x1E0 JUMPI PUSH1 0x4 SLOAD SWAP1 PUSH1 0x1 PUSH1 0x1 PUSH1 0xA0 SHL SUB AND PUSH1 0x1 PUSH1 0x40 SHL DUP3 LT ISZERO PUSH3 0x60E JUMPI PUSH3 0x5D2 DUP3 PUSH1 0x1 PUSH1 0x20 SWAP5 ADD PUSH1 0x4 SSTORE PUSH3 0xBA9 JUMP JUMPDEST DUP2 SLOAD PUSH1 0x1 PUSH1 0x1 PUSH1 0xA0 SHL SUB PUSH1 0x3 SWAP3 SWAP1 SWAP3 SHL SWAP2 DUP3 SHL NOT AND SWAP1 DUP4 SWAP1 SHL OR SWAP1 SSTORE PUSH1 0x0 DUP2 DUP2 MSTORE PUSH1 0x5 DUP4 MSTORE PUSH1 0x40 SWAP1 DUP2 SWAP1 KECCAK256 DUP1 SLOAD PUSH1 0xFF NOT AND PUSH1 0x1 OR SWAP1 SSTORE MLOAD SWAP1 DUP2 MSTORE RETURN JUMPDEST PUSH4 0x4E487B71 PUSH1 0xE0 SHL PUSH1 0x0 MSTORE PUSH1 0x41 PUSH1 0x4 MSTORE PUSH1 0x24 PUSH1 0x0 REVERT JUMPDEST PUSH1 0x40 MLOAD PUSH3 0x461BCD PUSH1 0xE5 SHL DUP2 MSTORE PUSH1 0x20 PUSH1 0x4 DUP3 ADD MSTORE PUSH1 0x25 PUSH1 0x24 DUP3 ADD MSTORE PUSH32 0x546F6B656E20746F74616C537570706C79206D75737420677265617465722074 PUSH1 0x44 DUP3 ADD MSTORE PUSH5 0x68616E203 PUSH1 0xDC SHL PUSH1 0x64 DUP3 ADD MSTORE PUSH1 0x84 SWAP1 REVERT JUMPDEST PUSH1 0x40 MLOAD PUSH3 0x461BCD PUSH1 0xE5 SHL DUP2 MSTORE PUSH1 0x20 PUSH1 0x4 DUP3 ADD MSTORE PUSH1 0x1F PUSH1 0x24 DUP3 ADD MSTORE PUSH32 0x546F6B656E207072696365206D7573742067726561746572207468616E203000 PUSH1 0x44 DUP3 ADD MSTORE PUSH1 0x64 SWAP1 REVERT JUMPDEST PUSH1 0x40 MLOAD PUSH3 0x461BCD PUSH1 0xE5 SHL DUP2 MSTORE PUSH1 0x20 PUSH1 0x4 DUP3 ADD MSTORE PUSH1 0x21 PUSH1 0x24 DUP3 ADD MSTORE PUSH32 0x546F6B656E20646563696D616C206D7573742067726561746572207468616E20 PUSH1 0x44 DUP3 ADD MSTORE PUSH1 0x3 PUSH1 0xFC SHL PUSH1 0x64 DUP3 ADD MSTORE PUSH1 0x84 SWAP1 REVERT JUMPDEST PUSH1 0x40 MLOAD PUSH3 0x461BCD PUSH1 0xE5 SHL DUP2 MSTORE PUSH1 0x20 PUSH1 0x4 DUP3 ADD MSTORE PUSH1 0x1E PUSH1 0x24 DUP3 ADD MSTORE PUSH32 0x536F6674636170206D757374206C657373207468616E20686172646361700000 PUSH1 0x44 DUP3 ADD MSTORE PUSH1 0x64 SWAP1 REVERT JUMPDEST PUSH1 0x40 MLOAD PUSH3 0x461BCD PUSH1 0xE5 SHL DUP2 MSTORE PUSH1 0x20 PUSH1 0x4 DUP3 ADD MSTORE PUSH1 0x1E PUSH1 0x24 DUP3 ADD MSTORE PUSH32 0x48617264636170206D7573742062652067726561746572207468616E20300000 PUSH1 0x44 DUP3 ADD MSTORE PUSH1 0x64 SWAP1 REVERT JUMPDEST PUSH1 0x40 MLOAD PUSH3 0x461BCD PUSH1 0xE5 SHL DUP2 MSTORE PUSH1 0x20 PUSH1 0x4 DUP3 ADD MSTORE PUSH1 0x1E PUSH1 0x24 DUP3 ADD MSTORE PUSH32 0x536F6674636170206D7573742062652067726561746572207468616E20300000 PUSH1 0x44 DUP3 ADD MSTORE PUSH1 0x64 SWAP1 REVERT JUMPDEST PUSH1 0x64 PUSH1 0x40 MLOAD PUSH3 0x461BCD PUSH1 0xE5 SHL DUP2 MSTORE PUSH1 0x20 PUSH1 0x4 DUP3 ADD MSTORE PUSH1 0x20 PUSH1 0x24 DUP3 ADD MSTORE PUSH32 0x456E642074696D652073686F756C6420626520696E2074686520667574757265 PUSH1 0x44 DUP3 ADD MSTORE REVERT JUMPDEST PUSH1 0x40 MLOAD PUSH3 0x461BCD PUSH1 0xE5 SHL DUP2 MSTORE PUSH1 0x20 PUSH1 0x4 DUP3 ADD MSTORE PUSH1 0x15 PUSH1 0x24 DUP3 ADD MSTORE PUSH21 0x496E76616C696420544F4B454E2061646472657373 PUSH1 0x58 SHL PUSH1 0x44 DUP3 ADD MSTORE PUSH1 0x64 SWAP1 REVERT JUMPDEST PUSH1 0x40 MLOAD PUSH3 0x461BCD PUSH1 0xE5 SHL DUP2 MSTORE PUSH1 0x20 PUSH1 0x4 DUP3 ADD MSTORE PUSH1 0x18 PUSH1 0x24 DUP3 ADD MSTORE PUSH24 0x4E6F742070616964207370616D2066696C74657220666565 PUSH1 0x40 SHL PUSH1 0x44 DUP3 ADD MSTORE PUSH1 0x64 SWAP1 REVERT JUMPDEST CALLVALUE PUSH3 0x260 JUMPI PUSH1 0x0 CALLDATASIZE PUSH1 0x3 NOT ADD SLT PUSH3 0x260 JUMPI PUSH1 0x40 MLOAD PUSH32 0x0 PUSH1 0x1 PUSH1 0x1 PUSH1 0xA0 SHL SUB AND DUP2 MSTORE PUSH1 0x20 SWAP1 RETURN JUMPDEST CALLVALUE PUSH3 0x260 JUMPI PUSH1 0x0 CALLDATASIZE PUSH1 0x3 NOT ADD SLT PUSH3 0x260 JUMPI PUSH1 0x0 SLOAD PUSH1 0x40 MLOAD PUSH1 0x1 PUSH1 0x1 PUSH1 0xA0 SHL SUB SWAP1 SWAP2 AND DUP2 MSTORE PUSH1 0x20 SWAP1 RETURN JUMPDEST CALLVALUE PUSH3 0x260 JUMPI PUSH1 0x0 CALLDATASIZE PUSH1 0x3 NOT ADD SLT PUSH3 0x260 JUMPI PUSH1 0x20 PUSH1 0x2 SLOAD PUSH1 0x40 MLOAD SWAP1 DUP2 MSTORE RETURN JUMPDEST CALLVALUE PUSH3 0x260 JUMPI PUSH1 0x0 CALLDATASIZE PUSH1 0x3 NOT ADD SLT PUSH3 0x260 JUMPI PUSH1 0x1 SLOAD PUSH1 0x40 MLOAD PUSH1 0x1 PUSH1 0x1 PUSH1 0xA0 SHL SUB SWAP1 SWAP2 AND DUP2 MSTORE PUSH1 0x20 SWAP1 RETURN JUMPDEST CALLVALUE PUSH3 0x260 JUMPI PUSH1 0x0 CALLDATASIZE PUSH1 0x3 NOT ADD SLT PUSH3 0x260 JUMPI PUSH1 0x40 MLOAD PUSH4 0x70A08231 PUSH1 0xE0 SHL DUP2 MSTORE CALLER PUSH1 0x4 DUP3 ADD MSTORE PUSH1 0x20 SWAP1 PUSH32 0x0 SWAP1 PUSH1 0x1 PUSH1 0x1 PUSH1 0xA0 SHL SUB DUP3 AND SWAP1 DUP4 DUP2 PUSH1 0x24 DUP2 DUP6 GAS STATICCALL SWAP1 DUP2 ISZERO PUSH3 0x1E0 JUMPI PUSH1 0x0 SWAP2 PUSH3 0xB2F JUMPI JUMPDEST POP PUSH1 0x2 SLOAD DUP1 SWAP2 GT ISZERO PUSH3 0xAEF JUMPI PUSH1 0x40 MLOAD PUSH4 0x95EA7B3 PUSH1 0xE0 SHL DUP2 MSTORE ADDRESS PUSH1 0x4 DUP3 ADD MSTORE PUSH1 0x24 DUP2 ADD SWAP2 SWAP1 SWAP2 MSTORE SWAP1 DUP4 SWAP1 DUP3 SWAP1 PUSH1 0x44 SWAP1 DUP3 SWAP1 PUSH1 0x0 SWAP1 GAS CALL SWAP1 DUP2 ISZERO PUSH3 0x1E0 JUMPI PUSH1 0x0 SWAP2 PUSH3 0xACD JUMPI JUMPDEST POP ISZERO PUSH3 0xA93 JUMPI PUSH1 0x2 SLOAD PUSH3 0xA28 SWAP2 ADDRESS SWAP1 CALLER SWAP1 PUSH3 0xCC2 JUMP JUMPDEST PUSH1 0x3 PUSH1 0x2 SLOAD SWAP2 CALLER PUSH1 0x0 MSTORE MSTORE PUSH1 0x40 PUSH1 0x0 KECCAK256 DUP1 SLOAD SWAP2 DUP3 ADD DUP1 SWAP3 GT PUSH3 0xA7D JUMPI SSTORE PUSH1 0x2 SLOAD PUSH1 0x40 DUP1 MLOAD CALLER DUP2 MSTORE PUSH1 0x20 DUP2 ADD SWAP3 SWAP1 SWAP3 MSTORE PUSH32 0x5780754012857253291F05D2A4640A02412E6A2D96645B743DD54B2C5E09E202 SWAP2 LOG1 STOP JUMPDEST PUSH4 0x4E487B71 PUSH1 0xE0 SHL PUSH1 0x0 MSTORE PUSH1 0x11 PUSH1 0x4 MSTORE PUSH1 0x24 PUSH1 0x0 REVERT JUMPDEST PUSH1 0x40 MLOAD PUSH3 0x461BCD PUSH1 0xE5 SHL DUP2 MSTORE PUSH1 0x4 DUP2 ADD DUP4 SWAP1 MSTORE PUSH1 0x12 PUSH1 0x24 DUP3 ADD MSTORE PUSH18 0x11105248185C1C1C9BDD994819985A5B1959 PUSH1 0x72 SHL PUSH1 0x44 DUP3 ADD MSTORE PUSH1 0x64 SWAP1 REVERT JUMPDEST PUSH3 0xAE8 SWAP2 POP DUP4 RETURNDATASIZE DUP6 GT PUSH3 0x1D8 JUMPI PUSH3 0x1C8 DUP2 DUP4 PUSH3 0xBDB JUMP JUMPDEST DUP4 PUSH3 0xA0F JUMP JUMPDEST PUSH1 0x40 MLOAD PUSH3 0x461BCD PUSH1 0xE5 SHL DUP2 MSTORE PUSH1 0x4 DUP2 ADD DUP6 SWAP1 MSTORE PUSH1 0x18 PUSH1 0x24 DUP3 ADD MSTORE PUSH24 0x496E73756666696369656E74204461692062616C616E6365 PUSH1 0x40 SHL PUSH1 0x44 DUP3 ADD MSTORE PUSH1 0x64 SWAP1 REVERT JUMPDEST SWAP1 POP DUP4 DUP2 DUP2 RETURNDATASIZE DUP4 GT PUSH3 0xB5A JUMPI JUMPDEST PUSH3 0xB49 DUP2 DUP4 PUSH3 0xBDB JUMP JUMPDEST DUP2 ADD SUB SLT PUSH3 0x260 JUMPI MLOAD DUP5 PUSH3 0x9C7 JUMP JUMPDEST POP RETURNDATASIZE PUSH3 0xB3D JUMP JUMPDEST CALLVALUE PUSH3 0x260 JUMPI PUSH1 0x20 CALLDATASIZE PUSH1 0x3 NOT ADD SLT PUSH3 0x260 JUMPI PUSH1 0x4 CALLDATALOAD PUSH1 0x4 SLOAD DUP2 LT ISZERO PUSH3 0x260 JUMPI PUSH3 0xB90 PUSH1 0x20 SWAP2 PUSH3 0xBA9 JUMP JUMPDEST SWAP1 SLOAD PUSH1 0x40 MLOAD PUSH1 0x3 SWAP3 SWAP1 SWAP3 SHL SHR PUSH1 0x1 PUSH1 0x1 PUSH1 0xA0 SHL SUB AND DUP2 MSTORE RETURN JUMPDEST PUSH1 0x4 SLOAD DUP2 LT ISZERO PUSH3 0xBC5 JUMPI PUSH1 0x4 PUSH1 0x0 MSTORE PUSH1 0x20 PUSH1 0x0 KECCAK256 ADD SWAP1 PUSH1 0x0 SWAP1 JUMP JUMPDEST PUSH4 0x4E487B71 PUSH1 0xE0 SHL PUSH1 0x0 MSTORE PUSH1 0x32 PUSH1 0x4 MSTORE PUSH1 0x24 PUSH1 0x0 REVERT JUMPDEST SWAP1 PUSH1 0x1F DUP1 NOT SWAP2 ADD AND DUP2 ADD SWAP1 DUP2 LT PUSH1 0x1 PUSH1 0x1 PUSH1 0x40 SHL SUB DUP3 GT OR PUSH3 0x60E JUMPI PUSH1 0x40 MSTORE JUMP JUMPDEST PUSH1 0x1 PUSH1 0x1 PUSH1 0x40 SHL SUB DUP2 GT PUSH3 0x60E JUMPI PUSH1 0x1F ADD PUSH1 0x1F NOT AND PUSH1 0x20 ADD SWAP1 JUMP JUMPDEST DUP2 PUSH1 0x1F DUP3 ADD SLT ISZERO PUSH3 0x260 JUMPI DUP1 CALLDATALOAD SWAP1 PUSH3 0xC33 DUP3 PUSH3 0xBFD JUMP JUMPDEST SWAP3 PUSH3 0xC43 PUSH1 0x40 MLOAD SWAP5 DUP6 PUSH3 0xBDB JUMP JUMPDEST DUP3 DUP5 MSTORE PUSH1 0x20 DUP4 DUP4 ADD ADD GT PUSH3 0x260 JUMPI DUP2 PUSH1 0x0 SWAP3 PUSH1 0x20 DUP1 SWAP4 ADD DUP4 DUP7 ADD CALLDATACOPY DUP4 ADD ADD MSTORE SWAP1 JUMP JUMPDEST SWAP1 DUP2 PUSH1 0x20 SWAP2 SUB SLT PUSH3 0x260 JUMPI MLOAD DUP1 ISZERO ISZERO DUP2 SUB PUSH3 0x260 JUMPI SWAP1 JUMP JUMPDEST SWAP2 SWAP1 DUP3 MLOAD SWAP3 DUP4 DUP3 MSTORE PUSH1 0x0 JUMPDEST DUP5 DUP2 LT PUSH3 0xCAD JUMPI POP POP DUP3 PUSH1 0x0 PUSH1 0x20 DUP1 SWAP5 SWAP6 DUP5 ADD ADD MSTORE PUSH1 0x1F DUP1 NOT SWAP2 ADD AND ADD ADD SWAP1 JUMP JUMPDEST PUSH1 0x20 DUP2 DUP4 ADD DUP2 ADD MLOAD DUP5 DUP4 ADD DUP3 ADD MSTORE ADD PUSH3 0xC8B JUMP JUMPDEST PUSH1 0x40 MLOAD PUSH4 0x23B872DD PUSH1 0xE0 SHL PUSH1 0x20 DUP3 ADD SWAP1 DUP2 MSTORE PUSH1 0x1 PUSH1 0x1 PUSH1 0xA0 SHL SUB SWAP4 DUP5 AND PUSH1 0x24 DUP4 ADD MSTORE SWAP4 DUP4 AND PUSH1 0x44 DUP3 ADD MSTORE PUSH1 0x64 DUP1 DUP3 ADD SWAP6 SWAP1 SWAP6 MSTORE SWAP4 DUP5 MSTORE SWAP1 SWAP2 PUSH1 0xA0 DUP5 ADD SWAP1 PUSH1 0x1 PUSH1 0x1 PUSH1 0x40 SHL SUB DUP3 GT DUP6 DUP4 LT OR PUSH3 0x60E JUMPI PUSH3 0xD5D SWAP4 PUSH1 0x0 SWAP4 DUP5 SWAP4 PUSH1 0x40 MSTORE AND SWAP5 MLOAD SWAP1 DUP3 DUP7 GAS CALL RETURNDATASIZE ISZERO PUSH3 0xDAB JUMPI RETURNDATASIZE SWAP1 PUSH3 0xD3B DUP3 PUSH3 0xBFD JUMP JUMPDEST SWAP2 PUSH3 0xD4B PUSH1 0x40 MLOAD SWAP4 DUP5 PUSH3 0xBDB JUMP JUMPDEST DUP3 MSTORE RETURNDATASIZE PUSH1 0x0 PUSH1 0x20 DUP5 ADD RETURNDATACOPY JUMPDEST DUP4 PUSH3 0xDB4 JUMP JUMPDEST DUP1 MLOAD SWAP1 DUP2 ISZERO ISZERO SWAP2 DUP3 PUSH3 0xD8D JUMPI JUMPDEST POP POP PUSH3 0xD75 JUMPI POP JUMP JUMPDEST PUSH1 0x24 SWAP1 PUSH1 0x40 MLOAD SWAP1 PUSH4 0x5274AFE7 PUSH1 0xE0 SHL DUP3 MSTORE PUSH1 0x4 DUP3 ADD MSTORE REVERT JUMPDEST PUSH3 0xDA2 SWAP3 POP PUSH1 0x20 DUP1 SWAP2 DUP4 ADD ADD SWAP2 ADD PUSH3 0xC66 JUMP JUMPDEST ISZERO CODESIZE DUP1 PUSH3 0xD6B JUMP JUMPDEST PUSH1 0x60 SWAP1 PUSH3 0xD56 JUMP JUMPDEST SWAP1 PUSH3 0xDDD JUMPI POP DUP1 MLOAD ISZERO PUSH3 0xDCB JUMPI DUP1 MLOAD SWAP1 PUSH1 0x20 ADD REVERT JUMPDEST PUSH1 0x40 MLOAD PUSH4 0xA12F521 PUSH1 0xE1 SHL DUP2 MSTORE PUSH1 0x4 SWAP1 REVERT JUMPDEST DUP2 MLOAD ISZERO DUP1 PUSH3 0xE12 JUMPI JUMPDEST PUSH3 0xDF0 JUMPI POP SWAP1 JUMP JUMPDEST PUSH1 0x40 MLOAD PUSH4 0x9996B315 PUSH1 0xE0 SHL DUP2 MSTORE PUSH1 0x1 PUSH1 0x1 PUSH1 0xA0 SHL SUB SWAP1 SWAP2 AND PUSH1 0x4 DUP3 ADD MSTORE PUSH1 0x24 SWAP1 REVERT JUMPDEST POP DUP1 EXTCODESIZE ISZERO PUSH3 0xDE7 JUMP INVALID PUSH1 0x40 PUSH1 0xA0 DUP2 MSTORE PUSH3 0x1497 DUP1 CODESIZE SUB DUP1 PUSH3 0x18 DUP2 PUSH3 0xB4C JUMP JUMPDEST SWAP3 DUP4 CODECOPY DUP2 ADD PUSH2 0x1C0 DUP3 DUP3 SUB SLT PUSH3 0xB47 JUMPI DUP2 MLOAD PUSH1 0x1 PUSH1 0x1 PUSH1 0x40 SHL SUB DUP2 GT PUSH3 0xB47 JUMPI DUP2 PUSH3 0x48 SWAP2 DUP5 ADD PUSH3 0xB72 JUMP JUMPDEST PUSH1 0x20 DUP4 ADD MLOAD SWAP1 SWAP2 SWAP1 PUSH1 0x1 PUSH1 0x1 PUSH1 0x40 SHL SUB DUP2 GT PUSH3 0xB47 JUMPI DUP2 PUSH3 0x6D SWAP2 DUP6 ADD PUSH3 0xB72 JUMP JUMPDEST DUP4 DUP6 ADD MLOAD SWAP1 SWAP2 SWAP1 PUSH1 0x1 PUSH1 0x1 PUSH1 0x40 SHL SUB DUP2 GT PUSH3 0xB47 JUMPI DUP2 PUSH3 0x91 SWAP2 DUP7 ADD PUSH3 0xB72 JUMP JUMPDEST PUSH1 0x60 DUP6 ADD MLOAD SWAP1 SWAP2 SWAP1 PUSH1 0x1 PUSH1 0x1 PUSH1 0x40 SHL SUB DUP2 GT PUSH3 0xB47 JUMPI DUP2 PUSH3 0xB6 SWAP2 DUP8 ADD PUSH3 0xB72 JUMP JUMPDEST SWAP5 PUSH1 0x80 DUP2 ADD MLOAD SWAP2 PUSH1 0xA0 DUP3 ADD MLOAD PUSH1 0xC0 DUP4 ADD MLOAD SWAP1 PUSH1 0xE0 DUP5 ADD MLOAD PUSH1 0x1 DUP1 PUSH1 0x40 SHL SUB DUP2 GT PUSH3 0xB47 JUMPI DUP4 PUSH3 0xE9 SWAP2 DUP7 ADD PUSH3 0xB72 JUMP JUMPDEST PUSH2 0x100 DUP6 ADD MLOAD SWAP1 SWAP4 PUSH1 0x1 PUSH1 0x1 PUSH1 0x40 SHL SUB DUP3 GT PUSH3 0xB47 JUMPI PUSH3 0x10D SWAP2 DUP7 ADD PUSH3 0xB72 JUMP JUMPDEST SWAP5 PUSH3 0x11D PUSH2 0x120 DUP7 ADD PUSH3 0xBE4 JUMP JUMPDEST SWAP10 PUSH2 0x140 DUP7 ADD MLOAD SWAP8 PUSH2 0x160 DUP8 ADD MLOAD SWAP10 PUSH3 0x141 PUSH2 0x1A0 PUSH2 0x180 DUP11 ADD MLOAD SWAP10 ADD PUSH3 0xBE4 JUMP JUMPDEST DUP7 TIMESTAMP LT ISZERO PUSH3 0xB04 JUMPI DUP5 DUP7 GT ISZERO PUSH3 0xAB6 JUMPI PUSH1 0x1 PUSH1 0x1 PUSH1 0xA0 SHL SUB AND SWAP12 DUP13 ISZERO PUSH3 0xA72 JUMPI DUP1 MLOAD SWAP1 PUSH1 0x1 PUSH1 0x1 PUSH1 0x40 SHL SUB DUP3 GT PUSH3 0x54F JUMPI PUSH1 0x1 SLOAD SWAP1 PUSH1 0x1 DUP3 DUP2 SHR SWAP3 AND DUP1 ISZERO PUSH3 0xA67 JUMPI JUMPDEST PUSH1 0x20 DUP4 LT EQ PUSH3 0x52E JUMPI DUP2 PUSH1 0x1F DUP5 SWAP4 GT PUSH3 0xA06 JUMPI JUMPDEST POP PUSH1 0x20 SWAP1 PUSH1 0x1F DUP4 GT PUSH1 0x1 EQ PUSH3 0x98C JUMPI PUSH1 0x0 SWAP3 PUSH3 0x980 JUMPI JUMPDEST POP POP DUP2 PUSH1 0x1 SHL SWAP2 PUSH1 0x0 NOT SWAP1 PUSH1 0x3 SHL SHR NOT AND OR PUSH1 0x1 SSTORE JUMPDEST DUP1 MLOAD SWAP1 PUSH1 0x1 PUSH1 0x1 PUSH1 0x40 SHL SUB DUP3 GT PUSH3 0x54F JUMPI PUSH1 0x2 SLOAD SWAP1 PUSH1 0x1 DUP3 DUP2 SHR SWAP3 AND DUP1 ISZERO PUSH3 0x975 JUMPI JUMPDEST PUSH1 0x20 DUP4 LT EQ PUSH3 0x52E JUMPI DUP2 PUSH1 0x1F DUP5 SWAP4 GT PUSH3 0x914 JUMPI JUMPDEST POP PUSH1 0x20 SWAP1 PUSH1 0x1F DUP4 GT PUSH1 0x1 EQ PUSH3 0x896 JUMPI PUSH1 0x0 SWAP3 PUSH3 0x88A JUMPI JUMPDEST POP POP DUP2 PUSH1 0x1 SHL SWAP2 PUSH1 0x0 NOT SWAP1 PUSH1 0x3 SHL SHR NOT AND OR PUSH1 0x2 SSTORE JUMPDEST DUP1 MLOAD SWAP1 PUSH1 0x1 PUSH1 0x1 PUSH1 0x40 SHL SUB DUP3 GT PUSH3 0x54F JUMPI PUSH1 0x3 SLOAD SWAP1 PUSH1 0x1 DUP3 DUP2 SHR SWAP3 AND DUP1 ISZERO PUSH3 0x87F JUMPI JUMPDEST PUSH1 0x20 DUP4 LT EQ PUSH3 0x52E JUMPI DUP2 PUSH1 0x1F DUP5 SWAP4 GT PUSH3 0x80D JUMPI JUMPDEST POP PUSH1 0x20 SWAP1 PUSH1 0x1F DUP4 GT PUSH1 0x1 EQ PUSH3 0x77E JUMPI PUSH1 0x0 SWAP3 PUSH3 0x772 JUMPI JUMPDEST POP POP DUP2 PUSH1 0x1 SHL SWAP2 PUSH1 0x0 NOT SWAP1 PUSH1 0x3 SHL SHR NOT AND OR PUSH1 0x3 SSTORE JUMPDEST DUP1 MLOAD SWAP1 PUSH1 0x1 PUSH1 0x1 PUSH1 0x40 SHL SUB DUP3 GT PUSH3 0x54F JUMPI PUSH1 0x4 SLOAD SWAP1 PUSH1 0x1 DUP3 DUP2 SHR SWAP3 AND DUP1 ISZERO PUSH3 0x767 JUMPI JUMPDEST PUSH1 0x20 DUP4 LT EQ PUSH3 0x52E JUMPI DUP2 PUSH1 0x1F DUP5 SWAP4 GT PUSH3 0x6F5 JUMPI JUMPDEST POP PUSH1 0x20 SWAP1 PUSH1 0x1F DUP4 GT PUSH1 0x1 EQ PUSH3 0x666 JUMPI PUSH1 0x0 SWAP3 PUSH3 0x65A JUMPI JUMPDEST POP POP DUP2 PUSH1 0x1 SHL SWAP2 PUSH1 0x0 NOT SWAP1 PUSH1 0x3 SHL SHR NOT AND OR PUSH1 0x4 SSTORE JUMPDEST PUSH1 0x5 SSTORE PUSH1 0x6 SSTORE PUSH1 0x7 SSTORE PUSH1 0x8 DUP1 SLOAD PUSH1 0x1 PUSH1 0x1 PUSH1 0xA0 SHL SUB SWAP9 SWAP1 SWAP9 AND PUSH1 0x1 PUSH1 0x1 PUSH1 0xA0 SHL SUB NOT SWAP9 DUP10 AND OR SWAP1 SSTORE DUP1 MLOAD SWAP1 PUSH1 0x1 PUSH1 0x1 PUSH1 0x40 SHL SUB DUP3 GT PUSH3 0x54F JUMPI PUSH1 0x9 SLOAD SWAP1 PUSH1 0x1 DUP3 DUP2 SHR SWAP3 AND DUP1 ISZERO PUSH3 0x64F JUMPI JUMPDEST PUSH1 0x20 DUP4 LT EQ PUSH3 0x52E JUMPI DUP2 PUSH1 0x1F DUP5 SWAP4 GT PUSH3 0x5EB JUMPI JUMPDEST POP PUSH1 0x20 SWAP1 PUSH1 0x1F DUP4 GT PUSH1 0x1 EQ PUSH3 0x571 JUMPI PUSH1 0x0 SWAP3 PUSH3 0x565 JUMPI JUMPDEST POP POP DUP2 PUSH1 0x1 SHL SWAP2 PUSH1 0x0 NOT SWAP1 PUSH1 0x3 SHL SHR NOT AND OR PUSH1 0x9 SSTORE JUMPDEST PUSH1 0xB SSTORE DUP1 MLOAD SWAP1 PUSH1 0x1 PUSH1 0x1 PUSH1 0x40 SHL SUB DUP3 GT PUSH3 0x54F JUMPI PUSH1 0xA SLOAD SWAP1 PUSH1 0x1 DUP3 DUP2 SHR SWAP3 AND DUP1 ISZERO PUSH3 0x544 JUMPI JUMPDEST PUSH1 0x20 DUP4 LT EQ PUSH3 0x52E JUMPI DUP2 PUSH1 0x1F DUP5 SWAP4 GT PUSH3 0x4CA JUMPI JUMPDEST POP PUSH1 0x20 SWAP1 PUSH1 0x1F DUP4 GT PUSH1 0x1 EQ PUSH3 0x450 JUMPI PUSH1 0x0 SWAP3 PUSH3 0x444 JUMPI JUMPDEST POP POP DUP2 PUSH1 0x1 SHL SWAP2 PUSH1 0x0 NOT SWAP1 PUSH1 0x3 SHL SHR NOT AND OR PUSH1 0xA SSTORE JUMPDEST DUP3 DUP5 PUSH1 0xC SLOAD AND OR PUSH1 0xC SSTORE PUSH1 0xE SSTORE PUSH1 0xD SSTORE PUSH1 0x80 MSTORE CALLER SWAP1 PUSH1 0x0 SLOAD AND OR PUSH1 0x0 SSTORE MLOAD PUSH2 0x81D SWAP1 DUP2 PUSH3 0xBFA DUP3 CODECOPY PUSH1 0x80 MLOAD DUP2 DUP2 DUP2 PUSH1 0x90 ADD MSTORE PUSH1 0xF2 ADD MSTORE RETURN JUMPDEST ADD MLOAD SWAP1 POP CODESIZE DUP1 PUSH3 0x3F5 JUMP JUMPDEST PUSH1 0xA PUSH1 0x0 SWAP1 DUP2 MSTORE PUSH1 0x0 DUP1 MLOAD PUSH1 0x20 PUSH3 0x1437 DUP4 CODECOPY DUP2 MLOAD SWAP2 MSTORE SWAP4 POP PUSH1 0x1F NOT DUP6 AND SWAP1 JUMPDEST DUP2 DUP2 LT PUSH3 0x4B1 JUMPI POP SWAP1 DUP5 PUSH1 0x1 SWAP6 SWAP5 SWAP4 SWAP3 LT PUSH3 0x497 JUMPI JUMPDEST POP POP POP DUP2 SHL ADD PUSH1 0xA SSTORE PUSH3 0x40B JUMP JUMPDEST ADD MLOAD PUSH1 0x0 NOT PUSH1 0xF8 DUP5 PUSH1 0x3 SHL AND SHR NOT AND SWAP1 SSTORE CODESIZE DUP1 DUP1 PUSH3 0x488 JUMP JUMPDEST SWAP3 SWAP4 PUSH1 0x20 PUSH1 0x1 DUP2 SWAP3 DUP8 DUP7 ADD MLOAD DUP2 SSTORE ADD SWAP6 ADD SWAP4 ADD PUSH3 0x470 JUMP JUMPDEST PUSH1 0xA PUSH1 0x0 MSTORE SWAP1 SWAP2 POP PUSH1 0x0 DUP1 MLOAD PUSH1 0x20 PUSH3 0x1437 DUP4 CODECOPY DUP2 MLOAD SWAP2 MSTORE PUSH1 0x1F DUP5 ADD PUSH1 0x5 SHR DUP2 ADD SWAP2 PUSH1 0x20 DUP6 LT PUSH3 0x523 JUMPI JUMPDEST SWAP1 PUSH1 0x1F DUP6 SWAP5 SWAP4 SWAP3 ADD PUSH1 0x5 SHR ADD SWAP1 JUMPDEST DUP2 DUP2 LT PUSH3 0x513 JUMPI POP PUSH3 0x3DC JUMP JUMPDEST PUSH1 0x0 DUP2 SSTORE DUP5 SWAP4 POP PUSH1 0x1 ADD PUSH3 0x504 JUMP JUMPDEST SWAP1 SWAP2 POP DUP2 SWAP1 PUSH3 0x4F6 JUMP JUMPDEST PUSH4 0x4E487B71 PUSH1 0xE0 SHL PUSH1 0x0 MSTORE PUSH1 0x22 PUSH1 0x4 MSTORE PUSH1 0x24 PUSH1 0x0 REVERT JUMPDEST SWAP2 PUSH1 0x7F AND SWAP2 PUSH3 0x3C6 JUMP JUMPDEST PUSH4 0x4E487B71 PUSH1 0xE0 SHL PUSH1 0x0 MSTORE PUSH1 0x41 PUSH1 0x4 MSTORE PUSH1 0x24 PUSH1 0x0 REVERT JUMPDEST ADD MLOAD SWAP1 POP CODESIZE DUP1 PUSH3 0x388 JUMP JUMPDEST PUSH1 0x9 PUSH1 0x0 SWAP1 DUP2 MSTORE PUSH1 0x0 DUP1 MLOAD PUSH1 0x20 PUSH3 0x1457 DUP4 CODECOPY DUP2 MLOAD SWAP2 MSTORE SWAP4 POP PUSH1 0x1F NOT DUP6 AND SWAP1 JUMPDEST DUP2 DUP2 LT PUSH3 0x5D2 JUMPI POP SWAP1 DUP5 PUSH1 0x1 SWAP6 SWAP5 SWAP4 SWAP3 LT PUSH3 0x5B8 JUMPI JUMPDEST POP POP POP DUP2 SHL ADD PUSH1 0x9 SSTORE PUSH3 0x39E JUMP JUMPDEST ADD MLOAD PUSH1 0x0 NOT PUSH1 0xF8 DUP5 PUSH1 0x3 SHL AND SHR NOT AND SWAP1 SSTORE CODESIZE DUP1 DUP1 PUSH3 0x5A9 JUMP JUMPDEST SWAP3 SWAP4 PUSH1 0x20 PUSH1 0x1 DUP2 SWAP3 DUP8 DUP7 ADD MLOAD DUP2 SSTORE ADD SWAP6 ADD SWAP4 ADD PUSH3 0x591 JUMP JUMPDEST PUSH1 0x9 PUSH1 0x0 MSTORE SWAP1 SWAP2 POP PUSH1 0x0 DUP1 MLOAD PUSH1 0x20 PUSH3 0x1457 DUP4 CODECOPY DUP2 MLOAD SWAP2 MSTORE PUSH1 0x1F DUP5 ADD PUSH1 0x5 SHR DUP2 ADD SWAP2 PUSH1 0x20 DUP6 LT PUSH3 0x644 JUMPI JUMPDEST SWAP1 PUSH1 0x1F DUP6 SWAP5 SWAP4 SWAP3 ADD PUSH1 0x5 SHR ADD SWAP1 JUMPDEST DUP2 DUP2 LT PUSH3 0x634 JUMPI POP PUSH3 0x36F JUMP JUMPDEST PUSH1 0x0 DUP2 SSTORE DUP5 SWAP4 POP PUSH1 0x1 ADD PUSH3 0x625 JUMP JUMPDEST SWAP1 SWAP2 POP DUP2 SWAP1 PUSH3 0x617 JUMP JUMPDEST SWAP2 PUSH1 0x7F AND SWAP2 PUSH3 0x359 JUMP JUMPDEST ADD MLOAD SWAP1 POP CODESIZE DUP1 PUSH3 0x2F6 JUMP JUMPDEST PUSH1 0x4 PUSH1 0x0 SWAP1 DUP2 MSTORE SWAP4 POP PUSH32 0x8A35ACFBC15FF81A39AE7D344FD709F28E8600B4AA8C65C6B64BFE7FE36BD19B SWAP2 SWAP1 JUMPDEST PUSH1 0x1F NOT DUP5 AND DUP6 LT PUSH3 0x6D9 JUMPI PUSH1 0x1 SWAP5 POP DUP4 PUSH1 0x1F NOT DUP2 AND LT PUSH3 0x6BF JUMPI JUMPDEST POP POP POP DUP2 SHL ADD PUSH1 0x4 SSTORE PUSH3 0x30C JUMP JUMPDEST ADD MLOAD PUSH1 0x0 NOT PUSH1 0xF8 DUP5 PUSH1 0x3 SHL AND SHR NOT AND SWAP1 SSTORE CODESIZE DUP1 DUP1 PUSH3 0x6B0 JUMP JUMPDEST DUP2 DUP2 ADD MLOAD DUP4 SSTORE PUSH1 0x20 SWAP5 DUP6 ADD SWAP5 PUSH1 0x1 SWAP1 SWAP4 ADD SWAP3 SWAP1 SWAP2 ADD SWAP1 PUSH3 0x693 JUMP JUMPDEST PUSH1 0x4 PUSH1 0x0 MSTORE SWAP1 SWAP2 POP PUSH32 0x8A35ACFBC15FF81A39AE7D344FD709F28E8600B4AA8C65C6B64BFE7FE36BD19B PUSH1 0x1F DUP5 ADD PUSH1 0x5 SHR DUP2 ADD PUSH1 0x20 DUP6 LT PUSH3 0x75F JUMPI JUMPDEST SWAP1 DUP5 SWAP4 SWAP3 SWAP2 JUMPDEST PUSH1 0x1F DUP4 ADD PUSH1 0x5 SHR DUP3 ADD DUP2 LT PUSH3 0x74F JUMPI POP POP PUSH3 0x2DD JUMP JUMPDEST PUSH1 0x0 DUP2 SSTORE DUP6 SWAP5 POP PUSH1 0x1 ADD PUSH3 0x737 JUMP JUMPDEST POP DUP1 PUSH3 0x731 JUMP JUMPDEST SWAP2 PUSH1 0x7F AND SWAP2 PUSH3 0x2C7 JUMP JUMPDEST ADD MLOAD SWAP1 POP CODESIZE DUP1 PUSH3 0x28C JUMP JUMPDEST PUSH1 0x3 PUSH1 0x0 SWAP1 DUP2 MSTORE SWAP4 POP PUSH32 0xC2575A0E9E593C00F959F8C92F12DB2869C3395A3B0502D05E2516446F71F85B SWAP2 SWAP1 JUMPDEST PUSH1 0x1F NOT DUP5 AND DUP6 LT PUSH3 0x7F1 JUMPI PUSH1 0x1 SWAP5 POP DUP4 PUSH1 0x1F NOT DUP2 AND LT PUSH3 0x7D7 JUMPI JUMPDEST POP POP POP DUP2 SHL ADD PUSH1 0x3 SSTORE PUSH3 0x2A2 JUMP JUMPDEST ADD MLOAD PUSH1 0x0 NOT PUSH1 0xF8 DUP5 PUSH1 0x3 SHL AND SHR NOT AND SWAP1 SSTORE CODESIZE DUP1 DUP1 PUSH3 0x7C8 JUMP JUMPDEST DUP2 DUP2 ADD MLOAD DUP4 SSTORE PUSH1 0x20 SWAP5 DUP6 ADD SWAP5 PUSH1 0x1 SWAP1 SWAP4 ADD SWAP3 SWAP1 SWAP2 ADD SWAP1 PUSH3 0x7AB JUMP JUMPDEST PUSH1 0x3 PUSH1 0x0 MSTORE SWAP1 SWAP2 POP PUSH32 0xC2575A0E9E593C00F959F8C92F12DB2869C3395A3B0502D05E2516446F71F85B PUSH1 0x1F DUP5 ADD PUSH1 0x5 SHR DUP2 ADD PUSH1 0x20 DUP6 LT PUSH3 0x877 JUMPI JUMPDEST SWAP1 DUP5 SWAP4 SWAP3 SWAP2 JUMPDEST PUSH1 0x1F DUP4 ADD PUSH1 0x5 SHR DUP3 ADD DUP2 LT PUSH3 0x867 JUMPI POP POP PUSH3 0x273 JUMP JUMPDEST PUSH1 0x0 DUP2 SSTORE DUP6 SWAP5 POP PUSH1 0x1 ADD PUSH3 0x84F JUMP JUMPDEST POP DUP1 PUSH3 0x849 JUMP JUMPDEST SWAP2 PUSH1 0x7F AND SWAP2 PUSH3 0x25D JUMP JUMPDEST ADD MLOAD SWAP1 POP CODESIZE DUP1 PUSH3 0x222 JUMP JUMPDEST PUSH1 0x2 PUSH1 0x0 SWAP1 DUP2 MSTORE SWAP4 POP PUSH1 0x0 DUP1 MLOAD PUSH1 0x20 PUSH3 0x1417 DUP4 CODECOPY DUP2 MLOAD SWAP2 MSTORE SWAP2 SWAP1 JUMPDEST PUSH1 0x1F NOT DUP5 AND DUP6 LT PUSH3 0x8F8 JUMPI PUSH1 0x1 SWAP5 POP DUP4 PUSH1 0x1F NOT DUP2 AND LT PUSH3 0x8DE JUMPI JUMPDEST POP POP POP DUP2 SHL ADD PUSH1 0x2 SSTORE PUSH3 0x238 JUMP JUMPDEST ADD MLOAD PUSH1 0x0 NOT PUSH1 0xF8 DUP5 PUSH1 0x3 SHL AND SHR NOT AND SWAP1 SSTORE CODESIZE DUP1 DUP1 PUSH3 0x8CF JUMP JUMPDEST DUP2 DUP2 ADD MLOAD DUP4 SSTORE PUSH1 0x20 SWAP5 DUP6 ADD SWAP5 PUSH1 0x1 SWAP1 SWAP4 ADD SWAP3 SWAP1 SWAP2 ADD SWAP1 PUSH3 0x8B2 JUMP JUMPDEST PUSH1 0x2 PUSH1 0x0 MSTORE SWAP1 SWAP2 POP PUSH1 0x0 DUP1 MLOAD PUSH1 0x20 PUSH3 0x1417 DUP4 CODECOPY DUP2 MLOAD SWAP2 MSTORE PUSH1 0x1F DUP5 ADD PUSH1 0x5 SHR DUP2 ADD PUSH1 0x20 DUP6 LT PUSH3 0x96D JUMPI JUMPDEST SWAP1 DUP5 SWAP4 SWAP3 SWAP2 JUMPDEST PUSH1 0x1F DUP4 ADD PUSH1 0x5 SHR DUP3 ADD DUP2 LT PUSH3 0x95D JUMPI POP POP PUSH3 0x209 JUMP JUMPDEST PUSH1 0x0 DUP2 SSTORE DUP6 SWAP5 POP PUSH1 0x1 ADD PUSH3 0x945 JUMP JUMPDEST POP DUP1 PUSH3 0x93F JUMP JUMPDEST SWAP2 PUSH1 0x7F AND SWAP2 PUSH3 0x1F3 JUMP JUMPDEST ADD MLOAD SWAP1 POP CODESIZE DUP1 PUSH3 0x1B8 JUMP JUMPDEST PUSH1 0x1 PUSH1 0x0 SWAP1 DUP2 MSTORE PUSH1 0x0 DUP1 MLOAD PUSH1 0x20 PUSH3 0x1477 DUP4 CODECOPY DUP2 MLOAD SWAP2 MSTORE SWAP4 POP PUSH1 0x1F NOT DUP6 AND SWAP1 JUMPDEST DUP2 DUP2 LT PUSH3 0x9ED JUMPI POP SWAP1 DUP5 PUSH1 0x1 SWAP6 SWAP5 SWAP4 SWAP3 LT PUSH3 0x9D3 JUMPI JUMPDEST POP POP POP DUP2 SHL ADD PUSH1 0x1 SSTORE PUSH3 0x1CE JUMP JUMPDEST ADD MLOAD PUSH1 0x0 NOT PUSH1 0xF8 DUP5 PUSH1 0x3 SHL AND SHR NOT AND SWAP1 SSTORE CODESIZE DUP1 DUP1 PUSH3 0x9C4 JUMP JUMPDEST SWAP3 SWAP4 PUSH1 0x20 PUSH1 0x1 DUP2 SWAP3 DUP8 DUP7 ADD MLOAD DUP2 SSTORE ADD SWAP6 ADD SWAP4 ADD PUSH3 0x9AC JUMP JUMPDEST PUSH1 0x1 PUSH1 0x0 MSTORE SWAP1 SWAP2 POP PUSH1 0x0 DUP1 MLOAD PUSH1 0x20 PUSH3 0x1477 DUP4 CODECOPY DUP2 MLOAD SWAP2 MSTORE PUSH1 0x1F DUP5 ADD PUSH1 0x5 SHR DUP2 ADD PUSH1 0x20 DUP6 LT PUSH3 0xA5F JUMPI JUMPDEST SWAP1 DUP5 SWAP4 SWAP3 SWAP2 JUMPDEST PUSH1 0x1F DUP4 ADD PUSH1 0x5 SHR DUP3 ADD DUP2 LT PUSH3 0xA4F JUMPI POP POP PUSH3 0x19F JUMP JUMPDEST PUSH1 0x0 DUP2 SSTORE DUP6 SWAP5 POP PUSH1 0x1 ADD PUSH3 0xA37 JUMP JUMPDEST POP DUP1 PUSH3 0xA31 JUMP JUMPDEST SWAP2 PUSH1 0x7F AND SWAP2 PUSH3 0x189 JUMP JUMPDEST DUP15 MLOAD PUSH3 0x461BCD PUSH1 0xE5 SHL DUP2 MSTORE PUSH1 0x20 PUSH1 0x4 DUP3 ADD MSTORE PUSH1 0x15 PUSH1 0x24 DUP3 ADD MSTORE PUSH32 0x696E76616C696420746F6B656E20616464726573730000000000000000000000 PUSH1 0x44 DUP3 ADD MSTORE PUSH1 0x64 SWAP1 REVERT JUMPDEST DUP15 MLOAD PUSH3 0x461BCD PUSH1 0xE5 SHL DUP2 MSTORE PUSH1 0x20 PUSH1 0x4 DUP3 ADD MSTORE PUSH1 0x21 PUSH1 0x24 DUP3 ADD MSTORE PUSH32 0x496E76616C69642068617264636170202620736F66746361702073657474696E PUSH1 0x44 DUP3 ADD MSTORE PUSH1 0x67 PUSH1 0xF8 SHL PUSH1 0x64 DUP3 ADD MSTORE PUSH1 0x84 SWAP1 REVERT JUMPDEST PUSH1 0x64 DUP16 MLOAD PUSH3 0x461BCD PUSH1 0xE5 SHL DUP2 MSTORE PUSH1 0x20 PUSH1 0x4 DUP3 ADD MSTORE PUSH1 0x20 PUSH1 0x24 DUP3 ADD MSTORE PUSH32 0x456E642074696D652073686F756C6420626520696E2074686520667574757265 PUSH1 0x44 DUP3 ADD MSTORE REVERT JUMPDEST PUSH1 0x0 DUP1 REVERT JUMPDEST PUSH1 0x40 MLOAD SWAP2 SWAP1 PUSH1 0x1F ADD PUSH1 0x1F NOT AND DUP3 ADD PUSH1 0x1 PUSH1 0x1 PUSH1 0x40 SHL SUB DUP2 GT DUP4 DUP3 LT OR PUSH3 0x54F JUMPI PUSH1 0x40 MSTORE JUMP JUMPDEST SWAP2 SWAP1 DUP1 PUSH1 0x1F DUP5 ADD SLT ISZERO PUSH3 0xB47 JUMPI DUP3 MLOAD PUSH1 0x1 PUSH1 0x1 PUSH1 0x40 SHL SUB DUP2 GT PUSH3 0x54F JUMPI PUSH1 0x20 SWAP1 PUSH3 0xBA8 PUSH1 0x1F DUP3 ADD PUSH1 0x1F NOT AND DUP4 ADD PUSH3 0xB4C JUMP JUMPDEST SWAP3 DUP2 DUP5 MSTORE DUP3 DUP3 DUP8 ADD ADD GT PUSH3 0xB47 JUMPI PUSH1 0x0 JUMPDEST DUP2 DUP2 LT PUSH3 0xBD0 JUMPI POP DUP3 PUSH1 0x0 SWAP4 SWAP5 SWAP6 POP ADD ADD MSTORE SWAP1 JUMP JUMPDEST DUP6 DUP2 ADD DUP4 ADD MLOAD DUP5 DUP3 ADD DUP5 ADD MSTORE DUP3 ADD PUSH3 0xBBA JUMP JUMPDEST MLOAD SWAP1 PUSH1 0x1 PUSH1 0x1 PUSH1 0xA0 SHL SUB DUP3 AND DUP3 SUB PUSH3 0xB47 JUMPI JUMP INVALID PUSH1 0x80 PUSH1 0x40 DUP2 DUP2 MSTORE PUSH1 0x4 SWAP2 DUP3 CALLDATASIZE LT ISZERO PUSH2 0x16 JUMPI PUSH1 0x0 DUP1 REVERT JUMPDEST PUSH1 0x0 SWAP3 DUP4 CALLDATALOAD PUSH1 0xE0 SHR SWAP2 DUP3 PUSH4 0x2D05D3F EQ PUSH2 0x74B JUMPI POP DUP2 PUSH4 0x185B6910 EQ PUSH2 0x3E4 JUMPI DUP2 PUSH4 0x42E94C90 EQ PUSH2 0x3AA JUMPI DUP2 PUSH4 0x6681B9FD EQ PUSH2 0x38B JUMPI DUP2 PUSH4 0x6ADDB663 EQ PUSH2 0x1A3 JUMPI DUP2 PUSH4 0x8DA5CB5B EQ PUSH2 0x17A JUMPI DUP2 PUSH4 0xBCBA0121 EQ PUSH2 0xC3 JUMPI POP PUSH4 0xFC0C546A EQ PUSH2 0x7D JUMPI PUSH1 0x0 DUP1 REVERT JUMPDEST CALLVALUE PUSH2 0xBF JUMPI DUP2 PUSH1 0x3 NOT CALLDATASIZE ADD SLT PUSH2 0xBF JUMPI MLOAD PUSH32 0x0 PUSH1 0x1 PUSH1 0x1 PUSH1 0xA0 SHL SUB AND DUP2 MSTORE PUSH1 0x20 SWAP1 RETURN JUMPDEST POP DUP1 REVERT JUMPDEST SWAP2 SWAP1 POP CALLVALUE PUSH2 0x164 JUMPI DUP3 PUSH1 0x3 NOT CALLDATASIZE ADD SLT PUSH2 0x164 JUMPI DUP1 MLOAD PUSH4 0x70A08231 PUSH1 0xE0 SHL DUP2 MSTORE ADDRESS SWAP3 DUP2 ADD SWAP3 SWAP1 SWAP3 MSTORE PUSH1 0x20 DUP3 PUSH1 0x24 DUP2 PUSH32 0x0 PUSH1 0x1 PUSH1 0x1 PUSH1 0xA0 SHL SUB AND GAS STATICCALL SWAP2 DUP3 ISZERO PUSH2 0x170 JUMPI DUP4 SWAP3 PUSH2 0x134 JUMPI JUMPDEST PUSH1 0x20 DUP4 DUP4 MLOAD SWAP1 DUP2 MSTORE RETURN JUMPDEST SWAP1 SWAP2 POP PUSH1 0x20 DUP2 RETURNDATASIZE PUSH1 0x20 GT PUSH2 0x168 JUMPI JUMPDEST DUP2 PUSH2 0x150 PUSH1 0x20 SWAP4 DUP4 PUSH2 0x76F JUMP JUMPDEST DUP2 ADD SUB SLT PUSH2 0x164 JUMPI PUSH1 0x20 SWAP3 POP MLOAD SWAP1 CODESIZE PUSH2 0x12A JUMP JUMPDEST DUP3 DUP1 REVERT JUMPDEST RETURNDATASIZE SWAP2 POP PUSH2 0x143 JUMP JUMPDEST DUP2 MLOAD RETURNDATASIZE DUP6 DUP3 RETURNDATACOPY RETURNDATASIZE SWAP1 REVERT JUMPDEST POP POP CALLVALUE PUSH2 0xBF JUMPI DUP2 PUSH1 0x3 NOT CALLDATASIZE ADD SLT PUSH2 0xBF JUMPI PUSH1 0x8 SLOAD SWAP1 MLOAD PUSH1 0x1 PUSH1 0x1 PUSH1 0xA0 SHL SUB SWAP1 SWAP2 AND DUP2 MSTORE PUSH1 0x20 SWAP1 RETURN JUMPDEST DUP4 DUP4 CALLVALUE PUSH2 0xBF JUMPI DUP2 PUSH1 0x3 NOT CALLDATASIZE ADD SLT PUSH2 0xBF JUMPI DUP1 MLOAD SWAP2 DUP1 PUSH1 0x9 SLOAD SWAP5 PUSH1 0x1 SWAP3 DUP7 DUP5 SHR DUP5 DUP9 AND SWAP8 DUP9 ISZERO PUSH2 0x381 JUMPI JUMPDEST PUSH1 0x20 SWAP9 DUP10 DUP4 LT DUP2 EQ PUSH2 0x36E JUMPI SWAP2 DUP10 SWAP4 SWAP2 DUP10 SWAP4 DUP3 DUP6 MSTORE SWAP1 DUP2 PUSH1 0x0 EQ PUSH2 0x350 JUMPI POP PUSH1 0x1 EQ PUSH2 0x313 JUMPI JUMPDEST POP PUSH2 0x202 SWAP3 POP SUB DUP7 PUSH2 0x76F JUMP JUMPDEST DUP4 MLOAD SWAP3 DUP3 PUSH1 0xA SLOAD DUP1 DUP4 SHR SWAP4 DUP4 DUP3 AND SWAP1 DUP2 ISZERO PUSH2 0x309 JUMPI JUMPDEST DUP11 DUP7 LT DUP3 EQ PUSH2 0x2F6 JUMPI POP DUP5 DUP8 MSTORE SWAP1 DUP2 ISZERO PUSH2 0x2D4 JUMPI POP PUSH1 0x1 EQ PUSH2 0x299 JUMPI JUMPDEST POP POP POP SWAP4 PUSH2 0x248 DUP3 PUSH2 0x275 SWAP7 SUB DUP4 PUSH2 0x76F JUMP JUMPDEST PUSH1 0xB SLOAD PUSH1 0x1 DUP1 PUSH1 0xA0 SHL SUB PUSH1 0xC SLOAD AND SWAP1 PUSH2 0x282 PUSH1 0xD SLOAD SWAP4 PUSH1 0xE SLOAD SWAP6 DUP8 MLOAD SWAP10 DUP11 SWAP10 PUSH1 0xC0 DUP12 MSTORE PUSH1 0xC0 DUP12 ADD SWAP1 PUSH2 0x7A7 JUMP JUMPDEST SWAP2 DUP10 DUP4 SUB SWAP1 DUP11 ADD MSTORE PUSH2 0x7A7 JUMP JUMPDEST SWAP5 DUP7 ADD MSTORE PUSH1 0x60 DUP6 ADD MSTORE PUSH1 0x80 DUP5 ADD MSTORE PUSH1 0xA0 DUP4 ADD MSTORE SUB SWAP1 RETURN JUMPDEST SWAP7 SWAP3 POP PUSH1 0xA DUP8 MSTORE DUP3 DUP8 KECCAK256 JUMPDEST DUP3 DUP9 LT PUSH2 0x2C1 JUMPI POP POP POP PUSH2 0x248 DUP3 DUP3 PUSH2 0x275 SWAP8 DUP3 ADD ADD SWAP3 SWAP7 PUSH2 0x235 JUMP JUMPDEST DUP1 SLOAD DUP6 DUP10 ADD DUP6 ADD MSTORE SWAP7 DUP4 ADD SWAP7 DUP2 ADD PUSH2 0x2A4 JUMP JUMPDEST PUSH1 0xFF NOT AND DUP7 DUP11 ADD MSTORE POP POP POP ISZERO ISZERO PUSH1 0x5 SHL DUP3 ADD DUP6 ADD SWAP1 POP PUSH2 0x248 DUP3 PUSH2 0x275 PUSH2 0x235 JUMP JUMPDEST PUSH4 0x4E487B71 PUSH1 0xE0 SHL DUP5 MSTORE PUSH1 0x22 SWAP1 MSTORE PUSH1 0x24 DUP4 REVERT JUMPDEST SWAP5 PUSH1 0x7F AND SWAP5 PUSH2 0x218 JUMP JUMPDEST PUSH1 0x9 DUP7 MSTORE DUP4 DUP7 KECCAK256 DUP7 SWAP3 POP DUP8 SWAP1 JUMPDEST DUP3 DUP5 LT PUSH2 0x339 JUMPI POP POP POP SWAP2 PUSH2 0x202 SWAP3 DUP3 ADD ADD DUP9 SWAP3 PUSH2 0x1F5 JUMP JUMPDEST DUP1 SLOAD DUP12 DUP6 ADD DUP8 ADD MSTORE DUP11 SWAP5 POP SWAP3 DUP6 ADD SWAP3 DUP9 SWAP2 ADD PUSH2 0x320 JUMP JUMPDEST PUSH1 0xFF NOT AND DUP5 DUP7 ADD MSTORE POP DUP10 SWAP4 SWAP1 ISZERO ISZERO PUSH1 0x5 SHL DUP4 ADD ADD SWAP1 POP PUSH2 0x202 PUSH2 0x1F5 JUMP JUMPDEST PUSH4 0x4E487B71 PUSH1 0xE0 SHL DUP7 MSTORE PUSH1 0x22 DUP6 MSTORE PUSH1 0x24 DUP7 REVERT JUMPDEST SWAP1 PUSH1 0x7F AND SWAP1 PUSH2 0x1CE JUMP JUMPDEST POP POP CALLVALUE PUSH2 0xBF JUMPI DUP2 PUSH1 0x3 NOT CALLDATASIZE ADD SLT PUSH2 0xBF JUMPI PUSH1 0x20 SWAP1 PUSH1 0xF SLOAD SWAP1 MLOAD SWAP1 DUP2 MSTORE RETURN JUMPDEST SWAP1 POP CALLVALUE PUSH2 0x164 JUMPI PUSH1 0x20 CALLDATASIZE PUSH1 0x3 NOT ADD SLT PUSH2 0x164 JUMPI CALLDATALOAD PUSH1 0x1 PUSH1 0x1 PUSH1 0xA0 SHL SUB DUP2 AND SWAP1 DUP2 SWAP1 SUB PUSH2 0x164 JUMPI DUP3 DUP3 SWAP2 PUSH1 0x20 SWAP5 MSTORE PUSH1 0x10 DUP5 MSTORE KECCAK256 SLOAD SWAP1 MLOAD SWAP1 DUP2 MSTORE RETURN JUMPDEST DUP4 DUP4 CALLVALUE PUSH2 0xBF JUMPI DUP2 PUSH1 0x3 NOT CALLDATASIZE ADD SLT PUSH2 0xBF JUMPI DUP1 MLOAD SWAP2 DUP1 PUSH1 0x1 SWAP5 DUP6 SLOAD SWAP2 DUP3 DUP8 SHR SWAP1 DUP8 DUP5 AND SWAP4 DUP5 ISZERO PUSH2 0x741 JUMPI JUMPDEST PUSH1 0x20 SWAP5 DUP6 DUP5 LT DUP2 EQ PUSH2 0x72E JUMPI DUP4 DUP10 MSTORE DUP9 SWAP3 SWAP2 DUP7 SWAP1 DUP3 ISZERO PUSH2 0x711 JUMPI POP POP PUSH1 0x1 EQ PUSH2 0x6D4 JUMPI JUMPDEST PUSH2 0x43F SWAP3 POP SUB DUP7 PUSH2 0x76F JUMP JUMPDEST DUP4 MLOAD SWAP3 DUP1 PUSH1 0x2 SLOAD SWAP1 DUP2 DUP10 SHR SWAP2 DUP10 DUP2 AND DUP1 ISZERO PUSH2 0x6CA JUMPI JUMPDEST DUP7 DUP5 LT DUP2 EQ PUSH2 0x6B7 JUMPI DUP4 DUP9 MSTORE DUP8 SWAP3 SWAP2 DUP8 SWAP1 DUP3 ISZERO PUSH2 0x69A JUMPI POP POP PUSH1 0x1 EQ PUSH2 0x65C JUMPI JUMPDEST PUSH2 0x482 SWAP3 POP SUB DUP6 PUSH2 0x76F JUMP JUMPDEST DUP5 MLOAD SWAP2 DUP2 PUSH1 0x3 SLOAD SWAP1 DUP2 DUP11 SHR SWAP2 DUP11 DUP2 AND DUP1 ISZERO PUSH2 0x652 JUMPI JUMPDEST DUP8 DUP5 LT DUP2 EQ PUSH2 0x36E JUMPI DUP4 DUP8 MSTORE DUP7 SWAP3 SWAP2 DUP9 SWAP1 DUP3 ISZERO PUSH2 0x635 JUMPI POP POP PUSH1 0x1 EQ PUSH2 0x5F7 JUMPI JUMPDEST PUSH2 0x4C5 SWAP3 POP SUB DUP5 PUSH2 0x76F JUMP JUMPDEST DUP6 MLOAD SWAP8 DUP3 DUP3 SLOAD SWAP3 DUP4 DUP4 SHR SWAP4 DUP4 DUP2 AND DUP1 ISZERO PUSH2 0x5ED JUMPI JUMPDEST DUP9 DUP7 LT DUP2 EQ PUSH2 0x5DA JUMPI DUP6 DUP14 MSTORE SWAP1 DUP2 ISZERO PUSH2 0x5B6 JUMPI POP PUSH1 0x1 EQ PUSH2 0x57F JUMPI JUMPDEST POP POP POP POP DUP7 PUSH2 0x50D PUSH2 0x53F SWAP9 PUSH2 0x566 SWAP4 SUB DUP3 PUSH2 0x76F JUMP JUMPDEST PUSH2 0x558 PUSH1 0x5 SLOAD SWAP7 PUSH1 0x6 SLOAD SWAP5 PUSH2 0x54B PUSH1 0x7 SLOAD SWAP8 PUSH1 0x1 DUP1 PUSH1 0xA0 SHL SUB PUSH1 0x8 SLOAD AND SWAP10 DUP5 MLOAD DUP1 SWAP15 DUP2 SWAP15 PUSH2 0x100 DUP1 DUP5 MSTORE DUP4 ADD SWAP1 PUSH2 0x7A7 JUMP JUMPDEST SWAP3 DUP2 DUP5 SUB SWAP2 ADD MSTORE PUSH2 0x7A7 JUMP JUMPDEST SWAP2 DUP11 DUP4 SUB SWAP1 DUP12 ADD MSTORE PUSH2 0x7A7 JUMP JUMPDEST SWAP1 DUP8 DUP3 SUB PUSH1 0x60 DUP10 ADD MSTORE PUSH2 0x7A7 JUMP JUMPDEST SWAP4 PUSH1 0x80 DUP7 ADD MSTORE PUSH1 0xA0 DUP6 ADD MSTORE PUSH1 0xC0 DUP5 ADD MSTORE PUSH1 0xE0 DUP4 ADD MSTORE SUB SWAP1 RETURN JUMPDEST SWAP1 DUP1 SWAP5 POP MSTORE DUP5 DUP4 KECCAK256 JUMPDEST DUP3 DUP5 LT PUSH2 0x5A3 JUMPI POP POP POP DUP7 ADD DUP3 ADD DUP7 PUSH2 0x50D DUP2 PUSH2 0x566 PUSH2 0x4F6 JUMP JUMPDEST DUP1 SLOAD DUP5 DUP12 ADD DUP8 ADD MSTORE SWAP3 DUP6 ADD SWAP3 DUP2 ADD PUSH2 0x588 JUMP JUMPDEST PUSH1 0xFF NOT AND DUP9 DUP14 ADD MSTORE POP POP POP POP ISZERO ISZERO PUSH1 0x5 SHL DUP8 ADD DUP4 ADD SWAP1 POP DUP7 PUSH2 0x50D DUP2 PUSH2 0x566 PUSH2 0x4F6 JUMP JUMPDEST PUSH4 0x4E487B71 PUSH1 0xE0 SHL DUP5 MSTORE PUSH1 0x22 DUP4 MSTORE PUSH1 0x24 DUP5 REVERT JUMPDEST SWAP5 PUSH1 0x7F AND SWAP5 PUSH2 0x4DA JUMP JUMPDEST POP POP PUSH1 0x3 DUP4 MSTORE DUP4 DUP6 DUP1 DUP6 KECCAK256 DUP12 DUP7 SWAP2 JUMPDEST DUP6 DUP4 LT PUSH2 0x61C JUMPI POP POP PUSH2 0x4C5 SWAP4 POP DUP3 ADD ADD PUSH2 0x4B9 JUMP JUMPDEST DUP1 SWAP2 SWAP3 SWAP5 POP SLOAD DUP4 DUP6 DUP11 ADD ADD MSTORE ADD SWAP2 ADD DUP7 SWAP1 DUP12 DUP8 SWAP4 PUSH2 0x606 JUMP JUMPDEST PUSH1 0xFF NOT AND DUP5 DUP3 ADD MSTORE PUSH2 0x4C5 SWAP5 ISZERO ISZERO PUSH1 0x5 SHL DUP5 ADD ADD SWAP2 POP PUSH2 0x4B9 SWAP1 POP JUMP JUMPDEST SWAP3 PUSH1 0x7F AND SWAP3 PUSH2 0x498 JUMP JUMPDEST POP POP PUSH1 0x2 DUP3 MSTORE DUP5 DUP5 DUP1 DUP5 KECCAK256 DUP11 DUP6 SWAP2 JUMPDEST DUP6 DUP4 LT PUSH2 0x681 JUMPI POP POP PUSH2 0x482 SWAP4 POP DUP3 ADD ADD PUSH2 0x476 JUMP JUMPDEST DUP1 SWAP2 SWAP3 SWAP5 POP SLOAD DUP4 DUP6 DUP12 ADD ADD MSTORE ADD SWAP2 ADD DUP6 SWAP1 DUP11 DUP9 SWAP4 PUSH2 0x66B JUMP JUMPDEST PUSH1 0xFF NOT AND DUP5 DUP3 ADD MSTORE PUSH2 0x482 SWAP5 ISZERO ISZERO PUSH1 0x5 SHL DUP5 ADD ADD SWAP2 POP PUSH2 0x476 SWAP1 POP JUMP JUMPDEST PUSH4 0x4E487B71 PUSH1 0xE0 SHL DUP6 MSTORE PUSH1 0x22 DUP7 MSTORE PUSH1 0x24 DUP6 REVERT JUMPDEST SWAP3 PUSH1 0x7F AND SWAP3 PUSH2 0x455 JUMP JUMPDEST POP POP DUP7 DUP5 MSTORE DUP6 DUP4 DUP1 DUP7 KECCAK256 DUP10 DUP8 SWAP2 JUMPDEST DUP6 DUP4 LT PUSH2 0x6F8 JUMPI POP POP PUSH2 0x43F SWAP4 POP DUP3 ADD ADD PUSH2 0x433 JUMP JUMPDEST DUP1 SWAP2 SWAP3 SWAP5 POP SLOAD DUP4 DUP6 DUP13 ADD ADD MSTORE ADD SWAP2 ADD DUP5 SWAP1 DUP10 DUP10 SWAP4 PUSH2 0x6E2 JUMP JUMPDEST PUSH1 0xFF NOT AND DUP5 DUP3 ADD MSTORE PUSH2 0x43F SWAP5 ISZERO ISZERO PUSH1 0x5 SHL DUP5 ADD ADD SWAP2 POP PUSH2 0x433 SWAP1 POP JUMP JUMPDEST PUSH4 0x4E487B71 PUSH1 0xE0 SHL DUP8 MSTORE PUSH1 0x22 DUP6 MSTORE PUSH1 0x24 DUP8 REVERT JUMPDEST SWAP2 PUSH1 0x7F AND SWAP2 PUSH2 0x40F JUMP JUMPDEST DUP5 SWAP1 CALLVALUE PUSH2 0xBF JUMPI DUP2 PUSH1 0x3 NOT CALLDATASIZE ADD SLT PUSH2 0xBF JUMPI SWAP1 SLOAD PUSH1 0x1 PUSH1 0x1 PUSH1 0xA0 SHL SUB AND DUP2 MSTORE PUSH1 0x20 SWAP1 RETURN JUMPDEST SWAP1 PUSH1 0x1F DUP1 NOT SWAP2 ADD AND DUP2 ADD SWAP1 DUP2 LT PUSH8 0xFFFFFFFFFFFFFFFF DUP3 GT OR PUSH2 0x791 JUMPI PUSH1 0x40 MSTORE JUMP JUMPDEST PUSH4 0x4E487B71 PUSH1 0xE0 SHL PUSH1 0x0 MSTORE PUSH1 0x41 PUSH1 0x4 MSTORE PUSH1 0x24 PUSH1 0x0 REVERT JUMPDEST SWAP2 SWAP1 DUP3 MLOAD SWAP3 DUP4 DUP3 MSTORE PUSH1 0x0 JUMPDEST DUP5 DUP2 LT PUSH2 0x7D3 JUMPI POP POP DUP3 PUSH1 0x0 PUSH1 0x20 DUP1 SWAP5 SWAP6 DUP5 ADD ADD MSTORE PUSH1 0x1F DUP1 NOT SWAP2 ADD AND ADD ADD SWAP1 JUMP JUMPDEST PUSH1 0x20 DUP2 DUP4 ADD DUP2 ADD MLOAD DUP5 DUP4 ADD DUP3 ADD MSTORE ADD PUSH2 0x7B2 JUMP INVALID LOG2 PUSH5 0x6970667358 0x22 SLT KECCAK256 0xD1 0xB3 0xBA PUSH9 0x2C1FB4F860481AF35 DUP2 PUSH15 0x54D9DC8056F2C40DAF065211D09465 0x25 EXP PUSH5 0x736F6C6343 STOP ADDMOD XOR STOP CALLER BLOCKHASH JUMPI DUP8 STATICCALL SLT 0xA8 0x23 0xE0 CALLCODE 0xB7 PUSH4 0x1CC41B3B 0xA8 DUP3 DUP12 CALLER 0x21 0xCA DUP2 GT GT STATICCALL PUSH22 0xCD3AA3BB5ACEC65A7BB8D6351C1CF70C95A316CC6A92 DUP4 SWAP13 SWAP9 PUSH7 0x82D98BC35F958F BASEFEE DUP4 0xF9 0xD2 0xA8 PUSH15 0x1540171B6C0C960B71A7020D9F6007 PUSH32 0x6AF931A8BBF590DA0223DACF75C7AFB10E2D527612073B26EECDFD717E6A320C DELEGATECALL 0x4B BLOBBASEFEE STATICCALL 0xC2 0xB0 PUSH20 0x2D9FCBE2B7FA0CF6A2646970667358221220DBA6 DUP4 0xE1 PUSH13 0x86C72CAC6E9E78BC196D77AEC2 OR DIV 0xB8 SWAP5 SSTORE 0xC3 0xB1 0xF6 0xB9 ADDRESS SMOD BALANCE 0x26 0xCE PUSH5 0x736F6C6343 STOP ADDMOD XOR STOP CALLER "},"methodIdentifiers":{"daiAddress()":"2c387275","daiToken()":"be22f546","depositToken(address,address,uint256)":"fb0f97a8","feeAmount()":"69e15404","launchNewICO(string,string,string,string,uint256,uint256,uint256,string,string,uint256,uint256,uint256,address)":"f5aee948","owner()":"8da5cb5b","paySpamFilterFee()":"13259756","vulcans(uint256)":"100a0c75"}}}}}