{"contracts/Vulcan.sol":{"Vulcan":{"abi":[{"inputs":[{"internalType":"string","name":"title_","type":"string"},{"internalType":"string","name":"description_","type":"string"},{"internalType":"string","name":"logo_","type":"string"},{"internalType":"string","name":"videoLink_","type":"string"},{"internalType":"uint256","name":"softcap_","type":"uint256"},{"internalType":"uint256","name":"hardcap_","type":"uint256"},{"internalType":"uint256","name":"endTime_","type":"uint256"},{"internalType":"string","name":"name_","type":"string"},{"internalType":"string","name":"symbol_","type":"string"},{"internalType":"address","name":"owner_","type":"address"},{"internalType":"uint256","name":"price_","type":"uint256"},{"internalType":"uint256","name":"decimal_","type":"uint256"},{"internalType":"uint256","name":"totalSupply_","type":"uint256"},{"internalType":"address","name":"tokenAddress_","type":"address"}],"stateMutability":"payable","type":"constructor"},{"inputs":[{"internalType":"address","name":"","type":"address"}],"name":"contributions","outputs":[{"internalType":"uint256","name":"","type":"uint256"}],"stateMutability":"view","type":"function"},{"inputs":[],"name":"creator","outputs":[{"internalType":"address","name":"","type":"address"}],"stateMutability":"view","type":"function"},{"inputs":[],"name":"fundsRaised","outputs":[{"internalType":"uint256","name":"","type":"uint256"}],"stateMutability":"view","type":"function"},{"inputs":[],"name":"getRemainAmount","outputs":[{"internalType":"uint256","name":"","type":"uint256"}],"stateMutability":"view","type":"function"},{"inputs":[],"name":"owner","outputs":[{"internalType":"address","name":"","type":"address"}],"stateMutability":"view","type":"function"},{"inputs":[],"name":"projectInfo","outputs":[{"internalType":"string","name":"title","type":"string"},{"internalType":"string","name":"description","type":"string"},{"internalType":"string","name":"logo","type":"string"},{"internalType":"string","name":"videoLink","type":"string"},{"internalType":"uint256","name":"softcap","type":"uint256"},{"internalType":"uint256","name":"hardcap","type":"uint256"},{"internalType":"uint256","name":"endTime","type":"uint256"},{"internalType":"address","name":"owner","type":"address"}],"stateMutability":"view","type":"function"},{"inputs":[],"name":"token","outputs":[{"internalType":"contract IERC20","name":"","type":"address"}],"stateMutability":"view","type":"function"},{"inputs":[],"name":"tokenInfo","outputs":[{"internalType":"string","name":"name","type":"string"},{"internalType":"string","name":"symbol","type":"string"},{"internalType":"uint256","name":"totalSupply","type":"uint256"},{"internalType":"address","name":"tokenAddress","type":"address"},{"internalType":"uint256","name":"decimal","type":"uint256"},{"internalType":"uint256","name":"price","type":"uint256"}],"stateMutability":"view","type":"function"}],"evm":{"bytecode":{"linkReferences":{},"object":"604060a081526200149780380380620000188162000b4c565b92833981016101c08282031262000b475781516001600160401b03811162000b4757816200004891840162000b72565b60208301519091906001600160401b03811162000b4757816200006d91850162000b72565b838501519091906001600160401b03811162000b4757816200009191860162000b72565b60608501519091906001600160401b03811162000b475781620000b691870162000b72565b9460808101519160a082015160c08301519060e084015160018060401b03811162000b475783620000e991860162000b72565b61010085015190936001600160401b03821162000b47576200010d91860162000b72565b946200011d610120860162000be4565b996101408601519761016087015199620001416101a06101808a0151990162000be4565b8642101562000b04578486111562000ab6576001600160a01b03169b8c1562000a72578051906001600160401b0382116200054f5760015490600182811c9216801562000a67575b60208310146200052e5781601f84931162000a06575b50602090601f83116001146200098c5760009262000980575b50508160011b916000199060031b1c1916176001555b8051906001600160401b0382116200054f5760025490600182811c9216801562000975575b60208310146200052e5781601f84931162000914575b50602090601f831160011462000896576000926200088a575b50508160011b916000199060031b1c1916176002555b8051906001600160401b0382116200054f5760035490600182811c921680156200087f575b60208310146200052e5781601f8493116200080d575b50602090601f83116001146200077e5760009262000772575b50508160011b916000199060031b1c1916176003555b8051906001600160401b0382116200054f5760045490600182811c9216801562000767575b60208310146200052e5781601f849311620006f5575b50602090601f831160011462000666576000926200065a575b50508160011b916000199060031b1c1916176004555b600555600655600755600880546001600160a01b03989098166001600160a01b03199889161790558051906001600160401b0382116200054f5760095490600182811c921680156200064f575b60208310146200052e5781601f849311620005eb575b50602090601f8311600114620005715760009262000565575b50508160011b916000199060031b1c1916176009555b600b558051906001600160401b0382116200054f57600a5490600182811c9216801562000544575b60208310146200052e5781601f849311620004ca575b50602090601f8311600114620004505760009262000444575b50508160011b916000199060031b1c191617600a555b8284600c541617600c55600e55600d55608052339060005416176000555161081d908162000bfa82396080518181816090015260f20152f35b015190503880620003f5565b600a6000908152600080516020620014378339815191529350601f198516905b818110620004b1575090846001959493921062000497575b505050811b01600a556200040b565b015160001960f88460031b161c1916905538808062000488565b9293602060018192878601518155019501930162000470565b600a60005290915060008051602062001437833981519152601f840160051c8101916020851062000523575b90601f859493920160051c01905b818110620005135750620003dc565b6000815584935060010162000504565b9091508190620004f6565b634e487b7160e01b600052602260045260246000fd5b91607f1691620003c6565b634e487b7160e01b600052604160045260246000fd5b01519050388062000388565b60096000908152600080516020620014578339815191529350601f198516905b818110620005d25750908460019594939210620005b8575b505050811b016009556200039e565b015160001960f88460031b161c19169055388080620005a9565b9293602060018192878601518155019501930162000591565b600960005290915060008051602062001457833981519152601f840160051c8101916020851062000644575b90601f859493920160051c01905b8181106200063457506200036f565b6000815584935060010162000625565b909150819062000617565b91607f169162000359565b015190503880620002f6565b6004600090815293507f8a35acfbc15ff81a39ae7d344fd709f28e8600b4aa8c65c6b64bfe7fe36bd19b91905b601f1984168510620006d9576001945083601f19811610620006bf575b505050811b016004556200030c565b015160001960f88460031b161c19169055388080620006b0565b8181015183556020948501946001909301929091019062000693565b60046000529091507f8a35acfbc15ff81a39ae7d344fd709f28e8600b4aa8c65c6b64bfe7fe36bd19b601f840160051c8101602085106200075f575b90849392915b601f830160051c820181106200074f575050620002dd565b6000815585945060010162000737565b508062000731565b91607f1691620002c7565b0151905038806200028c565b6003600090815293507fc2575a0e9e593c00f959f8c92f12db2869c3395a3b0502d05e2516446f71f85b91905b601f1984168510620007f1576001945083601f19811610620007d7575b505050811b01600355620002a2565b015160001960f88460031b161c19169055388080620007c8565b81810151835560209485019460019093019290910190620007ab565b60036000529091507fc2575a0e9e593c00f959f8c92f12db2869c3395a3b0502d05e2516446f71f85b601f840160051c81016020851062000877575b90849392915b601f830160051c820181106200086757505062000273565b600081558594506001016200084f565b508062000849565b91607f16916200025d565b01519050388062000222565b6002600090815293506000805160206200141783398151915291905b601f1984168510620008f8576001945083601f19811610620008de575b505050811b0160025562000238565b015160001960f88460031b161c19169055388080620008cf565b81810151835560209485019460019093019290910190620008b2565b600260005290915060008051602062001417833981519152601f840160051c8101602085106200096d575b90849392915b601f830160051c820181106200095d57505062000209565b6000815585945060010162000945565b50806200093f565b91607f1691620001f3565b015190503880620001b8565b60016000908152600080516020620014778339815191529350601f198516905b818110620009ed5750908460019594939210620009d3575b505050811b01600155620001ce565b015160001960f88460031b161c19169055388080620009c4565b92936020600181928786015181550195019301620009ac565b600160005290915060008051602062001477833981519152601f840160051c81016020851062000a5f575b90849392915b601f830160051c8201811062000a4f5750506200019f565b6000815585945060010162000a37565b508062000a31565b91607f169162000189565b8e5162461bcd60e51b815260206004820152601560248201527f696e76616c696420746f6b656e206164647265737300000000000000000000006044820152606490fd5b8e5162461bcd60e51b815260206004820152602160248201527f496e76616c69642068617264636170202620736f66746361702073657474696e6044820152606760f81b6064820152608490fd5b60648f5162461bcd60e51b815260206004820152602060248201527f456e642074696d652073686f756c6420626520696e20746865206675747572656044820152fd5b600080fd5b6040519190601f01601f191682016001600160401b038111838210176200054f57604052565b919080601f8401121562000b475782516001600160401b0381116200054f5760209062000ba8601f8201601f1916830162000b4c565b9281845282828701011162000b475760005b81811062000bd057508260009394955001015290565b858101830151848201840152820162000bba565b51906001600160a01b038216820362000b475756fe608060408181526004918236101561001657600080fd5b600092833560e01c91826302d05d3f1461074b57508163185b6910146103e457816342e94c90146103aa5781636681b9fd1461038b5781636addb663146101a35781638da5cb5b1461017a578163bcba0121146100c3575063fc0c546a1461007d57600080fd5b346100bf57816003193601126100bf57517f00000000000000000000000000000000000000000000000000000000000000006001600160a01b03168152602090f35b5080fd5b9190503461016457826003193601126101645780516370a0823160e01b815230928101929092526020826024817f00000000000000000000000000000000000000000000000000000000000000006001600160a01b03165afa918215610170578392610134575b6020838351908152f35b9091506020813d602011610168575b816101506020938361076f565b81010312610164576020925051903861012a565b8280fd5b3d9150610143565b81513d85823e3d90fd5b5050346100bf57816003193601126100bf5760085490516001600160a01b039091168152602090f35b8383346100bf57816003193601126100bf57805191806009549460019286841c848816978815610381575b602098898310811461036e5791899391899382855290816000146103505750600114610313575b506102029250038661076f565b83519282600a5480831c93838216908115610309575b8a861082146102f657508487529081156102d45750600114610299575b505050936102488261027596038361076f565b600b5460018060a01b03600c541690610282600d5493600e54958751998a9960c08b5260c08b01906107a7565b91898303908a01526107a7565b948601526060850152608084015260a08301520390f35b969250600a87528287205b8288106102c1575050506102488282610275978201019296610235565b80548589018501529683019681016102a4565b60ff1916868a0152505050151560051b82018501905061024882610275610235565b634e487b7160e01b845260229052602483fd5b94607f1694610218565b6009865283862086925087905b82841061033957505050916102029282010188926101f5565b80548b85018701528a945092850192889101610320565b60ff19168486015250899390151560051b83010190506102026101f5565b634e487b7160e01b865260228552602486fd5b90607f16906101ce565b5050346100bf57816003193601126100bf57602090600f549051908152f35b90503461016457602036600319011261016457356001600160a01b0381169081900361016457828291602094526010845220549051908152f35b8383346100bf57816003193601126100bf578051918060019485549182871c90878416938415610741575b602094858410811461072e57838952889291869082156107115750506001146106d4575b61043f9250038661076f565b835192806002549081891c9189811680156106ca575b86841081146106b7578388528792918790821561069a57505060011461065c575b6104829250038561076f565b8451918160035490818a1c918a81168015610652575b878410811461036e57838752869291889082156106355750506001146105f7575b6104c59250038461076f565b8551978282549283831c9383811680156105ed575b88861081146105da57858d529081156105b6575060011461057f575b505050508661050d61053f9861056693038261076f565b610558600554966006549461054b6007549760018060a01b0360085416998451809e819e6101008084528301906107a7565b928184039101526107a7565b918a8303908b01526107a7565b9087820360608901526107a7565b93608086015260a085015260c084015260e08301520390f35b90809450528483205b8284106105a357505050860182018661050d816105666104f6565b8054848b01870152928501928101610588565b60ff1916888d015250505050151560051b8701830190508661050d816105666104f6565b634e487b7160e01b845260228352602484fd5b94607f16946104da565b50506003835283858085208b86915b85831061061c5750506104c593508201016104b9565b80919294505483858a01015201910186908b8793610606565b60ff1916848201526104c594151560051b84010191506104b99050565b92607f1692610498565b50506002825284848084208a85915b8583106106815750506104829350820101610476565b80919294505483858b01015201910185908a889361066b565b60ff19168482015261048294151560051b84010191506104769050565b634e487b7160e01b855260228652602485fd5b92607f1692610455565b505086845285838086208987915b8583106106f857505061043f9350820101610433565b80919294505483858c01015201910184908989936106e2565b60ff19168482015261043f94151560051b84010191506104339050565b634e487b7160e01b875260228552602487fd5b91607f169161040f565b8490346100bf57816003193601126100bf5790546001600160a01b03168152602090f35b90601f8019910116810190811067ffffffffffffffff82111761079157604052565b634e487b7160e01b600052604160045260246000fd5b919082519283825260005b8481106107d3575050826000602080949584010152601f8019910116010190565b6020818301810151848301820152016107b256fea26469706673582212200b07e87c7a5161877c466aafabfc61ff4562e3c1f3a5907618f481279161b71164736f6c63430008180033405787fa12a823e0f2b7631cc41b3ba8828b3321ca811111fa75cd3aa3bb5acec65a7bb8d6351c1cf70c95a316cc6a92839c986682d98bc35f958f4883f9d2a86e1540171b6c0c960b71a7020d9f60077f6af931a8bbf590da0223dacf75c7afb10e2d527612073b26eecdfd717e6a320cf44b4afac2b0732d9fcbe2b7fa0cf6","opcodes":"PUSH1 0x40 PUSH1 0xA0 DUP2 MSTORE PUSH3 0x1497 DUP1 CODESIZE SUB DUP1 PUSH3 0x18 DUP2 PUSH3 0xB4C JUMP JUMPDEST SWAP3 DUP4 CODECOPY DUP2 ADD PUSH2 0x1C0 DUP3 DUP3 SUB SLT PUSH3 0xB47 JUMPI DUP2 MLOAD PUSH1 0x1 PUSH1 0x1 PUSH1 0x40 SHL SUB DUP2 GT PUSH3 0xB47 JUMPI DUP2 PUSH3 0x48 SWAP2 DUP5 ADD PUSH3 0xB72 JUMP JUMPDEST PUSH1 0x20 DUP4 ADD MLOAD SWAP1 SWAP2 SWAP1 PUSH1 0x1 PUSH1 0x1 PUSH1 0x40 SHL SUB DUP2 GT PUSH3 0xB47 JUMPI DUP2 PUSH3 0x6D SWAP2 DUP6 ADD PUSH3 0xB72 JUMP JUMPDEST DUP4 DUP6 ADD MLOAD SWAP1 SWAP2 SWAP1 PUSH1 0x1 PUSH1 0x1 PUSH1 0x40 SHL SUB DUP2 GT PUSH3 0xB47 JUMPI DUP2 PUSH3 0x91 SWAP2 DUP7 ADD PUSH3 0xB72 JUMP JUMPDEST PUSH1 0x60 DUP6 ADD MLOAD SWAP1 SWAP2 SWAP1 PUSH1 0x1 PUSH1 0x1 PUSH1 0x40 SHL SUB DUP2 GT PUSH3 0xB47 JUMPI DUP2 PUSH3 0xB6 SWAP2 DUP8 ADD PUSH3 0xB72 JUMP JUMPDEST SWAP5 PUSH1 0x80 DUP2 ADD MLOAD SWAP2 PUSH1 0xA0 DUP3 ADD MLOAD PUSH1 0xC0 DUP4 ADD MLOAD SWAP1 PUSH1 0xE0 DUP5 ADD MLOAD PUSH1 0x1 DUP1 PUSH1 0x40 SHL SUB DUP2 GT PUSH3 0xB47 JUMPI DUP4 PUSH3 0xE9 SWAP2 DUP7 ADD PUSH3 0xB72 JUMP JUMPDEST PUSH2 0x100 DUP6 ADD MLOAD SWAP1 SWAP4 PUSH1 0x1 PUSH1 0x1 PUSH1 0x40 SHL SUB DUP3 GT PUSH3 0xB47 JUMPI PUSH3 0x10D SWAP2 DUP7 ADD PUSH3 0xB72 JUMP JUMPDEST SWAP5 PUSH3 0x11D PUSH2 0x120 DUP7 ADD PUSH3 0xBE4 JUMP JUMPDEST SWAP10 PUSH2 0x140 DUP7 ADD MLOAD SWAP8 PUSH2 0x160 DUP8 ADD MLOAD SWAP10 PUSH3 0x141 PUSH2 0x1A0 PUSH2 0x180 DUP11 ADD MLOAD SWAP10 ADD PUSH3 0xBE4 JUMP JUMPDEST DUP7 TIMESTAMP LT ISZERO PUSH3 0xB04 JUMPI DUP5 DUP7 GT ISZERO PUSH3 0xAB6 JUMPI PUSH1 0x1 PUSH1 0x1 PUSH1 0xA0 SHL SUB AND SWAP12 DUP13 ISZERO PUSH3 0xA72 JUMPI DUP1 MLOAD SWAP1 PUSH1 0x1 PUSH1 0x1 PUSH1 0x40 SHL SUB DUP3 GT PUSH3 0x54F JUMPI PUSH1 0x1 SLOAD SWAP1 PUSH1 0x1 DUP3 DUP2 SHR SWAP3 AND DUP1 ISZERO PUSH3 0xA67 JUMPI JUMPDEST PUSH1 0x20 DUP4 LT EQ PUSH3 0x52E JUMPI DUP2 PUSH1 0x1F DUP5 SWAP4 GT PUSH3 0xA06 JUMPI JUMPDEST POP PUSH1 0x20 SWAP1 PUSH1 0x1F DUP4 GT PUSH1 0x1 EQ PUSH3 0x98C JUMPI PUSH1 0x0 SWAP3 PUSH3 0x980 JUMPI JUMPDEST POP POP DUP2 PUSH1 0x1 SHL SWAP2 PUSH1 0x0 NOT SWAP1 PUSH1 0x3 SHL SHR NOT AND OR PUSH1 0x1 SSTORE JUMPDEST DUP1 MLOAD SWAP1 PUSH1 0x1 PUSH1 0x1 PUSH1 0x40 SHL SUB DUP3 GT PUSH3 0x54F JUMPI PUSH1 0x2 SLOAD SWAP1 PUSH1 0x1 DUP3 DUP2 SHR SWAP3 AND DUP1 ISZERO PUSH3 0x975 JUMPI JUMPDEST PUSH1 0x20 DUP4 LT EQ PUSH3 0x52E JUMPI DUP2 PUSH1 0x1F DUP5 SWAP4 GT PUSH3 0x914 JUMPI JUMPDEST POP PUSH1 0x20 SWAP1 PUSH1 0x1F DUP4 GT PUSH1 0x1 EQ PUSH3 0x896 JUMPI PUSH1 0x0 SWAP3 PUSH3 0x88A JUMPI JUMPDEST POP POP DUP2 PUSH1 0x1 SHL SWAP2 PUSH1 0x0 NOT SWAP1 PUSH1 0x3 SHL SHR NOT AND OR PUSH1 0x2 SSTORE JUMPDEST DUP1 MLOAD SWAP1 PUSH1 0x1 PUSH1 0x1 PUSH1 0x40 SHL SUB DUP3 GT PUSH3 0x54F JUMPI PUSH1 0x3 SLOAD SWAP1 PUSH1 0x1 DUP3 DUP2 SHR SWAP3 AND DUP1 ISZERO PUSH3 0x87F JUMPI JUMPDEST PUSH1 0x20 DUP4 LT EQ PUSH3 0x52E JUMPI DUP2 PUSH1 0x1F DUP5 SWAP4 GT PUSH3 0x80D JUMPI JUMPDEST POP PUSH1 0x20 SWAP1 PUSH1 0x1F DUP4 GT PUSH1 0x1 EQ PUSH3 0x77E JUMPI PUSH1 0x0 SWAP3 PUSH3 0x772 JUMPI JUMPDEST POP POP DUP2 PUSH1 0x1 SHL SWAP2 PUSH1 0x0 NOT SWAP1 PUSH1 0x3 SHL SHR NOT AND OR PUSH1 0x3 SSTORE JUMPDEST DUP1 MLOAD SWAP1 PUSH1 0x1 PUSH1 0x1 PUSH1 0x40 SHL SUB DUP3 GT PUSH3 0x54F JUMPI PUSH1 0x4 SLOAD SWAP1 PUSH1 0x1 DUP3 DUP2 SHR SWAP3 AND DUP1 ISZERO PUSH3 0x767 JUMPI JUMPDEST PUSH1 0x20 DUP4 LT EQ PUSH3 0x52E JUMPI DUP2 PUSH1 0x1F DUP5 SWAP4 GT PUSH3 0x6F5 JUMPI JUMPDEST POP PUSH1 0x20 SWAP1 PUSH1 0x1F DUP4 GT PUSH1 0x1 EQ PUSH3 0x666 JUMPI PUSH1 0x0 SWAP3 PUSH3 0x65A JUMPI JUMPDEST POP POP DUP2 PUSH1 0x1 SHL SWAP2 PUSH1 0x0 NOT SWAP1 PUSH1 0x3 SHL SHR NOT AND OR PUSH1 0x4 SSTORE JUMPDEST PUSH1 0x5 SSTORE PUSH1 0x6 SSTORE PUSH1 0x7 SSTORE PUSH1 0x8 DUP1 SLOAD PUSH1 0x1 PUSH1 0x1 PUSH1 0xA0 SHL SUB SWAP9 SWAP1 SWAP9 AND PUSH1 0x1 PUSH1 0x1 PUSH1 0xA0 SHL SUB NOT SWAP9 DUP10 AND OR SWAP1 SSTORE DUP1 MLOAD SWAP1 PUSH1 0x1 PUSH1 0x1 PUSH1 0x40 SHL SUB DUP3 GT PUSH3 0x54F JUMPI PUSH1 0x9 SLOAD SWAP1 PUSH1 0x1 DUP3 DUP2 SHR SWAP3 AND DUP1 ISZERO PUSH3 0x64F JUMPI JUMPDEST PUSH1 0x20 DUP4 LT EQ PUSH3 0x52E JUMPI DUP2 PUSH1 0x1F DUP5 SWAP4 GT PUSH3 0x5EB JUMPI JUMPDEST POP PUSH1 0x20 SWAP1 PUSH1 0x1F DUP4 GT PUSH1 0x1 EQ PUSH3 0x571 JUMPI PUSH1 0x0 SWAP3 PUSH3 0x565 JUMPI JUMPDEST POP POP DUP2 PUSH1 0x1 SHL SWAP2 PUSH1 0x0 NOT SWAP1 PUSH1 0x3 SHL SHR NOT AND OR PUSH1 0x9 SSTORE JUMPDEST PUSH1 0xB SSTORE DUP1 MLOAD SWAP1 PUSH1 0x1 PUSH1 0x1 PUSH1 0x40 SHL SUB DUP3 GT PUSH3 0x54F JUMPI PUSH1 0xA SLOAD SWAP1 PUSH1 0x1 DUP3 DUP2 SHR SWAP3 AND DUP1 ISZERO PUSH3 0x544 JUMPI JUMPDEST PUSH1 0x20 DUP4 LT EQ PUSH3 0x52E JUMPI DUP2 PUSH1 0x1F DUP5 SWAP4 GT PUSH3 0x4CA JUMPI JUMPDEST POP PUSH1 0x20 SWAP1 PUSH1 0x1F DUP4 GT PUSH1 0x1 EQ PUSH3 0x450 JUMPI PUSH1 0x0 SWAP3 PUSH3 0x444 JUMPI JUMPDEST POP POP DUP2 PUSH1 0x1 SHL SWAP2 PUSH1 0x0 NOT SWAP1 PUSH1 0x3 SHL SHR NOT AND OR PUSH1 0xA SSTORE JUMPDEST DUP3 DUP5 PUSH1 0xC SLOAD AND OR PUSH1 0xC SSTORE PUSH1 0xE SSTORE PUSH1 0xD SSTORE PUSH1 0x80 MSTORE CALLER SWAP1 PUSH1 0x0 SLOAD AND OR PUSH1 0x0 SSTORE MLOAD PUSH2 0x81D SWAP1 DUP2 PUSH3 0xBFA DUP3 CODECOPY PUSH1 0x80 MLOAD DUP2 DUP2 DUP2 PUSH1 0x90 ADD MSTORE PUSH1 0xF2 ADD MSTORE RETURN JUMPDEST ADD MLOAD SWAP1 POP CODESIZE DUP1 PUSH3 0x3F5 JUMP JUMPDEST PUSH1 0xA PUSH1 0x0 SWAP1 DUP2 MSTORE PUSH1 0x0 DUP1 MLOAD PUSH1 0x20 PUSH3 0x1437 DUP4 CODECOPY DUP2 MLOAD SWAP2 MSTORE SWAP4 POP PUSH1 0x1F NOT DUP6 AND SWAP1 JUMPDEST DUP2 DUP2 LT PUSH3 0x4B1 JUMPI POP SWAP1 DUP5 PUSH1 0x1 SWAP6 SWAP5 SWAP4 SWAP3 LT PUSH3 0x497 JUMPI JUMPDEST POP POP POP DUP2 SHL ADD PUSH1 0xA SSTORE PUSH3 0x40B JUMP JUMPDEST ADD MLOAD PUSH1 0x0 NOT PUSH1 0xF8 DUP5 PUSH1 0x3 SHL AND SHR NOT AND SWAP1 SSTORE CODESIZE DUP1 DUP1 PUSH3 0x488 JUMP JUMPDEST SWAP3 SWAP4 PUSH1 0x20 PUSH1 0x1 DUP2 SWAP3 DUP8 DUP7 ADD MLOAD DUP2 SSTORE ADD SWAP6 ADD SWAP4 ADD PUSH3 0x470 JUMP JUMPDEST PUSH1 0xA PUSH1 0x0 MSTORE SWAP1 SWAP2 POP PUSH1 0x0 DUP1 MLOAD PUSH1 0x20 PUSH3 0x1437 DUP4 CODECOPY DUP2 MLOAD SWAP2 MSTORE PUSH1 0x1F DUP5 ADD PUSH1 0x5 SHR DUP2 ADD SWAP2 PUSH1 0x20 DUP6 LT PUSH3 0x523 JUMPI JUMPDEST SWAP1 PUSH1 0x1F DUP6 SWAP5 SWAP4 SWAP3 ADD PUSH1 0x5 SHR ADD SWAP1 JUMPDEST DUP2 DUP2 LT PUSH3 0x513 JUMPI POP PUSH3 0x3DC JUMP JUMPDEST PUSH1 0x0 DUP2 SSTORE DUP5 SWAP4 POP PUSH1 0x1 ADD PUSH3 0x504 JUMP JUMPDEST SWAP1 SWAP2 POP DUP2 SWAP1 PUSH3 0x4F6 JUMP JUMPDEST PUSH4 0x4E487B71 PUSH1 0xE0 SHL PUSH1 0x0 MSTORE PUSH1 0x22 PUSH1 0x4 MSTORE PUSH1 0x24 PUSH1 0x0 REVERT JUMPDEST SWAP2 PUSH1 0x7F AND SWAP2 PUSH3 0x3C6 JUMP JUMPDEST PUSH4 0x4E487B71 PUSH1 0xE0 SHL PUSH1 0x0 MSTORE PUSH1 0x41 PUSH1 0x4 MSTORE PUSH1 0x24 PUSH1 0x0 REVERT JUMPDEST ADD MLOAD SWAP1 POP CODESIZE DUP1 PUSH3 0x388 JUMP JUMPDEST PUSH1 0x9 PUSH1 0x0 SWAP1 DUP2 MSTORE PUSH1 0x0 DUP1 MLOAD PUSH1 0x20 PUSH3 0x1457 DUP4 CODECOPY DUP2 MLOAD SWAP2 MSTORE SWAP4 POP PUSH1 0x1F NOT DUP6 AND SWAP1 JUMPDEST DUP2 DUP2 LT PUSH3 0x5D2 JUMPI POP SWAP1 DUP5 PUSH1 0x1 SWAP6 SWAP5 SWAP4 SWAP3 LT PUSH3 0x5B8 JUMPI JUMPDEST POP POP POP DUP2 SHL ADD PUSH1 0x9 SSTORE PUSH3 0x39E JUMP JUMPDEST ADD MLOAD PUSH1 0x0 NOT PUSH1 0xF8 DUP5 PUSH1 0x3 SHL AND SHR NOT AND SWAP1 SSTORE CODESIZE DUP1 DUP1 PUSH3 0x5A9 JUMP JUMPDEST SWAP3 SWAP4 PUSH1 0x20 PUSH1 0x1 DUP2 SWAP3 DUP8 DUP7 ADD MLOAD DUP2 SSTORE ADD SWAP6 ADD SWAP4 ADD PUSH3 0x591 JUMP JUMPDEST PUSH1 0x9 PUSH1 0x0 MSTORE SWAP1 SWAP2 POP PUSH1 0x0 DUP1 MLOAD PUSH1 0x20 PUSH3 0x1457 DUP4 CODECOPY DUP2 MLOAD SWAP2 MSTORE PUSH1 0x1F DUP5 ADD PUSH1 0x5 SHR DUP2 ADD SWAP2 PUSH1 0x20 DUP6 LT PUSH3 0x644 JUMPI JUMPDEST SWAP1 PUSH1 0x1F DUP6 SWAP5 SWAP4 SWAP3 ADD PUSH1 0x5 SHR ADD SWAP1 JUMPDEST DUP2 DUP2 LT PUSH3 0x634 JUMPI POP PUSH3 0x36F JUMP JUMPDEST PUSH1 0x0 DUP2 SSTORE DUP5 SWAP4 POP PUSH1 0x1 ADD PUSH3 0x625 JUMP JUMPDEST SWAP1 SWAP2 POP DUP2 SWAP1 PUSH3 0x617 JUMP JUMPDEST SWAP2 PUSH1 0x7F AND SWAP2 PUSH3 0x359 JUMP JUMPDEST ADD MLOAD SWAP1 POP CODESIZE DUP1 PUSH3 0x2F6 JUMP JUMPDEST PUSH1 0x4 PUSH1 0x0 SWAP1 DUP2 MSTORE SWAP4 POP PUSH32 0x8A35ACFBC15FF81A39AE7D344FD709F28E8600B4AA8C65C6B64BFE7FE36BD19B SWAP2 SWAP1 JUMPDEST PUSH1 0x1F NOT DUP5 AND DUP6 LT PUSH3 0x6D9 JUMPI PUSH1 0x1 SWAP5 POP DUP4 PUSH1 0x1F NOT DUP2 AND LT PUSH3 0x6BF JUMPI JUMPDEST POP POP POP DUP2 SHL ADD PUSH1 0x4 SSTORE PUSH3 0x30C JUMP JUMPDEST ADD MLOAD PUSH1 0x0 NOT PUSH1 0xF8 DUP5 PUSH1 0x3 SHL AND SHR NOT AND SWAP1 SSTORE CODESIZE DUP1 DUP1 PUSH3 0x6B0 JUMP JUMPDEST DUP2 DUP2 ADD MLOAD DUP4 SSTORE PUSH1 0x20 SWAP5 DUP6 ADD SWAP5 PUSH1 0x1 SWAP1 SWAP4 ADD SWAP3 SWAP1 SWAP2 ADD SWAP1 PUSH3 0x693 JUMP JUMPDEST PUSH1 0x4 PUSH1 0x0 MSTORE SWAP1 SWAP2 POP PUSH32 0x8A35ACFBC15FF81A39AE7D344FD709F28E8600B4AA8C65C6B64BFE7FE36BD19B PUSH1 0x1F DUP5 ADD PUSH1 0x5 SHR DUP2 ADD PUSH1 0x20 DUP6 LT PUSH3 0x75F JUMPI JUMPDEST SWAP1 DUP5 SWAP4 SWAP3 SWAP2 JUMPDEST PUSH1 0x1F DUP4 ADD PUSH1 0x5 SHR DUP3 ADD DUP2 LT PUSH3 0x74F JUMPI POP POP PUSH3 0x2DD JUMP JUMPDEST PUSH1 0x0 DUP2 SSTORE DUP6 SWAP5 POP PUSH1 0x1 ADD PUSH3 0x737 JUMP JUMPDEST POP DUP1 PUSH3 0x731 JUMP JUMPDEST SWAP2 PUSH1 0x7F AND SWAP2 PUSH3 0x2C7 JUMP JUMPDEST ADD MLOAD SWAP1 POP CODESIZE DUP1 PUSH3 0x28C JUMP JUMPDEST PUSH1 0x3 PUSH1 0x0 SWAP1 DUP2 MSTORE SWAP4 POP PUSH32 0xC2575A0E9E593C00F959F8C92F12DB2869C3395A3B0502D05E2516446F71F85B SWAP2 SWAP1 JUMPDEST PUSH1 0x1F NOT DUP5 AND DUP6 LT PUSH3 0x7F1 JUMPI PUSH1 0x1 SWAP5 POP DUP4 PUSH1 0x1F NOT DUP2 AND LT PUSH3 0x7D7 JUMPI JUMPDEST POP POP POP DUP2 SHL ADD PUSH1 0x3 SSTORE PUSH3 0x2A2 JUMP JUMPDEST ADD MLOAD PUSH1 0x0 NOT PUSH1 0xF8 DUP5 PUSH1 0x3 SHL AND SHR NOT AND SWAP1 SSTORE CODESIZE DUP1 DUP1 PUSH3 0x7C8 JUMP JUMPDEST DUP2 DUP2 ADD MLOAD DUP4 SSTORE PUSH1 0x20 SWAP5 DUP6 ADD SWAP5 PUSH1 0x1 SWAP1 SWAP4 ADD SWAP3 SWAP1 SWAP2 ADD SWAP1 PUSH3 0x7AB JUMP JUMPDEST PUSH1 0x3 PUSH1 0x0 MSTORE SWAP1 SWAP2 POP PUSH32 0xC2575A0E9E593C00F959F8C92F12DB2869C3395A3B0502D05E2516446F71F85B PUSH1 0x1F DUP5 ADD PUSH1 0x5 SHR DUP2 ADD PUSH1 0x20 DUP6 LT PUSH3 0x877 JUMPI JUMPDEST SWAP1 DUP5 SWAP4 SWAP3 SWAP2 JUMPDEST PUSH1 0x1F DUP4 ADD PUSH1 0x5 SHR DUP3 ADD DUP2 LT PUSH3 0x867 JUMPI POP POP PUSH3 0x273 JUMP JUMPDEST PUSH1 0x0 DUP2 SSTORE DUP6 SWAP5 POP PUSH1 0x1 ADD PUSH3 0x84F JUMP JUMPDEST POP DUP1 PUSH3 0x849 JUMP JUMPDEST SWAP2 PUSH1 0x7F AND SWAP2 PUSH3 0x25D JUMP JUMPDEST ADD MLOAD SWAP1 POP CODESIZE DUP1 PUSH3 0x222 JUMP JUMPDEST PUSH1 0x2 PUSH1 0x0 SWAP1 DUP2 MSTORE SWAP4 POP PUSH1 0x0 DUP1 MLOAD PUSH1 0x20 PUSH3 0x1417 DUP4 CODECOPY DUP2 MLOAD SWAP2 MSTORE SWAP2 SWAP1 JUMPDEST PUSH1 0x1F NOT DUP5 AND DUP6 LT PUSH3 0x8F8 JUMPI PUSH1 0x1 SWAP5 POP DUP4 PUSH1 0x1F NOT DUP2 AND LT PUSH3 0x8DE JUMPI JUMPDEST POP POP POP DUP2 SHL ADD PUSH1 0x2 SSTORE PUSH3 0x238 JUMP JUMPDEST ADD MLOAD PUSH1 0x0 NOT PUSH1 0xF8 DUP5 PUSH1 0x3 SHL AND SHR NOT AND SWAP1 SSTORE CODESIZE DUP1 DUP1 PUSH3 0x8CF JUMP JUMPDEST DUP2 DUP2 ADD MLOAD DUP4 SSTORE PUSH1 0x20 SWAP5 DUP6 ADD SWAP5 PUSH1 0x1 SWAP1 SWAP4 ADD SWAP3 SWAP1 SWAP2 ADD SWAP1 PUSH3 0x8B2 JUMP JUMPDEST PUSH1 0x2 PUSH1 0x0 MSTORE SWAP1 SWAP2 POP PUSH1 0x0 DUP1 MLOAD PUSH1 0x20 PUSH3 0x1417 DUP4 CODECOPY DUP2 MLOAD SWAP2 MSTORE PUSH1 0x1F DUP5 ADD PUSH1 0x5 SHR DUP2 ADD PUSH1 0x20 DUP6 LT PUSH3 0x96D JUMPI JUMPDEST SWAP1 DUP5 SWAP4 SWAP3 SWAP2 JUMPDEST PUSH1 0x1F DUP4 ADD PUSH1 0x5 SHR DUP3 ADD DUP2 LT PUSH3 0x95D JUMPI POP POP PUSH3 0x209 JUMP JUMPDEST PUSH1 0x0 DUP2 SSTORE DUP6 SWAP5 POP PUSH1 0x1 ADD PUSH3 0x945 JUMP JUMPDEST POP DUP1 PUSH3 0x93F JUMP JUMPDEST SWAP2 PUSH1 0x7F AND SWAP2 PUSH3 0x1F3 JUMP JUMPDEST ADD MLOAD SWAP1 POP CODESIZE DUP1 PUSH3 0x1B8 JUMP JUMPDEST PUSH1 0x1 PUSH1 0x0 SWAP1 DUP2 MSTORE PUSH1 0x0 DUP1 MLOAD PUSH1 0x20 PUSH3 0x1477 DUP4 CODECOPY DUP2 MLOAD SWAP2 MSTORE SWAP4 POP PUSH1 0x1F NOT DUP6 AND SWAP1 JUMPDEST DUP2 DUP2 LT PUSH3 0x9ED JUMPI POP SWAP1 DUP5 PUSH1 0x1 SWAP6 SWAP5 SWAP4 SWAP3 LT PUSH3 0x9D3 JUMPI JUMPDEST POP POP POP DUP2 SHL ADD PUSH1 0x1 SSTORE PUSH3 0x1CE JUMP JUMPDEST ADD MLOAD PUSH1 0x0 NOT PUSH1 0xF8 DUP5 PUSH1 0x3 SHL AND SHR NOT AND SWAP1 SSTORE CODESIZE DUP1 DUP1 PUSH3 0x9C4 JUMP JUMPDEST SWAP3 SWAP4 PUSH1 0x20 PUSH1 0x1 DUP2 SWAP3 DUP8 DUP7 ADD MLOAD DUP2 SSTORE ADD SWAP6 ADD SWAP4 ADD PUSH3 0x9AC JUMP JUMPDEST PUSH1 0x1 PUSH1 0x0 MSTORE SWAP1 SWAP2 POP PUSH1 0x0 DUP1 MLOAD PUSH1 0x20 PUSH3 0x1477 DUP4 CODECOPY DUP2 MLOAD SWAP2 MSTORE PUSH1 0x1F DUP5 ADD PUSH1 0x5 SHR DUP2 ADD PUSH1 0x20 DUP6 LT PUSH3 0xA5F JUMPI JUMPDEST SWAP1 DUP5 SWAP4 SWAP3 SWAP2 JUMPDEST PUSH1 0x1F DUP4 ADD PUSH1 0x5 SHR DUP3 ADD DUP2 LT PUSH3 0xA4F JUMPI POP POP PUSH3 0x19F JUMP JUMPDEST PUSH1 0x0 DUP2 SSTORE DUP6 SWAP5 POP PUSH1 0x1 ADD PUSH3 0xA37 JUMP JUMPDEST POP DUP1 PUSH3 0xA31 JUMP JUMPDEST SWAP2 PUSH1 0x7F AND SWAP2 PUSH3 0x189 JUMP JUMPDEST DUP15 MLOAD PUSH3 0x461BCD PUSH1 0xE5 SHL DUP2 MSTORE PUSH1 0x20 PUSH1 0x4 DUP3 ADD MSTORE PUSH1 0x15 PUSH1 0x24 DUP3 ADD MSTORE PUSH32 0x696E76616C696420746F6B656E20616464726573730000000000000000000000 PUSH1 0x44 DUP3 ADD MSTORE PUSH1 0x64 SWAP1 REVERT JUMPDEST DUP15 MLOAD PUSH3 0x461BCD PUSH1 0xE5 SHL DUP2 MSTORE PUSH1 0x20 PUSH1 0x4 DUP3 ADD MSTORE PUSH1 0x21 PUSH1 0x24 DUP3 ADD MSTORE PUSH32 0x496E76616C69642068617264636170202620736F66746361702073657474696E PUSH1 0x44 DUP3 ADD MSTORE PUSH1 0x67 PUSH1 0xF8 SHL PUSH1 0x64 DUP3 ADD MSTORE PUSH1 0x84 SWAP1 REVERT JUMPDEST PUSH1 0x64 DUP16 MLOAD PUSH3 0x461BCD PUSH1 0xE5 SHL DUP2 MSTORE PUSH1 0x20 PUSH1 0x4 DUP3 ADD MSTORE PUSH1 0x20 PUSH1 0x24 DUP3 ADD MSTORE PUSH32 0x456E642074696D652073686F756C6420626520696E2074686520667574757265 PUSH1 0x44 DUP3 ADD MSTORE REVERT JUMPDEST PUSH1 0x0 DUP1 REVERT JUMPDEST PUSH1 0x40 MLOAD SWAP2 SWAP1 PUSH1 0x1F ADD PUSH1 0x1F NOT AND DUP3 ADD PUSH1 0x1 PUSH1 0x1 PUSH1 0x40 SHL SUB DUP2 GT DUP4 DUP3 LT OR PUSH3 0x54F JUMPI PUSH1 0x40 MSTORE JUMP JUMPDEST SWAP2 SWAP1 DUP1 PUSH1 0x1F DUP5 ADD SLT ISZERO PUSH3 0xB47 JUMPI DUP3 MLOAD PUSH1 0x1 PUSH1 0x1 PUSH1 0x40 SHL SUB DUP2 GT PUSH3 0x54F JUMPI PUSH1 0x20 SWAP1 PUSH3 0xBA8 PUSH1 0x1F DUP3 ADD PUSH1 0x1F NOT AND DUP4 ADD PUSH3 0xB4C JUMP JUMPDEST SWAP3 DUP2 DUP5 MSTORE DUP3 DUP3 DUP8 ADD ADD GT PUSH3 0xB47 JUMPI PUSH1 0x0 JUMPDEST DUP2 DUP2 LT PUSH3 0xBD0 JUMPI POP DUP3 PUSH1 0x0 SWAP4 SWAP5 SWAP6 POP ADD ADD MSTORE SWAP1 JUMP JUMPDEST DUP6 DUP2 ADD DUP4 ADD MLOAD DUP5 DUP3 ADD DUP5 ADD MSTORE DUP3 ADD PUSH3 0xBBA JUMP JUMPDEST MLOAD SWAP1 PUSH1 0x1 PUSH1 0x1 PUSH1 0xA0 SHL SUB DUP3 AND DUP3 SUB PUSH3 0xB47 JUMPI JUMP INVALID PUSH1 0x80 PUSH1 0x40 DUP2 DUP2 MSTORE PUSH1 0x4 SWAP2 DUP3 CALLDATASIZE LT ISZERO PUSH2 0x16 JUMPI PUSH1 0x0 DUP1 REVERT JUMPDEST PUSH1 0x0 SWAP3 DUP4 CALLDATALOAD PUSH1 0xE0 SHR SWAP2 DUP3 PUSH4 0x2D05D3F EQ PUSH2 0x74B JUMPI POP DUP2 PUSH4 0x185B6910 EQ PUSH2 0x3E4 JUMPI DUP2 PUSH4 0x42E94C90 EQ PUSH2 0x3AA JUMPI DUP2 PUSH4 0x6681B9FD EQ PUSH2 0x38B JUMPI DUP2 PUSH4 0x6ADDB663 EQ PUSH2 0x1A3 JUMPI DUP2 PUSH4 0x8DA5CB5B EQ PUSH2 0x17A JUMPI DUP2 PUSH4 0xBCBA0121 EQ PUSH2 0xC3 JUMPI POP PUSH4 0xFC0C546A EQ PUSH2 0x7D JUMPI PUSH1 0x0 DUP1 REVERT JUMPDEST CALLVALUE PUSH2 0xBF JUMPI DUP2 PUSH1 0x3 NOT CALLDATASIZE ADD SLT PUSH2 0xBF JUMPI MLOAD PUSH32 0x0 PUSH1 0x1 PUSH1 0x1 PUSH1 0xA0 SHL SUB AND DUP2 MSTORE PUSH1 0x20 SWAP1 RETURN JUMPDEST POP DUP1 REVERT JUMPDEST SWAP2 SWAP1 POP CALLVALUE PUSH2 0x164 JUMPI DUP3 PUSH1 0x3 NOT CALLDATASIZE ADD SLT PUSH2 0x164 JUMPI DUP1 MLOAD PUSH4 0x70A08231 PUSH1 0xE0 SHL DUP2 MSTORE ADDRESS SWAP3 DUP2 ADD SWAP3 SWAP1 SWAP3 MSTORE PUSH1 0x20 DUP3 PUSH1 0x24 DUP2 PUSH32 0x0 PUSH1 0x1 PUSH1 0x1 PUSH1 0xA0 SHL SUB AND GAS STATICCALL SWAP2 DUP3 ISZERO PUSH2 0x170 JUMPI DUP4 SWAP3 PUSH2 0x134 JUMPI JUMPDEST PUSH1 0x20 DUP4 DUP4 MLOAD SWAP1 DUP2 MSTORE RETURN JUMPDEST SWAP1 SWAP2 POP PUSH1 0x20 DUP2 RETURNDATASIZE PUSH1 0x20 GT PUSH2 0x168 JUMPI JUMPDEST DUP2 PUSH2 0x150 PUSH1 0x20 SWAP4 DUP4 PUSH2 0x76F JUMP JUMPDEST DUP2 ADD SUB SLT PUSH2 0x164 JUMPI PUSH1 0x20 SWAP3 POP MLOAD SWAP1 CODESIZE PUSH2 0x12A JUMP JUMPDEST DUP3 DUP1 REVERT JUMPDEST RETURNDATASIZE SWAP2 POP PUSH2 0x143 JUMP JUMPDEST DUP2 MLOAD RETURNDATASIZE DUP6 DUP3 RETURNDATACOPY RETURNDATASIZE SWAP1 REVERT JUMPDEST POP POP CALLVALUE PUSH2 0xBF JUMPI DUP2 PUSH1 0x3 NOT CALLDATASIZE ADD SLT PUSH2 0xBF JUMPI PUSH1 0x8 SLOAD SWAP1 MLOAD PUSH1 0x1 PUSH1 0x1 PUSH1 0xA0 SHL SUB SWAP1 SWAP2 AND DUP2 MSTORE PUSH1 0x20 SWAP1 RETURN JUMPDEST DUP4 DUP4 CALLVALUE PUSH2 0xBF JUMPI DUP2 PUSH1 0x3 NOT CALLDATASIZE ADD SLT PUSH2 0xBF JUMPI DUP1 MLOAD SWAP2 DUP1 PUSH1 0x9 SLOAD SWAP5 PUSH1 0x1 SWAP3 DUP7 DUP5 SHR DUP5 DUP9 AND SWAP8 DUP9 ISZERO PUSH2 0x381 JUMPI JUMPDEST PUSH1 0x20 SWAP9 DUP10 DUP4 LT DUP2 EQ PUSH2 0x36E JUMPI SWAP2 DUP10 SWAP4 SWAP2 DUP10 SWAP4 DUP3 DUP6 MSTORE SWAP1 DUP2 PUSH1 0x0 EQ PUSH2 0x350 JUMPI POP PUSH1 0x1 EQ PUSH2 0x313 JUMPI JUMPDEST POP PUSH2 0x202 SWAP3 POP SUB DUP7 PUSH2 0x76F JUMP JUMPDEST DUP4 MLOAD SWAP3 DUP3 PUSH1 0xA SLOAD DUP1 DUP4 SHR SWAP4 DUP4 DUP3 AND SWAP1 DUP2 ISZERO PUSH2 0x309 JUMPI JUMPDEST DUP11 DUP7 LT DUP3 EQ PUSH2 0x2F6 JUMPI POP DUP5 DUP8 MSTORE SWAP1 DUP2 ISZERO PUSH2 0x2D4 JUMPI POP PUSH1 0x1 EQ PUSH2 0x299 JUMPI JUMPDEST POP POP POP SWAP4 PUSH2 0x248 DUP3 PUSH2 0x275 SWAP7 SUB DUP4 PUSH2 0x76F JUMP JUMPDEST PUSH1 0xB SLOAD PUSH1 0x1 DUP1 PUSH1 0xA0 SHL SUB PUSH1 0xC SLOAD AND SWAP1 PUSH2 0x282 PUSH1 0xD SLOAD SWAP4 PUSH1 0xE SLOAD SWAP6 DUP8 MLOAD SWAP10 DUP11 SWAP10 PUSH1 0xC0 DUP12 MSTORE PUSH1 0xC0 DUP12 ADD SWAP1 PUSH2 0x7A7 JUMP JUMPDEST SWAP2 DUP10 DUP4 SUB SWAP1 DUP11 ADD MSTORE PUSH2 0x7A7 JUMP JUMPDEST SWAP5 DUP7 ADD MSTORE PUSH1 0x60 DUP6 ADD MSTORE PUSH1 0x80 DUP5 ADD MSTORE PUSH1 0xA0 DUP4 ADD MSTORE SUB SWAP1 RETURN JUMPDEST SWAP7 SWAP3 POP PUSH1 0xA DUP8 MSTORE DUP3 DUP8 KECCAK256 JUMPDEST DUP3 DUP9 LT PUSH2 0x2C1 JUMPI POP POP POP PUSH2 0x248 DUP3 DUP3 PUSH2 0x275 SWAP8 DUP3 ADD ADD SWAP3 SWAP7 PUSH2 0x235 JUMP JUMPDEST DUP1 SLOAD DUP6 DUP10 ADD DUP6 ADD MSTORE SWAP7 DUP4 ADD SWAP7 DUP2 ADD PUSH2 0x2A4 JUMP JUMPDEST PUSH1 0xFF NOT AND DUP7 DUP11 ADD MSTORE POP POP POP ISZERO ISZERO PUSH1 0x5 SHL DUP3 ADD DUP6 ADD SWAP1 POP PUSH2 0x248 DUP3 PUSH2 0x275 PUSH2 0x235 JUMP JUMPDEST PUSH4 0x4E487B71 PUSH1 0xE0 SHL DUP5 MSTORE PUSH1 0x22 SWAP1 MSTORE PUSH1 0x24 DUP4 REVERT JUMPDEST SWAP5 PUSH1 0x7F AND SWAP5 PUSH2 0x218 JUMP JUMPDEST PUSH1 0x9 DUP7 MSTORE DUP4 DUP7 KECCAK256 DUP7 SWAP3 POP DUP8 SWAP1 JUMPDEST DUP3 DUP5 LT PUSH2 0x339 JUMPI POP POP POP SWAP2 PUSH2 0x202 SWAP3 DUP3 ADD ADD DUP9 SWAP3 PUSH2 0x1F5 JUMP JUMPDEST DUP1 SLOAD DUP12 DUP6 ADD DUP8 ADD MSTORE DUP11 SWAP5 POP SWAP3 DUP6 ADD SWAP3 DUP9 SWAP2 ADD PUSH2 0x320 JUMP JUMPDEST PUSH1 0xFF NOT AND DUP5 DUP7 ADD MSTORE POP DUP10 SWAP4 SWAP1 ISZERO ISZERO PUSH1 0x5 SHL DUP4 ADD ADD SWAP1 POP PUSH2 0x202 PUSH2 0x1F5 JUMP JUMPDEST PUSH4 0x4E487B71 PUSH1 0xE0 SHL DUP7 MSTORE PUSH1 0x22 DUP6 MSTORE PUSH1 0x24 DUP7 REVERT JUMPDEST SWAP1 PUSH1 0x7F AND SWAP1 PUSH2 0x1CE JUMP JUMPDEST POP POP CALLVALUE PUSH2 0xBF JUMPI DUP2 PUSH1 0x3 NOT CALLDATASIZE ADD SLT PUSH2 0xBF JUMPI PUSH1 0x20 SWAP1 PUSH1 0xF SLOAD SWAP1 MLOAD SWAP1 DUP2 MSTORE RETURN JUMPDEST SWAP1 POP CALLVALUE PUSH2 0x164 JUMPI PUSH1 0x20 CALLDATASIZE PUSH1 0x3 NOT ADD SLT PUSH2 0x164 JUMPI CALLDATALOAD PUSH1 0x1 PUSH1 0x1 PUSH1 0xA0 SHL SUB DUP2 AND SWAP1 DUP2 SWAP1 SUB PUSH2 0x164 JUMPI DUP3 DUP3 SWAP2 PUSH1 0x20 SWAP5 MSTORE PUSH1 0x10 DUP5 MSTORE KECCAK256 SLOAD SWAP1 MLOAD SWAP1 DUP2 MSTORE RETURN JUMPDEST DUP4 DUP4 CALLVALUE PUSH2 0xBF JUMPI DUP2 PUSH1 0x3 NOT CALLDATASIZE ADD SLT PUSH2 0xBF JUMPI DUP1 MLOAD SWAP2 DUP1 PUSH1 0x1 SWAP5 DUP6 SLOAD SWAP2 DUP3 DUP8 SHR SWAP1 DUP8 DUP5 AND SWAP4 DUP5 ISZERO PUSH2 0x741 JUMPI JUMPDEST PUSH1 0x20 SWAP5 DUP6 DUP5 LT DUP2 EQ PUSH2 0x72E JUMPI DUP4 DUP10 MSTORE DUP9 SWAP3 SWAP2 DUP7 SWAP1 DUP3 ISZERO PUSH2 0x711 JUMPI POP POP PUSH1 0x1 EQ PUSH2 0x6D4 JUMPI JUMPDEST PUSH2 0x43F SWAP3 POP SUB DUP7 PUSH2 0x76F JUMP JUMPDEST DUP4 MLOAD SWAP3 DUP1 PUSH1 0x2 SLOAD SWAP1 DUP2 DUP10 SHR SWAP2 DUP10 DUP2 AND DUP1 ISZERO PUSH2 0x6CA JUMPI JUMPDEST DUP7 DUP5 LT DUP2 EQ PUSH2 0x6B7 JUMPI DUP4 DUP9 MSTORE DUP8 SWAP3 SWAP2 DUP8 SWAP1 DUP3 ISZERO PUSH2 0x69A JUMPI POP POP PUSH1 0x1 EQ PUSH2 0x65C JUMPI JUMPDEST PUSH2 0x482 SWAP3 POP SUB DUP6 PUSH2 0x76F JUMP JUMPDEST DUP5 MLOAD SWAP2 DUP2 PUSH1 0x3 SLOAD SWAP1 DUP2 DUP11 SHR SWAP2 DUP11 DUP2 AND DUP1 ISZERO PUSH2 0x652 JUMPI JUMPDEST DUP8 DUP5 LT DUP2 EQ PUSH2 0x36E JUMPI DUP4 DUP8 MSTORE DUP7 SWAP3 SWAP2 DUP9 SWAP1 DUP3 ISZERO PUSH2 0x635 JUMPI POP POP PUSH1 0x1 EQ PUSH2 0x5F7 JUMPI JUMPDEST PUSH2 0x4C5 SWAP3 POP SUB DUP5 PUSH2 0x76F JUMP JUMPDEST DUP6 MLOAD SWAP8 DUP3 DUP3 SLOAD SWAP3 DUP4 DUP4 SHR SWAP4 DUP4 DUP2 AND DUP1 ISZERO PUSH2 0x5ED JUMPI JUMPDEST DUP9 DUP7 LT DUP2 EQ PUSH2 0x5DA JUMPI DUP6 DUP14 MSTORE SWAP1 DUP2 ISZERO PUSH2 0x5B6 JUMPI POP PUSH1 0x1 EQ PUSH2 0x57F JUMPI JUMPDEST POP POP POP POP DUP7 PUSH2 0x50D PUSH2 0x53F SWAP9 PUSH2 0x566 SWAP4 SUB DUP3 PUSH2 0x76F JUMP JUMPDEST PUSH2 0x558 PUSH1 0x5 SLOAD SWAP7 PUSH1 0x6 SLOAD SWAP5 PUSH2 0x54B PUSH1 0x7 SLOAD SWAP8 PUSH1 0x1 DUP1 PUSH1 0xA0 SHL SUB PUSH1 0x8 SLOAD AND SWAP10 DUP5 MLOAD DUP1 SWAP15 DUP2 SWAP15 PUSH2 0x100 DUP1 DUP5 MSTORE DUP4 ADD SWAP1 PUSH2 0x7A7 JUMP JUMPDEST SWAP3 DUP2 DUP5 SUB SWAP2 ADD MSTORE PUSH2 0x7A7 JUMP JUMPDEST SWAP2 DUP11 DUP4 SUB SWAP1 DUP12 ADD MSTORE PUSH2 0x7A7 JUMP JUMPDEST SWAP1 DUP8 DUP3 SUB PUSH1 0x60 DUP10 ADD MSTORE PUSH2 0x7A7 JUMP JUMPDEST SWAP4 PUSH1 0x80 DUP7 ADD MSTORE PUSH1 0xA0 DUP6 ADD MSTORE PUSH1 0xC0 DUP5 ADD MSTORE PUSH1 0xE0 DUP4 ADD MSTORE SUB SWAP1 RETURN JUMPDEST SWAP1 DUP1 SWAP5 POP MSTORE DUP5 DUP4 KECCAK256 JUMPDEST DUP3 DUP5 LT PUSH2 0x5A3 JUMPI POP POP POP DUP7 ADD DUP3 ADD DUP7 PUSH2 0x50D DUP2 PUSH2 0x566 PUSH2 0x4F6 JUMP JUMPDEST DUP1 SLOAD DUP5 DUP12 ADD DUP8 ADD MSTORE SWAP3 DUP6 ADD SWAP3 DUP2 ADD PUSH2 0x588 JUMP JUMPDEST PUSH1 0xFF NOT AND DUP9 DUP14 ADD MSTORE POP POP POP POP ISZERO ISZERO PUSH1 0x5 SHL DUP8 ADD DUP4 ADD SWAP1 POP DUP7 PUSH2 0x50D DUP2 PUSH2 0x566 PUSH2 0x4F6 JUMP JUMPDEST PUSH4 0x4E487B71 PUSH1 0xE0 SHL DUP5 MSTORE PUSH1 0x22 DUP4 MSTORE PUSH1 0x24 DUP5 REVERT JUMPDEST SWAP5 PUSH1 0x7F AND SWAP5 PUSH2 0x4DA JUMP JUMPDEST POP POP PUSH1 0x3 DUP4 MSTORE DUP4 DUP6 DUP1 DUP6 KECCAK256 DUP12 DUP7 SWAP2 JUMPDEST DUP6 DUP4 LT PUSH2 0x61C JUMPI POP POP PUSH2 0x4C5 SWAP4 POP DUP3 ADD ADD PUSH2 0x4B9 JUMP JUMPDEST DUP1 SWAP2 SWAP3 SWAP5 POP SLOAD DUP4 DUP6 DUP11 ADD ADD MSTORE ADD SWAP2 ADD DUP7 SWAP1 DUP12 DUP8 SWAP4 PUSH2 0x606 JUMP JUMPDEST PUSH1 0xFF NOT AND DUP5 DUP3 ADD MSTORE PUSH2 0x4C5 SWAP5 ISZERO ISZERO PUSH1 0x5 SHL DUP5 ADD ADD SWAP2 POP PUSH2 0x4B9 SWAP1 POP JUMP JUMPDEST SWAP3 PUSH1 0x7F AND SWAP3 PUSH2 0x498 JUMP JUMPDEST POP POP PUSH1 0x2 DUP3 MSTORE DUP5 DUP5 DUP1 DUP5 KECCAK256 DUP11 DUP6 SWAP2 JUMPDEST DUP6 DUP4 LT PUSH2 0x681 JUMPI POP POP PUSH2 0x482 SWAP4 POP DUP3 ADD ADD PUSH2 0x476 JUMP JUMPDEST DUP1 SWAP2 SWAP3 SWAP5 POP SLOAD DUP4 DUP6 DUP12 ADD ADD MSTORE ADD SWAP2 ADD DUP6 SWAP1 DUP11 DUP9 SWAP4 PUSH2 0x66B JUMP JUMPDEST PUSH1 0xFF NOT AND DUP5 DUP3 ADD MSTORE PUSH2 0x482 SWAP5 ISZERO ISZERO PUSH1 0x5 SHL DUP5 ADD ADD SWAP2 POP PUSH2 0x476 SWAP1 POP JUMP JUMPDEST PUSH4 0x4E487B71 PUSH1 0xE0 SHL DUP6 MSTORE PUSH1 0x22 DUP7 MSTORE PUSH1 0x24 DUP6 REVERT JUMPDEST SWAP3 PUSH1 0x7F AND SWAP3 PUSH2 0x455 JUMP JUMPDEST POP POP DUP7 DUP5 MSTORE DUP6 DUP4 DUP1 DUP7 KECCAK256 DUP10 DUP8 SWAP2 JUMPDEST DUP6 DUP4 LT PUSH2 0x6F8 JUMPI POP POP PUSH2 0x43F SWAP4 POP DUP3 ADD ADD PUSH2 0x433 JUMP JUMPDEST DUP1 SWAP2 SWAP3 SWAP5 POP SLOAD DUP4 DUP6 DUP13 ADD ADD MSTORE ADD SWAP2 ADD DUP5 SWAP1 DUP10 DUP10 SWAP4 PUSH2 0x6E2 JUMP JUMPDEST PUSH1 0xFF NOT AND DUP5 DUP3 ADD MSTORE PUSH2 0x43F SWAP5 ISZERO ISZERO PUSH1 0x5 SHL DUP5 ADD ADD SWAP2 POP PUSH2 0x433 SWAP1 POP JUMP JUMPDEST PUSH4 0x4E487B71 PUSH1 0xE0 SHL DUP8 MSTORE PUSH1 0x22 DUP6 MSTORE PUSH1 0x24 DUP8 REVERT JUMPDEST SWAP2 PUSH1 0x7F AND SWAP2 PUSH2 0x40F JUMP JUMPDEST DUP5 SWAP1 CALLVALUE PUSH2 0xBF JUMPI DUP2 PUSH1 0x3 NOT CALLDATASIZE ADD SLT PUSH2 0xBF JUMPI SWAP1 SLOAD PUSH1 0x1 PUSH1 0x1 PUSH1 0xA0 SHL SUB AND DUP2 MSTORE PUSH1 0x20 SWAP1 RETURN JUMPDEST SWAP1 PUSH1 0x1F DUP1 NOT SWAP2 ADD AND DUP2 ADD SWAP1 DUP2 LT PUSH8 0xFFFFFFFFFFFFFFFF DUP3 GT OR PUSH2 0x791 JUMPI PUSH1 0x40 MSTORE JUMP JUMPDEST PUSH4 0x4E487B71 PUSH1 0xE0 SHL PUSH1 0x0 MSTORE PUSH1 0x41 PUSH1 0x4 MSTORE PUSH1 0x24 PUSH1 0x0 REVERT JUMPDEST SWAP2 SWAP1 DUP3 MLOAD SWAP3 DUP4 DUP3 MSTORE PUSH1 0x0 JUMPDEST DUP5 DUP2 LT PUSH2 0x7D3 JUMPI POP POP DUP3 PUSH1 0x0 PUSH1 0x20 DUP1 SWAP5 SWAP6 DUP5 ADD ADD MSTORE PUSH1 0x1F DUP1 NOT SWAP2 ADD AND ADD ADD SWAP1 JUMP JUMPDEST PUSH1 0x20 DUP2 DUP4 ADD DUP2 ADD MLOAD DUP5 DUP4 ADD DUP3 ADD MSTORE ADD PUSH2 0x7B2 JUMP INVALID LOG2 PUSH5 0x6970667358 0x22 SLT KECCAK256 SIGNEXTEND SMOD 0xE8 PUSH29 0x7A5161877C466AAFABFC61FF4562E3C1F3A5907618F481279161B71164 PUSH20 0x6F6C63430008180033405787FA12A823E0F2B763 SHR 0xC4 SHL EXTCODESIZE 0xA8 DUP3 DUP12 CALLER 0x21 0xCA DUP2 GT GT STATICCALL PUSH22 0xCD3AA3BB5ACEC65A7BB8D6351C1CF70C95A316CC6A92 DUP4 SWAP13 SWAP9 PUSH7 0x82D98BC35F958F BASEFEE DUP4 0xF9 0xD2 0xA8 PUSH15 0x1540171B6C0C960B71A7020D9F6007 PUSH32 0x6AF931A8BBF590DA0223DACF75C7AFB10E2D527612073B26EECDFD717E6A320C DELEGATECALL 0x4B BLOBBASEFEE STATICCALL 0xC2 0xB0 PUSH20 0x2D9FCBE2B7FA0CF6000000000000000000000000 "},"methodIdentifiers":{"contributions(address)":"42e94c90","creator()":"02d05d3f","fundsRaised()":"6681b9fd","getRemainAmount()":"bcba0121","owner()":"8da5cb5b","projectInfo()":"185b6910","token()":"fc0c546a","tokenInfo()":"6addb663"}}}}}