{
  "_format": "hh-sol-artifact-1",
  "contractName": "VulcanPadFactory",
  "sourceName": "contracts/VulcanPadFactory.sol",
  "abi": [
    {
      "inputs": [
        {
          "internalType": "address",
          "name": "daiAddress_",
          "type": "address"
        }
      ],
      "stateMutability": "nonpayable",
      "type": "constructor"
    },
    {
      "inputs": [
        {
          "internalType": "address",
          "name": "target",
          "type": "address"
        }
      ],
      "name": "AddressEmptyCode",
      "type": "error"
    },
    {
      "inputs": [
        {
          "internalType": "address",
          "name": "account",
          "type": "address"
        }
      ],
      "name": "AddressInsufficientBalance",
      "type": "error"
    },
    {
      "inputs": [],
      "name": "FailedInnerCall",
      "type": "error"
    },
    {
      "inputs": [
        {
          "internalType": "address",
          "name": "token",
          "type": "address"
        }
      ],
      "name": "SafeERC20FailedOperation",
      "type": "error"
    },
    {
      "anonymous": false,
      "inputs": [
        {
          "indexed": false,
          "internalType": "address",
          "name": "user_",
          "type": "address"
        },
        {
          "indexed": false,
          "internalType": "uint256",
          "name": "amount_",
          "type": "uint256"
        }
      ],
      "name": "SpamFilterFeePaid",
      "type": "event"
    },
    {
      "inputs": [],
      "name": "daiAddress",
      "outputs": [
        {
          "internalType": "address",
          "name": "",
          "type": "address"
        }
      ],
      "stateMutability": "view",
      "type": "function"
    },
    {
      "inputs": [],
      "name": "daiToken",
      "outputs": [
        {
          "internalType": "contract IERC20",
          "name": "",
          "type": "address"
        }
      ],
      "stateMutability": "view",
      "type": "function"
    },
    {
      "inputs": [
        {
          "internalType": "address",
          "name": "vulcanAddress_",
          "type": "address"
        },
        {
          "internalType": "address",
          "name": "tokenAddress_",
          "type": "address"
        },
        {
          "internalType": "uint256",
          "name": "amount_",
          "type": "uint256"
        }
      ],
      "name": "depositToken",
      "outputs": [],
      "stateMutability": "nonpayable",
      "type": "function"
    },
    {
      "inputs": [],
      "name": "feeAmount",
      "outputs": [
        {
          "internalType": "uint256",
          "name": "",
          "type": "uint256"
        }
      ],
      "stateMutability": "view",
      "type": "function"
    },
    {
      "inputs": [
        {
          "internalType": "string",
          "name": "title_",
          "type": "string"
        },
        {
          "internalType": "string",
          "name": "description_",
          "type": "string"
        },
        {
          "internalType": "string",
          "name": "logo_",
          "type": "string"
        },
        {
          "internalType": "string",
          "name": "videoLink_",
          "type": "string"
        },
        {
          "internalType": "uint256",
          "name": "softcap_",
          "type": "uint256"
        },
        {
          "internalType": "uint256",
          "name": "hardcap_",
          "type": "uint256"
        },
        {
          "internalType": "uint256",
          "name": "endTime_",
          "type": "uint256"
        },
        {
          "internalType": "string",
          "name": "name_",
          "type": "string"
        },
        {
          "internalType": "string",
          "name": "symbol_",
          "type": "string"
        },
        {
          "internalType": "uint256",
          "name": "price_",
          "type": "uint256"
        },
        {
          "internalType": "uint256",
          "name": "decimal_",
          "type": "uint256"
        },
        {
          "internalType": "uint256",
          "name": "totalSupply_",
          "type": "uint256"
        },
        {
          "internalType": "address",
          "name": "tokenAddress_",
          "type": "address"
        }
      ],
      "name": "launchNewICO",
      "outputs": [
        {
          "internalType": "address",
          "name": "",
          "type": "address"
        }
      ],
      "stateMutability": "nonpayable",
      "type": "function"
    },
    {
      "inputs": [],
      "name": "owner",
      "outputs": [
        {
          "internalType": "address",
          "name": "",
          "type": "address"
        }
      ],
      "stateMutability": "view",
      "type": "function"
    },
    {
      "inputs": [],
      "name": "paySpamFilterFee",
      "outputs": [],
      "stateMutability": "nonpayable",
      "type": "function"
    },
    {
      "inputs": [
        {
          "internalType": "uint256",
          "name": "",
          "type": "uint256"
        }
      ],
      "name": "vulcans",
      "outputs": [
        {
          "internalType": "address",
          "name": "",
          "type": "address"
        }
      ],
      "stateMutability": "view",
      "type": "function"
    }
  ],
  "bytecode": "0x60a0346100dd57601f6123e238819003918201601f19168301916001600160401b038311848410176100e2578084926020946040528339810103126100dd57516001600160a01b038116908190036100dd5768056bc75e2d63100000600255801561009857608052600080546001600160a01b031916331790556040516122e990816100f982396080518181816108b301526109830152f35b60405162461bcd60e51b815260206004820152601360248201527f496e76616c6964204441492061646472657373000000000000000000000000006044820152606490fd5b600080fd5b634e487b7160e01b600052604160045260246000fdfe608060405260043610156200001357600080fd5b60003560e01c8063100a0c751462000b625780631325975614620009585780632c387275146200092d57806369e15404146200090d5780638da5cb5b14620008e2578063be22f546146200089b578063f5aee94814620003035763fb0f97a8146200007d57600080fd5b346200026057606036600319011262000260576001600160a01b036004358181169081810362000260576024358381168091036200026057604051638da5cb5b60e01b8152602094604435948690839060049082905afa918215620001e057600092620002c4575b50339116036200026d576040516370a0823160e01b81523360048201528481602481855afa8015620001e057849160009162000231575b501115620001ec5760405163095ea7b360e01b81523060048201526024810184905284816044816000865af1908115620001e057600091620001ac575b501562000170576200016e9350339062000cc2565b005b60405162461bcd60e51b81526004810185905260146024820152732a37b5b2b71030b8383937bb32903330b4b6321760611b6044820152606490fd5b620001d19150853d8711620001d8575b620001c8818362000bdb565b81019062000c66565b3862000159565b503d620001bc565b6040513d6000823e3d90fd5b60405162461bcd60e51b815260048101859052601b60248201527f496e73756666696369656e7420746f6b656e2062616c616e63652e00000000006044820152606490fd5b809250868092503d831162000265575b6200024d818362000bdb565b810103126200026057839051386200011c565b600080fd5b503d62000241565b60405162461bcd60e51b815260048101859052602960248201527f596f7520617265206e6f7420746865206f776e6572206f662056756c63616e2060448201526831b7b73a3930b1ba1760b91b6064820152608490fd5b9091508581813d8311620002fb575b620002df818362000bdb565b81010312620002605751818116810362000260579038620000e5565b503d620002d3565b3462000260576101a036600319011262000260576004356001600160401b03811162000260576200033990369060040162000c19565b6024356001600160401b03811162000260576200035b90369060040162000c19565b6044356001600160401b03811162000260576200037d90369060040162000c19565b906064356001600160401b0381116200026057620003a090369060040162000c19565b9160e4356001600160401b0381116200026057620003c390369060040162000c19565b906001600160401b0361010435116200026057620003e8366101043560040162000c19565b91610184356001600160a01b03811690036200026057336000526003602052604060002054600254116200085b57610184356001600160a01b0316156200081e5760c435421015620007da5760843515620007955760a43515620007505760843560a43511156200070b576101443515620006bc57610124351562000677576101643515620006245760405195866114978101106001600160401b03611497890111176200060e578695620004f86200053f94620004e16200055798620004ca6200050f966114978d62000e1d90396101c06114978e01818152019062000c80565b906114978c01820360208d61149701015262000c80565b906114978a01820360406114978c01015262000c80565b906114978801820360606114978a01015262000c80565b6084356114978701608081019190915260a43560a082015260c43560c082015280820360e0909101529062000c80565b90611497840182036101006114978601015262000c80565b336114978301610120810191909152610124356101408201526101443561016082015261016435610180820152610184356001600160a01b03166101a09091015203906000f08015620001e057600454906001600160a01b0316600160401b8210156200060e57620005d28260016020940160045562000ba9565b81546001600160a01b0360039290921b91821b19169083901b179055600081815260058352604090819020805460ff1916600117905551908152f35b634e487b7160e01b600052604160045260246000fd5b60405162461bcd60e51b815260206004820152602560248201527f546f6b656e20746f74616c537570706c79206d75737420677265617465722074604482015264068616e20360dc1b6064820152608490fd5b60405162461bcd60e51b815260206004820152601f60248201527f546f6b656e207072696365206d7573742067726561746572207468616e2030006044820152606490fd5b60405162461bcd60e51b815260206004820152602160248201527f546f6b656e20646563696d616c206d7573742067726561746572207468616e206044820152600360fc1b6064820152608490fd5b60405162461bcd60e51b815260206004820152601e60248201527f536f6674636170206d757374206c657373207468616e206861726463617000006044820152606490fd5b60405162461bcd60e51b815260206004820152601e60248201527f48617264636170206d7573742062652067726561746572207468616e203000006044820152606490fd5b60405162461bcd60e51b815260206004820152601e60248201527f536f6674636170206d7573742062652067726561746572207468616e203000006044820152606490fd5b606460405162461bcd60e51b815260206004820152602060248201527f456e642074696d652073686f756c6420626520696e20746865206675747572656044820152fd5b60405162461bcd60e51b8152602060048201526015602482015274496e76616c696420544f4b454e206164647265737360581b6044820152606490fd5b60405162461bcd60e51b81526020600482015260186024820152774e6f742070616964207370616d2066696c7465722066656560401b6044820152606490fd5b346200026057600036600319011262000260576040517f00000000000000000000000000000000000000000000000000000000000000006001600160a01b03168152602090f35b346200026057600036600319011262000260576000546040516001600160a01b039091168152602090f35b346200026057600036600319011262000260576020600254604051908152f35b346200026057600036600319011262000260576001546040516001600160a01b039091168152602090f35b346200026057600036600319011262000260576040516370a0823160e01b81523360048201526020907f0000000000000000000000000000000000000000000000000000000000000000906001600160a01b038216908381602481855afa908115620001e05760009162000b2f575b506002548091111562000aef5760405163095ea7b360e01b81523060048201526024810191909152908390829060449082906000905af1908115620001e05760009162000acd575b501562000a935760025462000a28913090339062000cc2565b60036002549133600052526040600020805491820180921162000a7d57556002546040805133815260208101929092527f5780754012857253291f05d2a4640a02412e6a2d96645b743dd54b2c5e09e20291a1005b634e487b7160e01b600052601160045260246000fd5b60405162461bcd60e51b815260048101839052601260248201527111105248185c1c1c9bdd994819985a5b195960721b6044820152606490fd5b62000ae89150833d8511620001d857620001c8818362000bdb565b8362000a0f565b60405162461bcd60e51b8152600481018590526018602482015277496e73756666696369656e74204461692062616c616e636560401b6044820152606490fd5b90508381813d831162000b5a575b62000b49818362000bdb565b8101031262000260575184620009c7565b503d62000b3d565b34620002605760203660031901126200026057600435600454811015620002605762000b9060209162000ba9565b905460405160039290921b1c6001600160a01b03168152f35b60045481101562000bc557600460005260206000200190600090565b634e487b7160e01b600052603260045260246000fd5b90601f801991011681019081106001600160401b038211176200060e57604052565b6001600160401b0381116200060e57601f01601f191660200190565b81601f82011215620002605780359062000c338262000bfd565b9262000c43604051948562000bdb565b828452602083830101116200026057816000926020809301838601378301015290565b908160209103126200026057518015158103620002605790565b919082519283825260005b84811062000cad575050826000602080949584010152601f8019910116010190565b60208183018101518483018201520162000c8b565b6040516323b872dd60e01b602082019081526001600160a01b0393841660248301529383166044820152606480820195909552938452909160a08401906001600160401b038211858310176200060e5762000d5d9360009384936040521694519082865af13d1562000dab573d9062000d3b8262000bfd565b9162000d4b604051938462000bdb565b82523d6000602084013e5b8362000db4565b805190811515918262000d8d575b505062000d755750565b60249060405190635274afe760e01b82526004820152fd5b62000da2925060208091830101910162000c66565b15388062000d6b565b60609062000d56565b9062000ddd575080511562000dcb57805190602001fd5b604051630a12f52160e11b8152600490fd5b8151158062000e12575b62000df0575090565b604051639996b31560e01b81526001600160a01b039091166004820152602490fd5b50803b1562000de756fe604060a081526200149780380380620000188162000b4c565b92833981016101c08282031262000b475781516001600160401b03811162000b4757816200004891840162000b72565b60208301519091906001600160401b03811162000b4757816200006d91850162000b72565b838501519091906001600160401b03811162000b4757816200009191860162000b72565b60608501519091906001600160401b03811162000b475781620000b691870162000b72565b9460808101519160a082015160c08301519060e084015160018060401b03811162000b475783620000e991860162000b72565b61010085015190936001600160401b03821162000b47576200010d91860162000b72565b946200011d610120860162000be4565b996101408601519761016087015199620001416101a06101808a0151990162000be4565b8642101562000b04578486111562000ab6576001600160a01b03169b8c1562000a72578051906001600160401b0382116200054f5760015490600182811c9216801562000a67575b60208310146200052e5781601f84931162000a06575b50602090601f83116001146200098c5760009262000980575b50508160011b916000199060031b1c1916176001555b8051906001600160401b0382116200054f5760025490600182811c9216801562000975575b60208310146200052e5781601f84931162000914575b50602090601f831160011462000896576000926200088a575b50508160011b916000199060031b1c1916176002555b8051906001600160401b0382116200054f5760035490600182811c921680156200087f575b60208310146200052e5781601f8493116200080d575b50602090601f83116001146200077e5760009262000772575b50508160011b916000199060031b1c1916176003555b8051906001600160401b0382116200054f5760045490600182811c9216801562000767575b60208310146200052e5781601f849311620006f5575b50602090601f831160011462000666576000926200065a575b50508160011b916000199060031b1c1916176004555b600555600655600755600880546001600160a01b03989098166001600160a01b03199889161790558051906001600160401b0382116200054f5760095490600182811c921680156200064f575b60208310146200052e5781601f849311620005eb575b50602090601f8311600114620005715760009262000565575b50508160011b916000199060031b1c1916176009555b600b558051906001600160401b0382116200054f57600a5490600182811c9216801562000544575b60208310146200052e5781601f849311620004ca575b50602090601f8311600114620004505760009262000444575b50508160011b916000199060031b1c191617600a555b8284600c541617600c55600e55600d55608052339060005416176000555161081d908162000bfa82396080518181816090015260f20152f35b015190503880620003f5565b600a6000908152600080516020620014378339815191529350601f198516905b818110620004b1575090846001959493921062000497575b505050811b01600a556200040b565b015160001960f88460031b161c1916905538808062000488565b9293602060018192878601518155019501930162000470565b600a60005290915060008051602062001437833981519152601f840160051c8101916020851062000523575b90601f859493920160051c01905b818110620005135750620003dc565b6000815584935060010162000504565b9091508190620004f6565b634e487b7160e01b600052602260045260246000fd5b91607f1691620003c6565b634e487b7160e01b600052604160045260246000fd5b01519050388062000388565b60096000908152600080516020620014578339815191529350601f198516905b818110620005d25750908460019594939210620005b8575b505050811b016009556200039e565b015160001960f88460031b161c19169055388080620005a9565b9293602060018192878601518155019501930162000591565b600960005290915060008051602062001457833981519152601f840160051c8101916020851062000644575b90601f859493920160051c01905b8181106200063457506200036f565b6000815584935060010162000625565b909150819062000617565b91607f169162000359565b015190503880620002f6565b6004600090815293507f8a35acfbc15ff81a39ae7d344fd709f28e8600b4aa8c65c6b64bfe7fe36bd19b91905b601f1984168510620006d9576001945083601f19811610620006bf575b505050811b016004556200030c565b015160001960f88460031b161c19169055388080620006b0565b8181015183556020948501946001909301929091019062000693565b60046000529091507f8a35acfbc15ff81a39ae7d344fd709f28e8600b4aa8c65c6b64bfe7fe36bd19b601f840160051c8101602085106200075f575b90849392915b601f830160051c820181106200074f575050620002dd565b6000815585945060010162000737565b508062000731565b91607f1691620002c7565b0151905038806200028c565b6003600090815293507fc2575a0e9e593c00f959f8c92f12db2869c3395a3b0502d05e2516446f71f85b91905b601f1984168510620007f1576001945083601f19811610620007d7575b505050811b01600355620002a2565b015160001960f88460031b161c19169055388080620007c8565b81810151835560209485019460019093019290910190620007ab565b60036000529091507fc2575a0e9e593c00f959f8c92f12db2869c3395a3b0502d05e2516446f71f85b601f840160051c81016020851062000877575b90849392915b601f830160051c820181106200086757505062000273565b600081558594506001016200084f565b508062000849565b91607f16916200025d565b01519050388062000222565b6002600090815293506000805160206200141783398151915291905b601f1984168510620008f8576001945083601f19811610620008de575b505050811b0160025562000238565b015160001960f88460031b161c19169055388080620008cf565b81810151835560209485019460019093019290910190620008b2565b600260005290915060008051602062001417833981519152601f840160051c8101602085106200096d575b90849392915b601f830160051c820181106200095d57505062000209565b6000815585945060010162000945565b50806200093f565b91607f1691620001f3565b015190503880620001b8565b60016000908152600080516020620014778339815191529350601f198516905b818110620009ed5750908460019594939210620009d3575b505050811b01600155620001ce565b015160001960f88460031b161c19169055388080620009c4565b92936020600181928786015181550195019301620009ac565b600160005290915060008051602062001477833981519152601f840160051c81016020851062000a5f575b90849392915b601f830160051c8201811062000a4f5750506200019f565b6000815585945060010162000a37565b508062000a31565b91607f169162000189565b8e5162461bcd60e51b815260206004820152601560248201527f696e76616c696420746f6b656e206164647265737300000000000000000000006044820152606490fd5b8e5162461bcd60e51b815260206004820152602160248201527f496e76616c69642068617264636170202620736f66746361702073657474696e6044820152606760f81b6064820152608490fd5b60648f5162461bcd60e51b815260206004820152602060248201527f456e642074696d652073686f756c6420626520696e20746865206675747572656044820152fd5b600080fd5b6040519190601f01601f191682016001600160401b038111838210176200054f57604052565b919080601f8401121562000b475782516001600160401b0381116200054f5760209062000ba8601f8201601f1916830162000b4c565b9281845282828701011162000b475760005b81811062000bd057508260009394955001015290565b858101830151848201840152820162000bba565b51906001600160a01b038216820362000b475756fe608060408181526004918236101561001657600080fd5b600092833560e01c91826302d05d3f1461074b57508163185b6910146103e457816342e94c90146103aa5781636681b9fd1461038b5781636addb663146101a35781638da5cb5b1461017a578163bcba0121146100c3575063fc0c546a1461007d57600080fd5b346100bf57816003193601126100bf57517f00000000000000000000000000000000000000000000000000000000000000006001600160a01b03168152602090f35b5080fd5b9190503461016457826003193601126101645780516370a0823160e01b815230928101929092526020826024817f00000000000000000000000000000000000000000000000000000000000000006001600160a01b03165afa918215610170578392610134575b6020838351908152f35b9091506020813d602011610168575b816101506020938361076f565b81010312610164576020925051903861012a565b8280fd5b3d9150610143565b81513d85823e3d90fd5b5050346100bf57816003193601126100bf5760085490516001600160a01b039091168152602090f35b8383346100bf57816003193601126100bf57805191806009549460019286841c848816978815610381575b602098898310811461036e5791899391899382855290816000146103505750600114610313575b506102029250038661076f565b83519282600a5480831c93838216908115610309575b8a861082146102f657508487529081156102d45750600114610299575b505050936102488261027596038361076f565b600b5460018060a01b03600c541690610282600d5493600e54958751998a9960c08b5260c08b01906107a7565b91898303908a01526107a7565b948601526060850152608084015260a08301520390f35b969250600a87528287205b8288106102c1575050506102488282610275978201019296610235565b80548589018501529683019681016102a4565b60ff1916868a0152505050151560051b82018501905061024882610275610235565b634e487b7160e01b845260229052602483fd5b94607f1694610218565b6009865283862086925087905b82841061033957505050916102029282010188926101f5565b80548b85018701528a945092850192889101610320565b60ff19168486015250899390151560051b83010190506102026101f5565b634e487b7160e01b865260228552602486fd5b90607f16906101ce565b5050346100bf57816003193601126100bf57602090600f549051908152f35b90503461016457602036600319011261016457356001600160a01b0381169081900361016457828291602094526010845220549051908152f35b8383346100bf57816003193601126100bf578051918060019485549182871c90878416938415610741575b602094858410811461072e57838952889291869082156107115750506001146106d4575b61043f9250038661076f565b835192806002549081891c9189811680156106ca575b86841081146106b7578388528792918790821561069a57505060011461065c575b6104829250038561076f565b8451918160035490818a1c918a81168015610652575b878410811461036e57838752869291889082156106355750506001146105f7575b6104c59250038461076f565b8551978282549283831c9383811680156105ed575b88861081146105da57858d529081156105b6575060011461057f575b505050508661050d61053f9861056693038261076f565b610558600554966006549461054b6007549760018060a01b0360085416998451809e819e6101008084528301906107a7565b928184039101526107a7565b918a8303908b01526107a7565b9087820360608901526107a7565b93608086015260a085015260c084015260e08301520390f35b90809450528483205b8284106105a357505050860182018661050d816105666104f6565b8054848b01870152928501928101610588565b60ff1916888d015250505050151560051b8701830190508661050d816105666104f6565b634e487b7160e01b845260228352602484fd5b94607f16946104da565b50506003835283858085208b86915b85831061061c5750506104c593508201016104b9565b80919294505483858a01015201910186908b8793610606565b60ff1916848201526104c594151560051b84010191506104b99050565b92607f1692610498565b50506002825284848084208a85915b8583106106815750506104829350820101610476565b80919294505483858b01015201910185908a889361066b565b60ff19168482015261048294151560051b84010191506104769050565b634e487b7160e01b855260228652602485fd5b92607f1692610455565b505086845285838086208987915b8583106106f857505061043f9350820101610433565b80919294505483858c01015201910184908989936106e2565b60ff19168482015261043f94151560051b84010191506104339050565b634e487b7160e01b875260228552602487fd5b91607f169161040f565b8490346100bf57816003193601126100bf5790546001600160a01b03168152602090f35b90601f8019910116810190811067ffffffffffffffff82111761079157604052565b634e487b7160e01b600052604160045260246000fd5b919082519283825260005b8481106107d3575050826000602080949584010152601f8019910116010190565b6020818301810151848301820152016107b256fea26469706673582212200b07e87c7a5161877c466aafabfc61ff4562e3c1f3a5907618f481279161b71164736f6c63430008180033405787fa12a823e0f2b7631cc41b3ba8828b3321ca811111fa75cd3aa3bb5acec65a7bb8d6351c1cf70c95a316cc6a92839c986682d98bc35f958f4883f9d2a86e1540171b6c0c960b71a7020d9f60077f6af931a8bbf590da0223dacf75c7afb10e2d527612073b26eecdfd717e6a320cf44b4afac2b0732d9fcbe2b7fa0cf6a26469706673582212205c4cd714b625c1391c928aafc71e3f7e2b9e83f18a8353cffc330ac682aedae564736f6c63430008180033",
  "linkReferences": {},
  "deployedLinkReferences": {}
}