{
  "_format": "hh-sol-artifact-1",
  "contractName": "Vulcan",
  "sourceName": "contracts/Vulcan.sol",
  "abi": [
    {
      "inputs": [
        {
          "internalType": "string",
          "name": "title_",
          "type": "string"
        },
        {
          "internalType": "string",
          "name": "description_",
          "type": "string"
        },
        {
          "internalType": "string",
          "name": "logo_",
          "type": "string"
        },
        {
          "internalType": "string",
          "name": "videoLink_",
          "type": "string"
        },
        {
          "internalType": "uint256",
          "name": "softcap_",
          "type": "uint256"
        },
        {
          "internalType": "uint256",
          "name": "hardcap_",
          "type": "uint256"
        },
        {
          "internalType": "uint256",
          "name": "endTime_",
          "type": "uint256"
        },
        {
          "internalType": "string",
          "name": "name_",
          "type": "string"
        },
        {
          "internalType": "string",
          "name": "symbol_",
          "type": "string"
        },
        {
          "internalType": "address",
          "name": "owner_",
          "type": "address"
        },
        {
          "internalType": "uint256",
          "name": "price_",
          "type": "uint256"
        },
        {
          "internalType": "uint256",
          "name": "decimal_",
          "type": "uint256"
        },
        {
          "internalType": "uint256",
          "name": "totalSupply_",
          "type": "uint256"
        },
        {
          "internalType": "address",
          "name": "tokenAddress_",
          "type": "address"
        }
      ],
      "stateMutability": "payable",
      "type": "constructor"
    },
    {
      "inputs": [
        {
          "internalType": "address",
          "name": "",
          "type": "address"
        }
      ],
      "name": "contributions",
      "outputs": [
        {
          "internalType": "uint256",
          "name": "",
          "type": "uint256"
        }
      ],
      "stateMutability": "view",
      "type": "function"
    },
    {
      "inputs": [],
      "name": "creator",
      "outputs": [
        {
          "internalType": "address",
          "name": "",
          "type": "address"
        }
      ],
      "stateMutability": "view",
      "type": "function"
    },
    {
      "inputs": [],
      "name": "fundsRaised",
      "outputs": [
        {
          "internalType": "uint256",
          "name": "",
          "type": "uint256"
        }
      ],
      "stateMutability": "view",
      "type": "function"
    },
    {
      "inputs": [],
      "name": "getRemainAmount",
      "outputs": [
        {
          "internalType": "uint256",
          "name": "",
          "type": "uint256"
        }
      ],
      "stateMutability": "view",
      "type": "function"
    },
    {
      "inputs": [],
      "name": "owner",
      "outputs": [
        {
          "internalType": "address",
          "name": "",
          "type": "address"
        }
      ],
      "stateMutability": "view",
      "type": "function"
    },
    {
      "inputs": [],
      "name": "projectInfo",
      "outputs": [
        {
          "internalType": "string",
          "name": "title",
          "type": "string"
        },
        {
          "internalType": "string",
          "name": "description",
          "type": "string"
        },
        {
          "internalType": "string",
          "name": "logo",
          "type": "string"
        },
        {
          "internalType": "string",
          "name": "videoLink",
          "type": "string"
        },
        {
          "internalType": "uint256",
          "name": "softcap",
          "type": "uint256"
        },
        {
          "internalType": "uint256",
          "name": "hardcap",
          "type": "uint256"
        },
        {
          "internalType": "uint256",
          "name": "endTime",
          "type": "uint256"
        },
        {
          "internalType": "address",
          "name": "owner",
          "type": "address"
        }
      ],
      "stateMutability": "view",
      "type": "function"
    },
    {
      "inputs": [],
      "name": "token",
      "outputs": [
        {
          "internalType": "contract IERC20",
          "name": "",
          "type": "address"
        }
      ],
      "stateMutability": "view",
      "type": "function"
    },
    {
      "inputs": [],
      "name": "tokenInfo",
      "outputs": [
        {
          "internalType": "string",
          "name": "name",
          "type": "string"
        },
        {
          "internalType": "string",
          "name": "symbol",
          "type": "string"
        },
        {
          "internalType": "uint256",
          "name": "totalSupply",
          "type": "uint256"
        },
        {
          "internalType": "address",
          "name": "tokenAddress",
          "type": "address"
        },
        {
          "internalType": "uint256",
          "name": "decimal",
          "type": "uint256"
        },
        {
          "internalType": "uint256",
          "name": "price",
          "type": "uint256"
        }
      ],
      "stateMutability": "view",
      "type": "function"
    }
  ],
  "bytecode": "0x604060a081526200149780380380620000188162000b4c565b92833981016101c08282031262000b475781516001600160401b03811162000b4757816200004891840162000b72565b60208301519091906001600160401b03811162000b4757816200006d91850162000b72565b838501519091906001600160401b03811162000b4757816200009191860162000b72565b60608501519091906001600160401b03811162000b475781620000b691870162000b72565b9460808101519160a082015160c08301519060e084015160018060401b03811162000b475783620000e991860162000b72565b61010085015190936001600160401b03821162000b47576200010d91860162000b72565b946200011d610120860162000be4565b996101408601519761016087015199620001416101a06101808a0151990162000be4565b8642101562000b04578486111562000ab6576001600160a01b03169b8c1562000a72578051906001600160401b0382116200054f5760015490600182811c9216801562000a67575b60208310146200052e5781601f84931162000a06575b50602090601f83116001146200098c5760009262000980575b50508160011b916000199060031b1c1916176001555b8051906001600160401b0382116200054f5760025490600182811c9216801562000975575b60208310146200052e5781601f84931162000914575b50602090601f831160011462000896576000926200088a575b50508160011b916000199060031b1c1916176002555b8051906001600160401b0382116200054f5760035490600182811c921680156200087f575b60208310146200052e5781601f8493116200080d575b50602090601f83116001146200077e5760009262000772575b50508160011b916000199060031b1c1916176003555b8051906001600160401b0382116200054f5760045490600182811c9216801562000767575b60208310146200052e5781601f849311620006f5575b50602090601f831160011462000666576000926200065a575b50508160011b916000199060031b1c1916176004555b600555600655600755600880546001600160a01b03989098166001600160a01b03199889161790558051906001600160401b0382116200054f5760095490600182811c921680156200064f575b60208310146200052e5781601f849311620005eb575b50602090601f8311600114620005715760009262000565575b50508160011b916000199060031b1c1916176009555b600b558051906001600160401b0382116200054f57600a5490600182811c9216801562000544575b60208310146200052e5781601f849311620004ca575b50602090601f8311600114620004505760009262000444575b50508160011b916000199060031b1c191617600a555b8284600c541617600c55600e55600d55608052339060005416176000555161081d908162000bfa82396080518181816090015260f20152f35b015190503880620003f5565b600a6000908152600080516020620014378339815191529350601f198516905b818110620004b1575090846001959493921062000497575b505050811b01600a556200040b565b015160001960f88460031b161c1916905538808062000488565b9293602060018192878601518155019501930162000470565b600a60005290915060008051602062001437833981519152601f840160051c8101916020851062000523575b90601f859493920160051c01905b818110620005135750620003dc565b6000815584935060010162000504565b9091508190620004f6565b634e487b7160e01b600052602260045260246000fd5b91607f1691620003c6565b634e487b7160e01b600052604160045260246000fd5b01519050388062000388565b60096000908152600080516020620014578339815191529350601f198516905b818110620005d25750908460019594939210620005b8575b505050811b016009556200039e565b015160001960f88460031b161c19169055388080620005a9565b9293602060018192878601518155019501930162000591565b600960005290915060008051602062001457833981519152601f840160051c8101916020851062000644575b90601f859493920160051c01905b8181106200063457506200036f565b6000815584935060010162000625565b909150819062000617565b91607f169162000359565b015190503880620002f6565b6004600090815293507f8a35acfbc15ff81a39ae7d344fd709f28e8600b4aa8c65c6b64bfe7fe36bd19b91905b601f1984168510620006d9576001945083601f19811610620006bf575b505050811b016004556200030c565b015160001960f88460031b161c19169055388080620006b0565b8181015183556020948501946001909301929091019062000693565b60046000529091507f8a35acfbc15ff81a39ae7d344fd709f28e8600b4aa8c65c6b64bfe7fe36bd19b601f840160051c8101602085106200075f575b90849392915b601f830160051c820181106200074f575050620002dd565b6000815585945060010162000737565b508062000731565b91607f1691620002c7565b0151905038806200028c565b6003600090815293507fc2575a0e9e593c00f959f8c92f12db2869c3395a3b0502d05e2516446f71f85b91905b601f1984168510620007f1576001945083601f19811610620007d7575b505050811b01600355620002a2565b015160001960f88460031b161c19169055388080620007c8565b81810151835560209485019460019093019290910190620007ab565b60036000529091507fc2575a0e9e593c00f959f8c92f12db2869c3395a3b0502d05e2516446f71f85b601f840160051c81016020851062000877575b90849392915b601f830160051c820181106200086757505062000273565b600081558594506001016200084f565b508062000849565b91607f16916200025d565b01519050388062000222565b6002600090815293506000805160206200141783398151915291905b601f1984168510620008f8576001945083601f19811610620008de575b505050811b0160025562000238565b015160001960f88460031b161c19169055388080620008cf565b81810151835560209485019460019093019290910190620008b2565b600260005290915060008051602062001417833981519152601f840160051c8101602085106200096d575b90849392915b601f830160051c820181106200095d57505062000209565b6000815585945060010162000945565b50806200093f565b91607f1691620001f3565b015190503880620001b8565b60016000908152600080516020620014778339815191529350601f198516905b818110620009ed5750908460019594939210620009d3575b505050811b01600155620001ce565b015160001960f88460031b161c19169055388080620009c4565b92936020600181928786015181550195019301620009ac565b600160005290915060008051602062001477833981519152601f840160051c81016020851062000a5f575b90849392915b601f830160051c8201811062000a4f5750506200019f565b6000815585945060010162000a37565b508062000a31565b91607f169162000189565b8e5162461bcd60e51b815260206004820152601560248201527f696e76616c696420746f6b656e206164647265737300000000000000000000006044820152606490fd5b8e5162461bcd60e51b815260206004820152602160248201527f496e76616c69642068617264636170202620736f66746361702073657474696e6044820152606760f81b6064820152608490fd5b60648f5162461bcd60e51b815260206004820152602060248201527f456e642074696d652073686f756c6420626520696e20746865206675747572656044820152fd5b600080fd5b6040519190601f01601f191682016001600160401b038111838210176200054f57604052565b919080601f8401121562000b475782516001600160401b0381116200054f5760209062000ba8601f8201601f1916830162000b4c565b9281845282828701011162000b475760005b81811062000bd057508260009394955001015290565b858101830151848201840152820162000bba565b51906001600160a01b038216820362000b475756fe608060408181526004918236101561001657600080fd5b600092833560e01c91826302d05d3f1461074b57508163185b6910146103e457816342e94c90146103aa5781636681b9fd1461038b5781636addb663146101a35781638da5cb5b1461017a578163bcba0121146100c3575063fc0c546a1461007d57600080fd5b346100bf57816003193601126100bf57517f00000000000000000000000000000000000000000000000000000000000000006001600160a01b03168152602090f35b5080fd5b9190503461016457826003193601126101645780516370a0823160e01b815230928101929092526020826024817f00000000000000000000000000000000000000000000000000000000000000006001600160a01b03165afa918215610170578392610134575b6020838351908152f35b9091506020813d602011610168575b816101506020938361076f565b81010312610164576020925051903861012a565b8280fd5b3d9150610143565b81513d85823e3d90fd5b5050346100bf57816003193601126100bf5760085490516001600160a01b039091168152602090f35b8383346100bf57816003193601126100bf57805191806009549460019286841c848816978815610381575b602098898310811461036e5791899391899382855290816000146103505750600114610313575b506102029250038661076f565b83519282600a5480831c93838216908115610309575b8a861082146102f657508487529081156102d45750600114610299575b505050936102488261027596038361076f565b600b5460018060a01b03600c541690610282600d5493600e54958751998a9960c08b5260c08b01906107a7565b91898303908a01526107a7565b948601526060850152608084015260a08301520390f35b969250600a87528287205b8288106102c1575050506102488282610275978201019296610235565b80548589018501529683019681016102a4565b60ff1916868a0152505050151560051b82018501905061024882610275610235565b634e487b7160e01b845260229052602483fd5b94607f1694610218565b6009865283862086925087905b82841061033957505050916102029282010188926101f5565b80548b85018701528a945092850192889101610320565b60ff19168486015250899390151560051b83010190506102026101f5565b634e487b7160e01b865260228552602486fd5b90607f16906101ce565b5050346100bf57816003193601126100bf57602090600f549051908152f35b90503461016457602036600319011261016457356001600160a01b0381169081900361016457828291602094526010845220549051908152f35b8383346100bf57816003193601126100bf578051918060019485549182871c90878416938415610741575b602094858410811461072e57838952889291869082156107115750506001146106d4575b61043f9250038661076f565b835192806002549081891c9189811680156106ca575b86841081146106b7578388528792918790821561069a57505060011461065c575b6104829250038561076f565b8451918160035490818a1c918a81168015610652575b878410811461036e57838752869291889082156106355750506001146105f7575b6104c59250038461076f565b8551978282549283831c9383811680156105ed575b88861081146105da57858d529081156105b6575060011461057f575b505050508661050d61053f9861056693038261076f565b610558600554966006549461054b6007549760018060a01b0360085416998451809e819e6101008084528301906107a7565b928184039101526107a7565b918a8303908b01526107a7565b9087820360608901526107a7565b93608086015260a085015260c084015260e08301520390f35b90809450528483205b8284106105a357505050860182018661050d816105666104f6565b8054848b01870152928501928101610588565b60ff1916888d015250505050151560051b8701830190508661050d816105666104f6565b634e487b7160e01b845260228352602484fd5b94607f16946104da565b50506003835283858085208b86915b85831061061c5750506104c593508201016104b9565b80919294505483858a01015201910186908b8793610606565b60ff1916848201526104c594151560051b84010191506104b99050565b92607f1692610498565b50506002825284848084208a85915b8583106106815750506104829350820101610476565b80919294505483858b01015201910185908a889361066b565b60ff19168482015261048294151560051b84010191506104769050565b634e487b7160e01b855260228652602485fd5b92607f1692610455565b505086845285838086208987915b8583106106f857505061043f9350820101610433565b80919294505483858c01015201910184908989936106e2565b60ff19168482015261043f94151560051b84010191506104339050565b634e487b7160e01b875260228552602487fd5b91607f169161040f565b8490346100bf57816003193601126100bf5790546001600160a01b03168152602090f35b90601f8019910116810190811067ffffffffffffffff82111761079157604052565b634e487b7160e01b600052604160045260246000fd5b919082519283825260005b8481106107d3575050826000602080949584010152601f8019910116010190565b6020818301810151848301820152016107b256fea26469706673582212200b07e87c7a5161877c466aafabfc61ff4562e3c1f3a5907618f481279161b71164736f6c63430008180033405787fa12a823e0f2b7631cc41b3ba8828b3321ca811111fa75cd3aa3bb5acec65a7bb8d6351c1cf70c95a316cc6a92839c986682d98bc35f958f4883f9d2a86e1540171b6c0c960b71a7020d9f60077f6af931a8bbf590da0223dacf75c7afb10e2d527612073b26eecdfd717e6a320cf44b4afac2b0732d9fcbe2b7fa0cf6",
  "linkReferences": {},
  "deployedLinkReferences": {}
}